:020000040800F2
:100000000000000009000008DFF824D009480A4970
:100010000A4A00F035F80A480A490B4A00F030F85D
:100020000A484FF000010A4A00F037F809488047B3
:10003000000001200000002000000008B8020000BD
:10004000B8020020B802000804000000BC02002032
:1000500058000000B100002001B500BF0098411E0B
:1000600000910028FAD108BD044900BF086800F0DB
:1000700020000028FAD0486870470000003801408E
:1000800070B503460C4603E025781D70641C5B1CAC
:10009000151EA2F10102F7D170BD30B5034601E093
:1000A00019705B1C141EA2F10102F9D130BD0000D1
:1000B000254D00F0D7F80120FFF7CEFF312000F0EA
:1000C00097F8302000F094F8302000F091F861208B
:1000D00000F08EF8732000F08BF86B2000F088F8A9
:1000E0000A2000F085F80D2000F082F87B2117A08F
:1000F000A8471C491CA000F06BF8204920A000F084
:1001000067F82448016824A000F062F826480178C6
:1001100026A000F05DF82948016829A000F058F8F1
:100120001048007800F064F8422000F061F809E01F
:10013000FFF79AFFC4B2204600F05AF8611CC8B21B
:1001400000F056F8F4E70000D101002074657374E4
:1001500020666F7220746578742072656C6F6361BD
:1001600074652000B8020020675F436861722773DE
:10017000206164647220203D20000000B402002051
:10018000675F436861723227732061646472203D47
:1001900020000000BC020020675F415B305D2773D8
:1001A0002076616C203D2000C8020020675F425B22
:1001B000305D27732076616C203D2000D402002042
:1001C000735F435B305D27732076616C203D2000B8
:1001D00070B505460C46284600F038F8204600F079
:1001E00013F802A000F032F870BD00000D0A000004
:1001F000044900BF0A6802F08002002AFAD0486071
:10020000704700000038014070B506460EA000F0AF
:100210001DF8072514E0A80026FA00F000F00F04EE
:10022000002C07DB092C05DC04F13001C8B2FFF714
:10023000DFFF04E004F13701C8B2FFF7D9FF6D1EFC
:10024000002DE8DA70BD00003078000010B50446DB
:1002500003E02078FFF7CCFF641C20780028F8D159
:1002600010BD000010491148026844F204031A430B
:1002700002600F48026822F0F0020260026842F059
:1002800090020260026822F470620260026842F426
:100290008062026045228A6042F20C02CA600A69EA
:1002A00022F440520A6170470038014018100240A1
:0C02B00004080140420000004100000072
:0400000500000000F7
:00000001FF
