:020000040800F2
:100000000000000009000008DFF808D000F060F8E8
:1000100001488047000001206901002010B5203A06
:10002000C0F00B80B1E81850203AA0E81850B1E8B1
:100030001850A0E81850BFF4F5AF5FEA027C24BF67
:10004000B1E81850A0E8185044BF18C918C0BDE85E
:1000500010405FEA827C24BF51F8043B40F8043B27
:1000600008BF7047D20728BF31F8023B48BF11F8DC
:10007000012B28BF20F8023B48BF00F8012B704736
:100080004FF0000200B5134694469646203922BF31
:10009000A0E80C50A0E80C50B1F12001BFF4F7AF7C
:1000A000090728BFA0E80C5048BF0CC05DF804EB5E
:1000B000890028BF40F8042B08BF704748BF20F8CC
:1000C000022B11F0804F18BF00F8012B7047000081
:1000D00010B5074A07490848FFF7A0FF074A084933
:1000E0000848FFF79BFF08490848FFF7C9FF10BD04
:1000F0007003000000000008000000200400000061
:1001000070030008700300205800000074030020F2
:1001100001B500BF0098411E00910028FAD108BD2A
:10012000044900BF086800F020000028FAD04868A1
:10013000704700000038014070B503460C4603E0EC
:1001400025781D70641C5B1C151EA2F10102F7D1FD
:1001500070BD30B5034601E019705B1C141EA2F19E
:100160000102F9D130BD0000254D00F0D7F8012083
:10017000FFF7CEFF312000F097F8302000F094F820
:10018000302000F091F8612000F08EF8732000F02C
:100190008BF86B2000F088F80A2000F085F80D201D
:1001A00000F082F87B2117A0A8471C491CA000F092
:1001B0006BF8204920A000F067F82448016824A0CB
:1001C00000F062F82648017826A000F05DF8294882
:1001D000016829A000F058F81048007800F064F891
:1001E000422000F061F809E0FFF79AFFC4B2204610
:1001F00000F05AF8611CC8B200F056F8F4E70000AD
:10020000890200207465737420666F7220746578AB
:10021000742072656C6F6361746520007003002048
:10022000675F436861722773206164647220203DB8
:10023000200000006C030020675F43686172322772
:10024000732061646472203D20000000740300206C
:10025000675F415B305D27732076616C203D200035
:1002600080030020675F425B305D27732076616CFE
:10027000203D20008C030020735F435B305D2773BB
:100280002076616C203D200070B505460C4628465E
:1002900000F038F8204600F013F802A000F032F821
:1002A00070BD00000D0A0000044900BF0A6802F09A
:1002B0008002002AFAD048607047000000380140F0
:1002C00070B506460EA000F01DF8072514E0A80042
:1002D00026FA00F000F00F04002C07DB092C05DCE7
:1002E00004F13001C8B2FFF7DFFF04E004F1370189
:1002F000C8B2FFF7D9FF6D1E002DE8DA70BD00000F
:100300003078000010B5044603E02078FFF7CCFFFA
:10031000641C20780028F8D110BD00001049114855
:10032000026844F204031A4302600F48026822F094
:10033000F0020260026842F090020260026822F459
:1003400070620260026842F48062026045228A6044
:1003500042F20C02CA600A6922F440520A617047F4
:10036000003801401810024004080140420000001B
:040370004100000048
:0400000500000000F7
:00000001FF
