:020000040800F2
:10000000000000008900000800F002F800F02CF861
:100010000AA090E8000C82448344AAF10107DA4563
:1000200001D100F021F8AFF2090EBAE80F0013F089
:10003000010F18BFFB1A43F0010318475C010000D1
:100040006C0100000023002400250026103A28BF80
:1000500078C1FBD8520728BF30C148BF0B6070473A
:100060001FB51FBD10B510BD00F014F81146FFF705
:10007000F7FF00F061F800F032F803B4FFF7F2FF89
:1000800003BC00F053F80000DFF804D000F054F88F
:1000900000000120754600F02BF8AE4605006946C9
:1000A000534620F00700854618B020B500F024F82C
:1000B000BDE820404FF000064FF000074FF0000869
:1000C0004FF0000B21F00701AC46ACE8C009ACE8EA
:1000D000C009ACE8C009ACE8C0098D46704710B54E
:1000E0000446AFF300802046BDE81040FFF7C5BFCF
:1000F000004870470000002000B54FF0160085B0A2
:10010000694601AA0A60ABBE0198002802BF0548F3
:10011000C01D20F007000399029A049B05B000BDA2
:10012000090000006000002070470000014918200D
:10013000ABBEFEE726000200144A136843F00C032E
:10014000136013490B6843F001030B601148036807
:1001500023F003030360036823F00C0303600368C8
:1001600043F0040303600A490C310A4808300CE0EC
:10017000037803F0010323B90B6823F001030B603C
:1001800003E00B6843F001030B60F1E71810024035
:10019000000C014000080140A801000800000020F8
:0801A0006000000044000008AB
:040000050800008966
:00000001FF
