:020000040800F2
:10000000000000008900000800F002F800F02CF861
:100010000AA090E8000C82448344AAF10107DA4563
:1000200001D100F021F8AFF2090EBAE80F0013F089
:10003000010F18BFFB1A43F00103184750010000DD
:10004000600100000023002400250026103A28BF8C
:1000500078C1FBD8520728BF30C148BF0B6070473A
:100060001FB51FBD10B510BD00F014F81146FFF705
:10007000F7FF00F069F800F032F803B4FFF7F2FF81
:1000800003BC00F053F80000DFF804D000F05CF887
:1000900000010020754600F02BF8AE4605006946C9
:1000A000534620F00700854618B020B500F024F82C
:1000B000BDE820404FF000064FF000074FF0000869
:1000C0004FF0000B21F00701AC46ACE8C009ACE8EA
:1000D000C009ACE8C009ACE8C0098D46704710B54E
:1000E0000446AFF300802046BDE81040FFF7C5BFCF
:1000F000004870470000002000B54FF0160085B0A2
:10010000694601AA0A60ABBE0198002802BF0548F3
:10011000C01D20F007000399029A049B05B000BDA2
:10012000090000000000000070470000014918208D
:10013000ABBEFEE72600020001B500BF0098411EDD
:1001400000910028FAD108BD0D4D0E4C0D4A0C321D
:10015000286840F008002860206840F00100206016
:100160000DE0106840F0010010600748FFF7E4FF61
:10017000106820F0010010600348FFF7DDFFF0E792
:1001800018100240000C0140A08601009C010008EC
:0C01900000000020600000004400000897
:0400000508000009E6
:00000001FF
