:020000040800F2
:10000000000000008900000800F002F800F02CF861
:100010000AA090E8000C82448344AAF10107DA4563
:1000200001D100F021F8AFF2090EBAE80F0013F089
:10003000010F18BFFB1A43F001031847C801000065
:10004000D80100000023002400250026103A28BF14
:1000500078C1FBD8520728BF30C148BF0B6070473A
:100060001FB51FBD10B510BD00F014F81146FFF705
:10007000F7FF00F06DF800F032F803B4FFF7F2FF7D
:1000800003BC00F053F80000DFF804D000F060F883
:1000900000000120754600F02BF8AE4605006946C9
:1000A000534620F00700854618B020B500F024F82C
:1000B000BDE820404FF000064FF000074FF0000869
:1000C0004FF0000B21F00701AC46ACE8C009ACE8EA
:1000D000C009ACE8C009ACE8C0098D46704710B54E
:1000E0000446AFF300802046BDE81040FFF7C5BFCF
:1000F000004870470000002000B54FF0160085B0A2
:10010000694601AA0A60ABBE0198002802BF0548F3
:10011000C01D20F007000399029A049B05B000BDA2
:10012000090000006000002070470000014918200D
:10013000ABBEFEE726000200044900BF086800F0DD
:1001400020000028FAD048687047000000380140BD
:1001500000F030F8312000F021F8302000F01EF8D7
:10016000302000F01BF8612000F018F8732000F038
:1001700015F86B2000F012F80A2000F00FF80D209F
:1001800000F00CF809E0FFF7D7FFC4B2204600F0FA
:1001900005F8611CC8B200F001F8F4E7044900BF9B
:1001A0000A6802F08002002AFAD048607047000016
:1001B0000038014010491148026844F204031A4310
:1001C00002600F48026822F0F0020260026842F00A
:1001D00090020260026822F470620260026842F4D7
:1001E0008062026045228A6042F20C02CA600A699B
:1001F00022F440520A617047003801401810024052
:100200000408014014020008000000206000000003
:04021000440000089E
:040000050800008966
:00000001FF
