
led.elf:     file format elf32-littlearm


Disassembly of section .text:

80100000 <_start>:
80100000:	e51fd000 	ldr	sp, [pc, #-0]	; 80100008 <_start+0x8>
80100004:	fb000057 	blx	8010016a <main>
80100008:	80100000 	andshi	r0, r0, r0

8010000c <uart_init>:
8010000c:	b480      	push	{r7}
8010000e:	b087      	sub	sp, #28
80100010:	af00      	add	r7, sp, #0
80100012:	2300      	movs	r3, #0
80100014:	f2c0 2302 	movt	r3, #514	; 0x202
80100018:	617b      	str	r3, [r7, #20]
8010001a:	2384      	movs	r3, #132	; 0x84
8010001c:	f2c0 230e 	movt	r3, #526	; 0x20e
80100020:	613b      	str	r3, [r7, #16]
80100022:	2388      	movs	r3, #136	; 0x88
80100024:	f2c0 230e 	movt	r3, #526	; 0x20e
80100028:	60fb      	str	r3, [r7, #12]
8010002a:	f240 6324 	movw	r3, #1572	; 0x624
8010002e:	f2c0 230e 	movt	r3, #526	; 0x20e
80100032:	60bb      	str	r3, [r7, #8]
80100034:	f244 0324 	movw	r3, #16420	; 0x4024
80100038:	f2c0 230c 	movt	r3, #524	; 0x20c
8010003c:	607b      	str	r3, [r7, #4]
8010003e:	f244 037c 	movw	r3, #16508	; 0x407c
80100042:	f2c0 230c 	movt	r3, #524	; 0x20c
80100046:	603b      	str	r3, [r7, #0]
80100048:	687b      	ldr	r3, [r7, #4]
8010004a:	681b      	ldr	r3, [r3, #0]
8010004c:	f023 027f 	bic.w	r2, r3, #127	; 0x7f
80100050:	687b      	ldr	r3, [r7, #4]
80100052:	601a      	str	r2, [r3, #0]
80100054:	683b      	ldr	r3, [r7, #0]
80100056:	681b      	ldr	r3, [r3, #0]
80100058:	f043 7240 	orr.w	r2, r3, #50331648	; 0x3000000
8010005c:	683b      	ldr	r3, [r7, #0]
8010005e:	601a      	str	r2, [r3, #0]
80100060:	693b      	ldr	r3, [r7, #16]
80100062:	681b      	ldr	r3, [r3, #0]
80100064:	f023 020f 	bic.w	r2, r3, #15
80100068:	693b      	ldr	r3, [r7, #16]
8010006a:	601a      	str	r2, [r3, #0]
8010006c:	68fb      	ldr	r3, [r7, #12]
8010006e:	681b      	ldr	r3, [r3, #0]
80100070:	f023 020f 	bic.w	r2, r3, #15
80100074:	68fb      	ldr	r3, [r7, #12]
80100076:	601a      	str	r2, [r3, #0]
80100078:	68bb      	ldr	r3, [r7, #8]
8010007a:	681b      	ldr	r3, [r3, #0]
8010007c:	f043 0203 	orr.w	r2, r3, #3
80100080:	68bb      	ldr	r3, [r7, #8]
80100082:	601a      	str	r2, [r3, #0]
80100084:	697b      	ldr	r3, [r7, #20]
80100086:	f8d3 3090 	ldr.w	r3, [r3, #144]	; 0x90
8010008a:	f443 7220 	orr.w	r2, r3, #640	; 0x280
8010008e:	697b      	ldr	r3, [r7, #20]
80100090:	f8c3 2090 	str.w	r2, [r3, #144]	; 0x90
80100094:	697b      	ldr	r3, [r7, #20]
80100096:	220f      	movs	r2, #15
80100098:	f8c3 20a4 	str.w	r2, [r3, #164]	; 0xa4
8010009c:	697b      	ldr	r3, [r7, #20]
8010009e:	f240 22b5 	movw	r2, #693	; 0x2b5
801000a2:	f8c3 20a8 	str.w	r2, [r3, #168]	; 0xa8
801000a6:	697b      	ldr	r3, [r7, #20]
801000a8:	f8d3 3084 	ldr.w	r3, [r3, #132]	; 0x84
801000ac:	f443 4380 	orr.w	r3, r3, #16384	; 0x4000
801000b0:	f043 0326 	orr.w	r3, r3, #38	; 0x26
801000b4:	697a      	ldr	r2, [r7, #20]
801000b6:	f8c2 3084 	str.w	r3, [r2, #132]	; 0x84
801000ba:	697b      	ldr	r3, [r7, #20]
801000bc:	f8d3 3088 	ldr.w	r3, [r3, #136]	; 0x88
801000c0:	f043 0204 	orr.w	r2, r3, #4
801000c4:	697b      	ldr	r3, [r7, #20]
801000c6:	f8c3 2088 	str.w	r2, [r3, #136]	; 0x88
801000ca:	697b      	ldr	r3, [r7, #20]
801000cc:	f8d3 3080 	ldr.w	r3, [r3, #128]	; 0x80
801000d0:	f043 0201 	orr.w	r2, r3, #1
801000d4:	697b      	ldr	r3, [r7, #20]
801000d6:	f8c3 2080 	str.w	r2, [r3, #128]	; 0x80
801000da:	bf00      	nop
801000dc:	371c      	adds	r7, #28
801000de:	46bd      	mov	sp, r7
801000e0:	f85d 7b04 	ldr.w	r7, [sp], #4
801000e4:	4770      	bx	lr

801000e6 <getchar>:
801000e6:	b480      	push	{r7}
801000e8:	b083      	sub	sp, #12
801000ea:	af00      	add	r7, sp, #0
801000ec:	2300      	movs	r3, #0
801000ee:	f2c0 2302 	movt	r3, #514	; 0x202
801000f2:	607b      	str	r3, [r7, #4]
801000f4:	bf00      	nop
801000f6:	687b      	ldr	r3, [r7, #4]
801000f8:	f8d3 3098 	ldr.w	r3, [r3, #152]	; 0x98
801000fc:	f003 0301 	and.w	r3, r3, #1
80100100:	2b00      	cmp	r3, #0
80100102:	d0f8      	beq.n	801000f6 <getchar+0x10>
80100104:	687b      	ldr	r3, [r7, #4]
80100106:	681b      	ldr	r3, [r3, #0]
80100108:	4618      	mov	r0, r3
8010010a:	370c      	adds	r7, #12
8010010c:	46bd      	mov	sp, r7
8010010e:	f85d 7b04 	ldr.w	r7, [sp], #4
80100112:	4770      	bx	lr

80100114 <putchar>:
80100114:	b480      	push	{r7}
80100116:	b085      	sub	sp, #20
80100118:	af00      	add	r7, sp, #0
8010011a:	4603      	mov	r3, r0
8010011c:	71fb      	strb	r3, [r7, #7]
8010011e:	2300      	movs	r3, #0
80100120:	f2c0 2302 	movt	r3, #514	; 0x202
80100124:	60fb      	str	r3, [r7, #12]
80100126:	bf00      	nop
80100128:	68fb      	ldr	r3, [r7, #12]
8010012a:	f8d3 3098 	ldr.w	r3, [r3, #152]	; 0x98
8010012e:	f003 0308 	and.w	r3, r3, #8
80100132:	2b00      	cmp	r3, #0
80100134:	d0f8      	beq.n	80100128 <putchar+0x14>
80100136:	79fa      	ldrb	r2, [r7, #7]
80100138:	68fb      	ldr	r3, [r7, #12]
8010013a:	641a      	str	r2, [r3, #64]	; 0x40
8010013c:	79fb      	ldrb	r3, [r7, #7]
8010013e:	4618      	mov	r0, r3
80100140:	3714      	adds	r7, #20
80100142:	46bd      	mov	sp, r7
80100144:	f85d 7b04 	ldr.w	r7, [sp], #4
80100148:	4770      	bx	lr

8010014a <delay>:
8010014a:	b480      	push	{r7}
8010014c:	b083      	sub	sp, #12
8010014e:	af00      	add	r7, sp, #0
80100150:	6078      	str	r0, [r7, #4]
80100152:	bf00      	nop
80100154:	687b      	ldr	r3, [r7, #4]
80100156:	1e5a      	subs	r2, r3, #1
80100158:	607a      	str	r2, [r7, #4]
8010015a:	2b00      	cmp	r3, #0
8010015c:	d1fa      	bne.n	80100154 <delay+0xa>
8010015e:	bf00      	nop
80100160:	370c      	adds	r7, #12
80100162:	46bd      	mov	sp, r7
80100164:	f85d 7b04 	ldr.w	r7, [sp], #4
80100168:	4770      	bx	lr

8010016a <main>:
8010016a:	b580      	push	{r7, lr}
8010016c:	b082      	sub	sp, #8
8010016e:	af00      	add	r7, sp, #0
80100170:	f7ff ff4c 	bl	8010000c <uart_init>
80100174:	2031      	movs	r0, #49	; 0x31
80100176:	f7ff ffcd 	bl	80100114 <putchar>
8010017a:	2030      	movs	r0, #48	; 0x30
8010017c:	f7ff ffca 	bl	80100114 <putchar>
80100180:	2030      	movs	r0, #48	; 0x30
80100182:	f7ff ffc7 	bl	80100114 <putchar>
80100186:	2061      	movs	r0, #97	; 0x61
80100188:	f7ff ffc4 	bl	80100114 <putchar>
8010018c:	2073      	movs	r0, #115	; 0x73
8010018e:	f7ff ffc1 	bl	80100114 <putchar>
80100192:	206b      	movs	r0, #107	; 0x6b
80100194:	f7ff ffbe 	bl	80100114 <putchar>
80100198:	200d      	movs	r0, #13
8010019a:	f7ff ffbb 	bl	80100114 <putchar>
8010019e:	200a      	movs	r0, #10
801001a0:	f7ff ffb8 	bl	80100114 <putchar>
801001a4:	f7ff ff9f 	bl	801000e6 <getchar>
801001a8:	4603      	mov	r3, r0
801001aa:	71fb      	strb	r3, [r7, #7]
801001ac:	79fb      	ldrb	r3, [r7, #7]
801001ae:	4618      	mov	r0, r3
801001b0:	f7ff ffb0 	bl	80100114 <putchar>
801001b4:	79fb      	ldrb	r3, [r7, #7]
801001b6:	3301      	adds	r3, #1
801001b8:	b2db      	uxtb	r3, r3
801001ba:	4618      	mov	r0, r3
801001bc:	f7ff ffaa 	bl	80100114 <putchar>
801001c0:	e7f0      	b.n	801001a4 <main+0x3a>

