
timer.elf:     file format elf32-littlearm


Disassembly of section .text:

80100000 <_start>:
80100000:	e59ff100 	ldr	pc, [pc, #256]	; 80100108 <clean+0x14>
80100004:	e59ff100 	ldr	pc, [pc, #256]	; 8010010c <clean+0x18>
80100008:	e59ff100 	ldr	pc, [pc, #256]	; 80100110 <clean+0x1c>
8010000c:	ea000034 	b	801000e4 <halt>
80100010:	ea000033 	b	801000e4 <halt>
80100014:	00000000 	andeq	r0, r0, r0
80100018:	e59ff0f4 	ldr	pc, [pc, #244]	; 80100114 <clean+0x20>
8010001c:	ea000030 	b	801000e4 <halt>

80100020 <Undefined_Handler>:
80100020:	e92d5fff 	push	{r0, r1, r2, r3, r4, r5, r6, r7, r8, r9, sl, fp, ip, lr}
80100024:	e10f0000 	mrs	r0, CPSR
80100028:	e59f10e8 	ldr	r1, [pc, #232]	; 80100118 <clean+0x24>
8010002c:	fa000167 	blx	801005d0 <printException>
80100030:	e8fd9fff 	ldm	sp!, {r0, r1, r2, r3, r4, r5, r6, r7, r8, r9, sl, fp, ip, pc}^

80100034 <und_string>:
80100034:	65646e75 	strbvs	r6, [r4, #-3701]!	; 0xfffff18b
80100038:	656e6966 	strbvs	r6, [lr, #-2406]!	; 0xfffff69a
8010003c:	6e692064 	cdpvs	0, 6, cr2, cr9, cr4, {3}
80100040:	75727473 	ldrbvc	r7, [r2, #-1139]!	; 0xfffffb8d
80100044:	6f697463 	svcvs	0x00697463
80100048:	7865206e 	stmdavc	r5!, {r1, r2, r3, r5, r6, sp}^
8010004c:	74706563 	ldrbtvc	r6, [r0], #-1379	; 0xfffffa9d
80100050:	006e6f69 	rsbeq	r6, lr, r9, ror #30

80100054 <SVC_Handler>:
80100054:	e92d5fff 	push	{r0, r1, r2, r3, r4, r5, r6, r7, r8, r9, sl, fp, ip, lr}
80100058:	e1a0400e 	mov	r4, lr
8010005c:	e10f0000 	mrs	r0, CPSR
80100060:	e59f10b4 	ldr	r1, [pc, #180]	; 8010011c <clean+0x28>
80100064:	fa000159 	blx	801005d0 <printException>
80100068:	e2440004 	sub	r0, r4, #4
8010006c:	fb000162 	blx	801005fe <printSWIVal>
80100070:	e8fd9fff 	ldm	sp!, {r0, r1, r2, r3, r4, r5, r6, r7, r8, r9, sl, fp, ip, pc}^

80100074 <swi_string>:
80100074:	20697773 	rsbcs	r7, r9, r3, ror r7
80100078:	65637865 	strbvs	r7, [r3, #-2149]!	; 0xfffff79b
8010007c:	6f697470 	svcvs	0x00697470
80100080:	0000006e 	andeq	r0, r0, lr, rrx

80100084 <IRQ_Handler>:
80100084:	e24ee004 	sub	lr, lr, #4
80100088:	e92d5fff 	push	{r0, r1, r2, r3, r4, r5, r6, r7, r8, r9, sl, fp, ip, lr}
8010008c:	fa000444 	blx	801011a4 <handle_irq_c>
80100090:	e8fd9fff 	ldm	sp!, {r0, r1, r2, r3, r4, r5, r6, r7, r8, r9, sl, fp, ip, pc}^

80100094 <Reset_Handler>:
80100094:	ee110f10 	mrc	15, 0, r0, cr1, cr0, {0}
80100098:	e3c00a02 	bic	r0, r0, #8192	; 0x2000
8010009c:	e3c00a01 	bic	r0, r0, #4096	; 0x1000
801000a0:	e3c00004 	bic	r0, r0, #4
801000a4:	e3c00004 	bic	r0, r0, #4
801000a8:	e3c00b02 	bic	r0, r0, #2048	; 0x800
801000ac:	e3c00001 	bic	r0, r0, #1
801000b0:	ee010f10 	mcr	15, 0, r0, cr1, cr0, {0}
801000b4:	f102001b 	cps	#27
801000b8:	e59fd060 	ldr	sp, [pc, #96]	; 80100120 <clean+0x2c>
801000bc:	f1020012 	cps	#18
801000c0:	e59fd05c 	ldr	sp, [pc, #92]	; 80100124 <clean+0x30>
801000c4:	f1020013 	cps	#19
801000c8:	e59fd058 	ldr	sp, [pc, #88]	; 80100128 <clean+0x34>
801000cc:	e59f0058 	ldr	r0, [pc, #88]	; 8010012c <clean+0x38>
801000d0:	ee0c0f10 	mcr	15, 0, r0, cr12, cr0, {0}
801000d4:	eb000003 	bl	801000e8 <clean_bss>
801000d8:	fa000172 	blx	801006a8 <system_init>
801000dc:	f1080080 	cpsie	i
801000e0:	fb00017e 	blx	801006e2 <main>

801000e4 <halt>:
801000e4:	eafffffe 	b	801000e4 <halt>

801000e8 <clean_bss>:
801000e8:	e59f1040 	ldr	r1, [pc, #64]	; 80100130 <clean+0x3c>
801000ec:	e59f2040 	ldr	r2, [pc, #64]	; 80100134 <clean+0x40>
801000f0:	e3a03000 	mov	r3, #0

801000f4 <clean>:
801000f4:	e1510002 	cmp	r1, r2
801000f8:	b5813000 	strlt	r3, [r1]
801000fc:	e2811004 	add	r1, r1, #4
80100100:	bafffffb 	blt	801000f4 <clean>
80100104:	e1a0f00e 	mov	pc, lr
80100108:	80100094 	mulshi	r0, r4, r0
8010010c:	80100020 	andshi	r0, r0, r0, lsr #32
80100110:	80100054 	andshi	r0, r0, r4, asr r0
80100114:	80100084 	andshi	r0, r0, r4, lsl #1
80100118:	80100034 	andshi	r0, r0, r4, lsr r0
8010011c:	80100074 	andshi	r0, r0, r4, ror r0
80100120:	80300000 	eorshi	r0, r0, r0
80100124:	80400000 	subhi	r0, r0, r0
80100128:	80200000 	eorhi	r0, r0, r0
8010012c:	80100000 	andshi	r0, r0, r0
80100130:	80101ccc 	andshi	r1, r0, ip, asr #25
80100134:	801021d0 			; <UNDEFINED> instruction: 0x801021d0

80100138 <IOMUXC_SetPinMux>:
80100138:	b480      	push	{r7}
8010013a:	b085      	sub	sp, #20
8010013c:	af00      	add	r7, sp, #0
8010013e:	60f8      	str	r0, [r7, #12]
80100140:	60b9      	str	r1, [r7, #8]
80100142:	607a      	str	r2, [r7, #4]
80100144:	603b      	str	r3, [r7, #0]
80100146:	68fb      	ldr	r3, [r7, #12]
80100148:	68ba      	ldr	r2, [r7, #8]
8010014a:	f002 010f 	and.w	r1, r2, #15
8010014e:	69fa      	ldr	r2, [r7, #28]
80100150:	0112      	lsls	r2, r2, #4
80100152:	f002 0210 	and.w	r2, r2, #16
80100156:	430a      	orrs	r2, r1
80100158:	601a      	str	r2, [r3, #0]
8010015a:	687b      	ldr	r3, [r7, #4]
8010015c:	2b00      	cmp	r3, #0
8010015e:	d004      	beq.n	8010016a <IOMUXC_SetPinMux+0x32>
80100160:	687b      	ldr	r3, [r7, #4]
80100162:	683a      	ldr	r2, [r7, #0]
80100164:	f002 0207 	and.w	r2, r2, #7
80100168:	601a      	str	r2, [r3, #0]
8010016a:	bf00      	nop
8010016c:	3714      	adds	r7, #20
8010016e:	46bd      	mov	sp, r7
80100170:	f85d 7b04 	ldr.w	r7, [sp], #4
80100174:	4770      	bx	lr

80100176 <IOMUXC_SetPinConfig>:
80100176:	b480      	push	{r7}
80100178:	b085      	sub	sp, #20
8010017a:	af00      	add	r7, sp, #0
8010017c:	60f8      	str	r0, [r7, #12]
8010017e:	60b9      	str	r1, [r7, #8]
80100180:	607a      	str	r2, [r7, #4]
80100182:	603b      	str	r3, [r7, #0]
80100184:	69bb      	ldr	r3, [r7, #24]
80100186:	2b00      	cmp	r3, #0
80100188:	d002      	beq.n	80100190 <IOMUXC_SetPinConfig+0x1a>
8010018a:	69bb      	ldr	r3, [r7, #24]
8010018c:	69fa      	ldr	r2, [r7, #28]
8010018e:	601a      	str	r2, [r3, #0]
80100190:	bf00      	nop
80100192:	3714      	adds	r7, #20
80100194:	46bd      	mov	sp, r7
80100196:	f85d 7b04 	ldr.w	r7, [sp], #4
8010019a:	4770      	bx	lr

8010019c <init_pins>:
8010019c:	b580      	push	{r7, lr}
8010019e:	b082      	sub	sp, #8
801001a0:	af02      	add	r7, sp, #8
801001a2:	2300      	movs	r3, #0
801001a4:	9301      	str	r3, [sp, #4]
801001a6:	2358      	movs	r3, #88	; 0x58
801001a8:	f2c0 2329 	movt	r3, #553	; 0x229
801001ac:	9300      	str	r3, [sp, #0]
801001ae:	2300      	movs	r3, #0
801001b0:	2200      	movs	r2, #0
801001b2:	2105      	movs	r1, #5
801001b4:	2014      	movs	r0, #20
801001b6:	f2c0 2029 	movt	r0, #553	; 0x229
801001ba:	f7ff ffbd 	bl	80100138 <IOMUXC_SetPinMux>
801001be:	2309      	movs	r3, #9
801001c0:	f2c0 0301 	movt	r3, #1
801001c4:	9301      	str	r3, [sp, #4]
801001c6:	2358      	movs	r3, #88	; 0x58
801001c8:	f2c0 2329 	movt	r3, #553	; 0x229
801001cc:	9300      	str	r3, [sp, #0]
801001ce:	2300      	movs	r3, #0
801001d0:	2200      	movs	r2, #0
801001d2:	2105      	movs	r1, #5
801001d4:	2014      	movs	r0, #20
801001d6:	f2c0 2029 	movt	r0, #553	; 0x229
801001da:	f7ff ffcc 	bl	80100176 <IOMUXC_SetPinConfig>
801001de:	2300      	movs	r3, #0
801001e0:	9301      	str	r3, [sp, #4]
801001e2:	f44f 7345 	mov.w	r3, #788	; 0x314
801001e6:	f2c0 230e 	movt	r3, #526	; 0x20e
801001ea:	9300      	str	r3, [sp, #0]
801001ec:	2303      	movs	r3, #3
801001ee:	f240 6224 	movw	r2, #1572	; 0x624
801001f2:	f2c0 220e 	movt	r2, #526	; 0x20e
801001f6:	2100      	movs	r1, #0
801001f8:	2088      	movs	r0, #136	; 0x88
801001fa:	f2c0 200e 	movt	r0, #526	; 0x20e
801001fe:	f7ff ff9b 	bl	80100138 <IOMUXC_SetPinMux>
80100202:	f241 0390 	movw	r3, #4240	; 0x1090
80100206:	9301      	str	r3, [sp, #4]
80100208:	f44f 7345 	mov.w	r3, #788	; 0x314
8010020c:	f2c0 230e 	movt	r3, #526	; 0x20e
80100210:	9300      	str	r3, [sp, #0]
80100212:	2303      	movs	r3, #3
80100214:	f240 6224 	movw	r2, #1572	; 0x624
80100218:	f2c0 220e 	movt	r2, #526	; 0x20e
8010021c:	2100      	movs	r1, #0
8010021e:	2088      	movs	r0, #136	; 0x88
80100220:	f2c0 200e 	movt	r0, #526	; 0x20e
80100224:	f7ff ffa7 	bl	80100176 <IOMUXC_SetPinConfig>
80100228:	2300      	movs	r3, #0
8010022a:	9301      	str	r3, [sp, #4]
8010022c:	f44f 7344 	mov.w	r3, #784	; 0x310
80100230:	f2c0 230e 	movt	r3, #526	; 0x20e
80100234:	9300      	str	r3, [sp, #0]
80100236:	2300      	movs	r3, #0
80100238:	2200      	movs	r2, #0
8010023a:	2100      	movs	r1, #0
8010023c:	2084      	movs	r0, #132	; 0x84
8010023e:	f2c0 200e 	movt	r0, #526	; 0x20e
80100242:	f7ff ff79 	bl	80100138 <IOMUXC_SetPinMux>
80100246:	f241 0390 	movw	r3, #4240	; 0x1090
8010024a:	9301      	str	r3, [sp, #4]
8010024c:	f44f 7344 	mov.w	r3, #784	; 0x310
80100250:	f2c0 230e 	movt	r3, #526	; 0x20e
80100254:	9300      	str	r3, [sp, #0]
80100256:	2300      	movs	r3, #0
80100258:	2200      	movs	r2, #0
8010025a:	2100      	movs	r1, #0
8010025c:	2084      	movs	r0, #132	; 0x84
8010025e:	f2c0 200e 	movt	r0, #526	; 0x20e
80100262:	f7ff ff88 	bl	80100176 <IOMUXC_SetPinConfig>
80100266:	2300      	movs	r3, #0
80100268:	9301      	str	r3, [sp, #4]
8010026a:	2350      	movs	r3, #80	; 0x50
8010026c:	f2c0 2329 	movt	r3, #553	; 0x229
80100270:	9300      	str	r3, [sp, #0]
80100272:	2300      	movs	r3, #0
80100274:	2200      	movs	r2, #0
80100276:	2105      	movs	r1, #5
80100278:	200c      	movs	r0, #12
8010027a:	f2c0 2029 	movt	r0, #553	; 0x229
8010027e:	f7ff ff5b 	bl	80100138 <IOMUXC_SetPinMux>
80100282:	f241 03b0 	movw	r3, #4272	; 0x10b0
80100286:	f2c0 0301 	movt	r3, #1
8010028a:	9301      	str	r3, [sp, #4]
8010028c:	2350      	movs	r3, #80	; 0x50
8010028e:	f2c0 2329 	movt	r3, #553	; 0x229
80100292:	9300      	str	r3, [sp, #0]
80100294:	2300      	movs	r3, #0
80100296:	2200      	movs	r2, #0
80100298:	2105      	movs	r1, #5
8010029a:	200c      	movs	r0, #12
8010029c:	f2c0 2029 	movt	r0, #553	; 0x229
801002a0:	f7ff ff69 	bl	80100176 <IOMUXC_SetPinConfig>
801002a4:	2300      	movs	r3, #0
801002a6:	9301      	str	r3, [sp, #4]
801002a8:	f240 433c 	movw	r3, #1084	; 0x43c
801002ac:	f2c0 230e 	movt	r3, #526	; 0x20e
801002b0:	9300      	str	r3, [sp, #0]
801002b2:	2300      	movs	r3, #0
801002b4:	2200      	movs	r2, #0
801002b6:	2105      	movs	r1, #5
801002b8:	f44f 70d8 	mov.w	r0, #432	; 0x1b0
801002bc:	f2c0 200e 	movt	r0, #526	; 0x20e
801002c0:	f7ff ff3a 	bl	80100138 <IOMUXC_SetPinMux>
801002c4:	f241 03b0 	movw	r3, #4272	; 0x10b0
801002c8:	f2c0 0301 	movt	r3, #1
801002cc:	9301      	str	r3, [sp, #4]
801002ce:	f240 433c 	movw	r3, #1084	; 0x43c
801002d2:	f2c0 230e 	movt	r3, #526	; 0x20e
801002d6:	9300      	str	r3, [sp, #0]
801002d8:	2300      	movs	r3, #0
801002da:	2200      	movs	r2, #0
801002dc:	2105      	movs	r1, #5
801002de:	f44f 70d8 	mov.w	r0, #432	; 0x1b0
801002e2:	f2c0 200e 	movt	r0, #526	; 0x20e
801002e6:	f7ff ff46 	bl	80100176 <IOMUXC_SetPinConfig>
801002ea:	bf00      	nop
801002ec:	46bd      	mov	sp, r7
801002ee:	bd80      	pop	{r7, pc}

801002f0 <delay>:
801002f0:	b480      	push	{r7}
801002f2:	b083      	sub	sp, #12
801002f4:	af00      	add	r7, sp, #0
801002f6:	6078      	str	r0, [r7, #4]
801002f8:	bf00      	nop
801002fa:	687b      	ldr	r3, [r7, #4]
801002fc:	1e5a      	subs	r2, r3, #1
801002fe:	607a      	str	r2, [r7, #4]
80100300:	2b00      	cmp	r3, #0
80100302:	d1fa      	bne.n	801002fa <delay+0xa>
80100304:	bf00      	nop
80100306:	370c      	adds	r7, #12
80100308:	46bd      	mov	sp, r7
8010030a:	f85d 7b04 	ldr.w	r7, [sp], #4
8010030e:	4770      	bx	lr

80100310 <boot_clk_gate_init>:
80100310:	b480      	push	{r7}
80100312:	af00      	add	r7, sp, #0
80100314:	f44f 4380 	mov.w	r3, #16384	; 0x4000
80100318:	f2c0 230c 	movt	r3, #524	; 0x20c
8010031c:	f04f 32ff 	mov.w	r2, #4294967295
80100320:	669a      	str	r2, [r3, #104]	; 0x68
80100322:	f44f 4380 	mov.w	r3, #16384	; 0x4000
80100326:	f2c0 230c 	movt	r3, #524	; 0x20c
8010032a:	f04f 32ff 	mov.w	r2, #4294967295
8010032e:	66da      	str	r2, [r3, #108]	; 0x6c
80100330:	f44f 4380 	mov.w	r3, #16384	; 0x4000
80100334:	f2c0 230c 	movt	r3, #524	; 0x20c
80100338:	f04f 32ff 	mov.w	r2, #4294967295
8010033c:	671a      	str	r2, [r3, #112]	; 0x70
8010033e:	f44f 4380 	mov.w	r3, #16384	; 0x4000
80100342:	f2c0 230c 	movt	r3, #524	; 0x20c
80100346:	f04f 32ff 	mov.w	r2, #4294967295
8010034a:	675a      	str	r2, [r3, #116]	; 0x74
8010034c:	f44f 4380 	mov.w	r3, #16384	; 0x4000
80100350:	f2c0 230c 	movt	r3, #524	; 0x20c
80100354:	f04f 32ff 	mov.w	r2, #4294967295
80100358:	679a      	str	r2, [r3, #120]	; 0x78
8010035a:	f44f 4380 	mov.w	r3, #16384	; 0x4000
8010035e:	f2c0 230c 	movt	r3, #524	; 0x20c
80100362:	f04f 32ff 	mov.w	r2, #4294967295
80100366:	67da      	str	r2, [r3, #124]	; 0x7c
80100368:	f44f 4380 	mov.w	r3, #16384	; 0x4000
8010036c:	f2c0 230c 	movt	r3, #524	; 0x20c
80100370:	f04f 32ff 	mov.w	r2, #4294967295
80100374:	f8c3 2080 	str.w	r2, [r3, #128]	; 0x80
80100378:	bf00      	nop
8010037a:	46bd      	mov	sp, r7
8010037c:	f85d 7b04 	ldr.w	r7, [sp], #4
80100380:	4770      	bx	lr

80100382 <boot_clk_init>:
80100382:	b480      	push	{r7}
80100384:	af00      	add	r7, sp, #0
80100386:	f44f 4380 	mov.w	r3, #16384	; 0x4000
8010038a:	f2c0 230c 	movt	r3, #524	; 0x20c
8010038e:	68db      	ldr	r3, [r3, #12]
80100390:	f003 0304 	and.w	r3, r3, #4
80100394:	2b00      	cmp	r3, #0
80100396:	d117      	bne.n	801003c8 <boot_clk_init+0x46>
80100398:	f44f 4380 	mov.w	r3, #16384	; 0x4000
8010039c:	f2c0 230c 	movt	r3, #524	; 0x20c
801003a0:	f44f 4280 	mov.w	r2, #16384	; 0x4000
801003a4:	f2c0 220c 	movt	r2, #524	; 0x20c
801003a8:	68d2      	ldr	r2, [r2, #12]
801003aa:	f422 7280 	bic.w	r2, r2, #256	; 0x100
801003ae:	60da      	str	r2, [r3, #12]
801003b0:	f44f 4380 	mov.w	r3, #16384	; 0x4000
801003b4:	f2c0 230c 	movt	r3, #524	; 0x20c
801003b8:	f44f 4280 	mov.w	r2, #16384	; 0x4000
801003bc:	f2c0 220c 	movt	r2, #524	; 0x20c
801003c0:	68d2      	ldr	r2, [r2, #12]
801003c2:	f042 0204 	orr.w	r2, r2, #4
801003c6:	60da      	str	r2, [r3, #12]
801003c8:	f44f 4300 	mov.w	r3, #32768	; 0x8000
801003cc:	f2c0 230c 	movt	r3, #524	; 0x20c
801003d0:	f242 0258 	movw	r2, #8280	; 0x2058
801003d4:	601a      	str	r2, [r3, #0]
801003d6:	f44f 4380 	mov.w	r3, #16384	; 0x4000
801003da:	f2c0 230c 	movt	r3, #524	; 0x20c
801003de:	f44f 4280 	mov.w	r2, #16384	; 0x4000
801003e2:	f2c0 220c 	movt	r2, #524	; 0x20c
801003e6:	68d2      	ldr	r2, [r2, #12]
801003e8:	f022 0204 	bic.w	r2, r2, #4
801003ec:	60da      	str	r2, [r3, #12]
801003ee:	f44f 4380 	mov.w	r3, #16384	; 0x4000
801003f2:	f2c0 230c 	movt	r3, #524	; 0x20c
801003f6:	2201      	movs	r2, #1
801003f8:	611a      	str	r2, [r3, #16]
801003fa:	f44f 4300 	mov.w	r3, #32768	; 0x8000
801003fe:	f2c0 230c 	movt	r3, #524	; 0x20c
80100402:	f44f 4200 	mov.w	r2, #32768	; 0x8000
80100406:	f2c0 220c 	movt	r2, #524	; 0x20c
8010040a:	f8d2 2100 	ldr.w	r2, [r2, #256]	; 0x100
8010040e:	f002 32c0 	and.w	r2, r2, #3233857728	; 0xc0c0c0c0
80100412:	f8c3 2100 	str.w	r2, [r3, #256]	; 0x100
80100416:	f44f 4200 	mov.w	r2, #32768	; 0x8000
8010041a:	f2c0 220c 	movt	r2, #524	; 0x20c
8010041e:	f44f 4300 	mov.w	r3, #32768	; 0x8000
80100422:	f2c0 230c 	movt	r3, #524	; 0x20c
80100426:	f8d3 1100 	ldr.w	r1, [r3, #256]	; 0x100
8010042a:	f241 031b 	movw	r3, #4123	; 0x101b
8010042e:	f2c3 0318 	movt	r3, #12312	; 0x3018
80100432:	430b      	orrs	r3, r1
80100434:	f8c2 3100 	str.w	r3, [r2, #256]	; 0x100
80100438:	f44f 4300 	mov.w	r3, #32768	; 0x8000
8010043c:	f2c0 230c 	movt	r3, #524	; 0x20c
80100440:	f44f 4200 	mov.w	r2, #32768	; 0x8000
80100444:	f2c0 220c 	movt	r2, #524	; 0x20c
80100448:	f8d2 20f0 	ldr.w	r2, [r2, #240]	; 0xf0
8010044c:	f002 32c0 	and.w	r2, r2, #3233857728	; 0xc0c0c0c0
80100450:	f8c3 20f0 	str.w	r2, [r3, #240]	; 0xf0
80100454:	f44f 4200 	mov.w	r2, #32768	; 0x8000
80100458:	f2c0 220c 	movt	r2, #524	; 0x20c
8010045c:	f44f 4300 	mov.w	r3, #32768	; 0x8000
80100460:	f2c0 230c 	movt	r3, #524	; 0x20c
80100464:	f8d3 10f0 	ldr.w	r1, [r3, #240]	; 0xf0
80100468:	f241 030c 	movw	r3, #4108	; 0x100c
8010046c:	f2c1 3311 	movt	r3, #4881	; 0x1311
80100470:	430b      	orrs	r3, r1
80100472:	f8c2 30f0 	str.w	r3, [r2, #240]	; 0xf0
80100476:	f44f 4380 	mov.w	r3, #16384	; 0x4000
8010047a:	f2c0 230c 	movt	r3, #524	; 0x20c
8010047e:	f44f 4280 	mov.w	r2, #16384	; 0x4000
80100482:	f2c0 220c 	movt	r2, #524	; 0x20c
80100486:	6992      	ldr	r2, [r2, #24]
80100488:	f422 02d8 	bic.w	r2, r2, #7077888	; 0x6c0000
8010048c:	619a      	str	r2, [r3, #24]
8010048e:	f44f 4380 	mov.w	r3, #16384	; 0x4000
80100492:	f2c0 230c 	movt	r3, #524	; 0x20c
80100496:	f44f 4280 	mov.w	r2, #16384	; 0x4000
8010049a:	f2c0 220c 	movt	r2, #524	; 0x20c
8010049e:	6992      	ldr	r2, [r2, #24]
801004a0:	f442 1210 	orr.w	r2, r2, #2359296	; 0x240000
801004a4:	619a      	str	r2, [r3, #24]
801004a6:	f44f 4380 	mov.w	r3, #16384	; 0x4000
801004aa:	f2c0 230c 	movt	r3, #524	; 0x20c
801004ae:	f44f 4280 	mov.w	r2, #16384	; 0x4000
801004b2:	f2c0 220c 	movt	r2, #524	; 0x20c
801004b6:	6952      	ldr	r2, [r2, #20]
801004b8:	f022 62c0 	bic.w	r2, r2, #100663296	; 0x6000000
801004bc:	615a      	str	r2, [r3, #20]
801004be:	f44f 4380 	mov.w	r3, #16384	; 0x4000
801004c2:	f2c0 230c 	movt	r3, #524	; 0x20c
801004c6:	f44f 4280 	mov.w	r2, #16384	; 0x4000
801004ca:	f2c0 220c 	movt	r2, #524	; 0x20c
801004ce:	6952      	ldr	r2, [r2, #20]
801004d0:	615a      	str	r2, [r3, #20]
801004d2:	f44f 4280 	mov.w	r2, #16384	; 0x4000
801004d6:	f2c0 220c 	movt	r2, #524	; 0x20c
801004da:	f44f 4380 	mov.w	r3, #16384	; 0x4000
801004de:	f2c0 230c 	movt	r3, #524	; 0x20c
801004e2:	695b      	ldr	r3, [r3, #20]
801004e4:	f423 23e0 	bic.w	r3, r3, #458752	; 0x70000
801004e8:	f423 7340 	bic.w	r3, r3, #768	; 0x300
801004ec:	6153      	str	r3, [r2, #20]
801004ee:	f44f 4280 	mov.w	r2, #16384	; 0x4000
801004f2:	f2c0 220c 	movt	r2, #524	; 0x20c
801004f6:	f44f 4380 	mov.w	r3, #16384	; 0x4000
801004fa:	f2c0 230c 	movt	r3, #524	; 0x20c
801004fe:	695b      	ldr	r3, [r3, #20]
80100500:	f443 3380 	orr.w	r3, r3, #65536	; 0x10000
80100504:	f443 7380 	orr.w	r3, r3, #256	; 0x100
80100508:	6153      	str	r3, [r2, #20]
8010050a:	f44f 4280 	mov.w	r2, #16384	; 0x4000
8010050e:	f2c0 220c 	movt	r2, #524	; 0x20c
80100512:	f44f 4380 	mov.w	r3, #16384	; 0x4000
80100516:	f2c0 230c 	movt	r3, #524	; 0x20c
8010051a:	695b      	ldr	r3, [r3, #20]
8010051c:	f023 5360 	bic.w	r3, r3, #939524096	; 0x38000000
80100520:	f023 0387 	bic.w	r3, r3, #135	; 0x87
80100524:	6153      	str	r3, [r2, #20]
80100526:	f44f 4380 	mov.w	r3, #16384	; 0x4000
8010052a:	f2c0 230c 	movt	r3, #524	; 0x20c
8010052e:	f44f 4280 	mov.w	r2, #16384	; 0x4000
80100532:	f2c0 220c 	movt	r2, #524	; 0x20c
80100536:	6952      	ldr	r2, [r2, #20]
80100538:	615a      	str	r2, [r3, #20]
8010053a:	bf00      	nop
8010053c:	f44f 4380 	mov.w	r3, #16384	; 0x4000
80100540:	f2c0 230c 	movt	r3, #524	; 0x20c
80100544:	6c9b      	ldr	r3, [r3, #72]	; 0x48
80100546:	f003 032f 	and.w	r3, r3, #47	; 0x2f
8010054a:	2b00      	cmp	r3, #0
8010054c:	d1f6      	bne.n	8010053c <boot_clk_init+0x1ba>
8010054e:	f44f 4380 	mov.w	r3, #16384	; 0x4000
80100552:	f2c0 230c 	movt	r3, #524	; 0x20c
80100556:	f44f 4280 	mov.w	r2, #16384	; 0x4000
8010055a:	f2c0 220c 	movt	r2, #524	; 0x20c
8010055e:	68d2      	ldr	r2, [r2, #12]
80100560:	f022 0201 	bic.w	r2, r2, #1
80100564:	60da      	str	r2, [r3, #12]
80100566:	f44f 4380 	mov.w	r3, #16384	; 0x4000
8010056a:	f2c0 230c 	movt	r3, #524	; 0x20c
8010056e:	f44f 4280 	mov.w	r2, #16384	; 0x4000
80100572:	f2c0 220c 	movt	r2, #524	; 0x20c
80100576:	6a52      	ldr	r2, [r2, #36]	; 0x24
80100578:	f022 0240 	bic.w	r2, r2, #64	; 0x40
8010057c:	625a      	str	r2, [r3, #36]	; 0x24
8010057e:	f44f 4380 	mov.w	r3, #16384	; 0x4000
80100582:	f2c0 230c 	movt	r3, #524	; 0x20c
80100586:	f44f 4280 	mov.w	r2, #16384	; 0x4000
8010058a:	f2c0 220c 	movt	r2, #524	; 0x20c
8010058e:	6a52      	ldr	r2, [r2, #36]	; 0x24
80100590:	f022 023f 	bic.w	r2, r2, #63	; 0x3f
80100594:	625a      	str	r2, [r3, #36]	; 0x24
80100596:	f44f 4380 	mov.w	r3, #16384	; 0x4000
8010059a:	f2c0 230c 	movt	r3, #524	; 0x20c
8010059e:	f44f 4280 	mov.w	r2, #16384	; 0x4000
801005a2:	f2c0 220c 	movt	r2, #524	; 0x20c
801005a6:	69d2      	ldr	r2, [r2, #28]
801005a8:	f022 0240 	bic.w	r2, r2, #64	; 0x40
801005ac:	61da      	str	r2, [r3, #28]
801005ae:	f44f 4380 	mov.w	r3, #16384	; 0x4000
801005b2:	f2c0 230c 	movt	r3, #524	; 0x20c
801005b6:	f44f 4280 	mov.w	r2, #16384	; 0x4000
801005ba:	f2c0 220c 	movt	r2, #524	; 0x20c
801005be:	69d2      	ldr	r2, [r2, #28]
801005c0:	f022 023f 	bic.w	r2, r2, #63	; 0x3f
801005c4:	61da      	str	r2, [r3, #28]
801005c6:	bf00      	nop
801005c8:	46bd      	mov	sp, r7
801005ca:	f85d 7b04 	ldr.w	r7, [sp], #4
801005ce:	4770      	bx	lr

801005d0 <printException>:
801005d0:	b580      	push	{r7, lr}
801005d2:	b082      	sub	sp, #8
801005d4:	af00      	add	r7, sp, #0
801005d6:	6078      	str	r0, [r7, #4]
801005d8:	6039      	str	r1, [r7, #0]
801005da:	6879      	ldr	r1, [r7, #4]
801005dc:	f641 20a4 	movw	r0, #6820	; 0x1aa4
801005e0:	f2c8 0010 	movt	r0, #32784	; 0x8010
801005e4:	f000 fc91 	bl	80100f0a <printf>
801005e8:	6839      	ldr	r1, [r7, #0]
801005ea:	f641 20c0 	movw	r0, #6848	; 0x1ac0
801005ee:	f2c8 0010 	movt	r0, #32784	; 0x8010
801005f2:	f000 fc8a 	bl	80100f0a <printf>
801005f6:	bf00      	nop
801005f8:	3708      	adds	r7, #8
801005fa:	46bd      	mov	sp, r7
801005fc:	bd80      	pop	{r7, pc}

801005fe <printSWIVal>:
801005fe:	b580      	push	{r7, lr}
80100600:	b082      	sub	sp, #8
80100602:	af00      	add	r7, sp, #0
80100604:	6078      	str	r0, [r7, #4]
80100606:	687b      	ldr	r3, [r7, #4]
80100608:	681b      	ldr	r3, [r3, #0]
8010060a:	f023 437f 	bic.w	r3, r3, #4278190080	; 0xff000000
8010060e:	4619      	mov	r1, r3
80100610:	f641 20c8 	movw	r0, #6856	; 0x1ac8
80100614:	f2c8 0010 	movt	r0, #32784	; 0x8010
80100618:	f000 fc77 	bl	80100f0a <printf>
8010061c:	bf00      	nop
8010061e:	3708      	adds	r7, #8
80100620:	46bd      	mov	sp, r7
80100622:	bd80      	pop	{r7, pc}

80100624 <GPT1_COMP1_handle_irq>:
80100624:	b580      	push	{r7, lr}
80100626:	af00      	add	r7, sp, #0
80100628:	f641 20dc 	movw	r0, #6876	; 0x1adc
8010062c:	f2c8 0010 	movt	r0, #32784	; 0x8010
80100630:	f000 fc6b 	bl	80100f0a <printf>
80100634:	f44f 4300 	mov.w	r3, #32768	; 0x8000
80100638:	f2c0 2309 	movt	r3, #521	; 0x209
8010063c:	f44f 4200 	mov.w	r2, #32768	; 0x8000
80100640:	f2c0 2209 	movt	r2, #521	; 0x209
80100644:	6892      	ldr	r2, [r2, #8]
80100646:	f042 0201 	orr.w	r2, r2, #1
8010064a:	609a      	str	r2, [r3, #8]
8010064c:	f641 43b8 	movw	r3, #7352	; 0x1cb8
80100650:	f2c8 0310 	movt	r3, #32784	; 0x8010
80100654:	681b      	ldr	r3, [r3, #0]
80100656:	2b00      	cmp	r3, #0
80100658:	d012      	beq.n	80100680 <GPT1_COMP1_handle_irq+0x5c>
8010065a:	f44f 4340 	mov.w	r3, #49152	; 0xc000
8010065e:	f2c0 230a 	movt	r3, #522	; 0x20a
80100662:	f44f 4240 	mov.w	r2, #49152	; 0xc000
80100666:	f2c0 220a 	movt	r2, #522	; 0x20a
8010066a:	6812      	ldr	r2, [r2, #0]
8010066c:	f042 0208 	orr.w	r2, r2, #8
80100670:	601a      	str	r2, [r3, #0]
80100672:	f641 43b8 	movw	r3, #7352	; 0x1cb8
80100676:	f2c8 0310 	movt	r3, #32784	; 0x8010
8010067a:	2200      	movs	r2, #0
8010067c:	601a      	str	r2, [r3, #0]
8010067e:	e011      	b.n	801006a4 <GPT1_COMP1_handle_irq+0x80>
80100680:	f44f 4340 	mov.w	r3, #49152	; 0xc000
80100684:	f2c0 230a 	movt	r3, #522	; 0x20a
80100688:	f44f 4240 	mov.w	r2, #49152	; 0xc000
8010068c:	f2c0 220a 	movt	r2, #522	; 0x20a
80100690:	6812      	ldr	r2, [r2, #0]
80100692:	f022 0208 	bic.w	r2, r2, #8
80100696:	601a      	str	r2, [r3, #0]
80100698:	f641 43b8 	movw	r3, #7352	; 0x1cb8
8010069c:	f2c8 0310 	movt	r3, #32784	; 0x8010
801006a0:	2201      	movs	r2, #1
801006a2:	601a      	str	r2, [r3, #0]
801006a4:	bf00      	nop
801006a6:	bd80      	pop	{r7, pc}

801006a8 <system_init>:
801006a8:	b580      	push	{r7, lr}
801006aa:	af00      	add	r7, sp, #0
801006ac:	f7ff fd76 	bl	8010019c <init_pins>
801006b0:	f000 f82f 	bl	80100712 <led_gpio_init>
801006b4:	2000      	movs	r0, #0
801006b6:	f000 f83f 	bl	80100738 <led_ctl>
801006ba:	f7ff fe29 	bl	80100310 <boot_clk_gate_init>
801006be:	f7ff fe60 	bl	80100382 <boot_clk_init>
801006c2:	f000 f9c6 	bl	80100a52 <uart1_init>
801006c6:	f641 20fc 	movw	r0, #6908	; 0x1afc
801006ca:	f2c8 0010 	movt	r0, #32784	; 0x8010
801006ce:	f000 fa8f 	bl	80100bf0 <puts>
801006d2:	f000 fd4e 	bl	80101172 <system_init_irq_table>
801006d6:	f000 fcb6 	bl	80101046 <gic_init>
801006da:	f000 ffd6 	bl	8010168a <system_counter_init>
801006de:	bf00      	nop
801006e0:	bd80      	pop	{r7, pc}

801006e2 <main>:
801006e2:	b580      	push	{r7, lr}
801006e4:	b082      	sub	sp, #8
801006e6:	af00      	add	r7, sp, #0
801006e8:	f000 fa6c 	bl	80100bc4 <getchar>
801006ec:	4603      	mov	r3, r0
801006ee:	71fb      	strb	r3, [r7, #7]
801006f0:	79fb      	ldrb	r3, [r7, #7]
801006f2:	2b0d      	cmp	r3, #13
801006f4:	d102      	bne.n	801006fc <main+0x1a>
801006f6:	200a      	movs	r0, #10
801006f8:	f000 fa4a 	bl	80100b90 <putchar>
801006fc:	79fb      	ldrb	r3, [r7, #7]
801006fe:	2b0a      	cmp	r3, #10
80100700:	d102      	bne.n	80100708 <main+0x26>
80100702:	200d      	movs	r0, #13
80100704:	f000 fa44 	bl	80100b90 <putchar>
80100708:	79fb      	ldrb	r3, [r7, #7]
8010070a:	4618      	mov	r0, r3
8010070c:	f000 fa40 	bl	80100b90 <putchar>
80100710:	e7ea      	b.n	801006e8 <main+0x6>

80100712 <led_gpio_init>:
80100712:	b480      	push	{r7}
80100714:	af00      	add	r7, sp, #0
80100716:	f44f 4340 	mov.w	r3, #49152	; 0xc000
8010071a:	f2c0 230a 	movt	r3, #522	; 0x20a
8010071e:	f44f 4240 	mov.w	r2, #49152	; 0xc000
80100722:	f2c0 220a 	movt	r2, #522	; 0x20a
80100726:	6852      	ldr	r2, [r2, #4]
80100728:	f042 0208 	orr.w	r2, r2, #8
8010072c:	605a      	str	r2, [r3, #4]
8010072e:	bf00      	nop
80100730:	46bd      	mov	sp, r7
80100732:	f85d 7b04 	ldr.w	r7, [sp], #4
80100736:	4770      	bx	lr

80100738 <led_ctl>:
80100738:	b480      	push	{r7}
8010073a:	b083      	sub	sp, #12
8010073c:	af00      	add	r7, sp, #0
8010073e:	6078      	str	r0, [r7, #4]
80100740:	687b      	ldr	r3, [r7, #4]
80100742:	2b00      	cmp	r3, #0
80100744:	d00c      	beq.n	80100760 <led_ctl+0x28>
80100746:	f44f 4340 	mov.w	r3, #49152	; 0xc000
8010074a:	f2c0 230a 	movt	r3, #522	; 0x20a
8010074e:	f44f 4240 	mov.w	r2, #49152	; 0xc000
80100752:	f2c0 220a 	movt	r2, #522	; 0x20a
80100756:	6812      	ldr	r2, [r2, #0]
80100758:	f022 0208 	bic.w	r2, r2, #8
8010075c:	601a      	str	r2, [r3, #0]
8010075e:	e00b      	b.n	80100778 <led_ctl+0x40>
80100760:	f44f 4340 	mov.w	r3, #49152	; 0xc000
80100764:	f2c0 230a 	movt	r3, #522	; 0x20a
80100768:	f44f 4240 	mov.w	r2, #49152	; 0xc000
8010076c:	f2c0 220a 	movt	r2, #522	; 0x20a
80100770:	6812      	ldr	r2, [r2, #0]
80100772:	f042 0208 	orr.w	r2, r2, #8
80100776:	601a      	str	r2, [r3, #0]
80100778:	bf00      	nop
8010077a:	370c      	adds	r7, #12
8010077c:	46bd      	mov	sp, r7
8010077e:	f85d 7b04 	ldr.w	r7, [sp], #4
80100782:	4770      	bx	lr

80100784 <UART_SetBaudRate>:
80100784:	b590      	push	{r4, r7, lr}
80100786:	b091      	sub	sp, #68	; 0x44
80100788:	af00      	add	r7, sp, #0
8010078a:	6078      	str	r0, [r7, #4]
8010078c:	6039      	str	r1, [r7, #0]
8010078e:	2300      	movs	r3, #0
80100790:	63fb      	str	r3, [r7, #60]	; 0x3c
80100792:	2300      	movs	r3, #0
80100794:	63bb      	str	r3, [r7, #56]	; 0x38
80100796:	2300      	movs	r3, #0
80100798:	637b      	str	r3, [r7, #52]	; 0x34
8010079a:	2300      	movs	r3, #0
8010079c:	633b      	str	r3, [r7, #48]	; 0x30
8010079e:	2301      	movs	r3, #1
801007a0:	623b      	str	r3, [r7, #32]
801007a2:	f04f 0300 	mov.w	r3, #0
801007a6:	f04f 0400 	mov.w	r4, #0
801007aa:	e9c7 3406 	strd	r3, r4, [r7, #24]
801007ae:	f04f 0300 	mov.w	r3, #0
801007b2:	f04f 0400 	mov.w	r4, #0
801007b6:	e9c7 340a 	strd	r3, r4, [r7, #40]	; 0x28
801007ba:	2300      	movs	r3, #0
801007bc:	627b      	str	r3, [r7, #36]	; 0x24
801007be:	683b      	ldr	r3, [r7, #0]
801007c0:	63fb      	str	r3, [r7, #60]	; 0x3c
801007c2:	687b      	ldr	r3, [r7, #4]
801007c4:	011b      	lsls	r3, r3, #4
801007c6:	63bb      	str	r3, [r7, #56]	; 0x38
801007c8:	2301      	movs	r3, #1
801007ca:	637b      	str	r3, [r7, #52]	; 0x34
801007cc:	e00a      	b.n	801007e4 <UART_SetBaudRate+0x60>
801007ce:	6bbb      	ldr	r3, [r7, #56]	; 0x38
801007d0:	637b      	str	r3, [r7, #52]	; 0x34
801007d2:	6bfb      	ldr	r3, [r7, #60]	; 0x3c
801007d4:	6bb9      	ldr	r1, [r7, #56]	; 0x38
801007d6:	4618      	mov	r0, r3
801007d8:	f001 f8ac 	bl	80101934 <__aeabi_uidivmod>
801007dc:	460b      	mov	r3, r1
801007de:	63bb      	str	r3, [r7, #56]	; 0x38
801007e0:	6b7b      	ldr	r3, [r7, #52]	; 0x34
801007e2:	63fb      	str	r3, [r7, #60]	; 0x3c
801007e4:	6bbb      	ldr	r3, [r7, #56]	; 0x38
801007e6:	2b00      	cmp	r3, #0
801007e8:	d1f1      	bne.n	801007ce <UART_SetBaudRate+0x4a>
801007ea:	6b79      	ldr	r1, [r7, #52]	; 0x34
801007ec:	6838      	ldr	r0, [r7, #0]
801007ee:	f000 ff73 	bl	801016d8 <__aeabi_uidiv>
801007f2:	4603      	mov	r3, r0
801007f4:	63fb      	str	r3, [r7, #60]	; 0x3c
801007f6:	687b      	ldr	r3, [r7, #4]
801007f8:	011b      	lsls	r3, r3, #4
801007fa:	6b79      	ldr	r1, [r7, #52]	; 0x34
801007fc:	4618      	mov	r0, r3
801007fe:	f000 ff6b 	bl	801016d8 <__aeabi_uidiv>
80100802:	4603      	mov	r3, r0
80100804:	63bb      	str	r3, [r7, #56]	; 0x38
80100806:	6bfa      	ldr	r2, [r7, #60]	; 0x3c
80100808:	f64f 73f9 	movw	r3, #65529	; 0xfff9
8010080c:	f2c0 0306 	movt	r3, #6
80100810:	429a      	cmp	r2, r3
80100812:	d803      	bhi.n	8010081c <UART_SetBaudRate+0x98>
80100814:	6bbb      	ldr	r3, [r7, #56]	; 0x38
80100816:	f5b3 3f80 	cmp.w	r3, #65536	; 0x10000
8010081a:	d334      	bcc.n	80100886 <UART_SetBaudRate+0x102>
8010081c:	6bfb      	ldr	r3, [r7, #60]	; 0x3c
8010081e:	1e5a      	subs	r2, r3, #1
80100820:	f646 53b9 	movw	r3, #28089	; 0x6db9
80100824:	f2c2 4393 	movt	r3, #9363	; 0x2493
80100828:	fba2 3403 	umull	r3, r4, r2, r3
8010082c:	1b12      	subs	r2, r2, r4
8010082e:	0852      	lsrs	r2, r2, #1
80100830:	1913      	adds	r3, r2, r4
80100832:	0c9b      	lsrs	r3, r3, #18
80100834:	3301      	adds	r3, #1
80100836:	617b      	str	r3, [r7, #20]
80100838:	6bbb      	ldr	r3, [r7, #56]	; 0x38
8010083a:	1e5a      	subs	r2, r3, #1
8010083c:	f248 0301 	movw	r3, #32769	; 0x8001
80100840:	f2c8 0300 	movt	r3, #32768	; 0x8000
80100844:	fba2 3403 	umull	r3, r4, r2, r3
80100848:	0be3      	lsrs	r3, r4, #15
8010084a:	3301      	adds	r3, #1
8010084c:	613b      	str	r3, [r7, #16]
8010084e:	693a      	ldr	r2, [r7, #16]
80100850:	697b      	ldr	r3, [r7, #20]
80100852:	4293      	cmp	r3, r2
80100854:	bf38      	it	cc
80100856:	4613      	movcc	r3, r2
80100858:	60fb      	str	r3, [r7, #12]
8010085a:	68f9      	ldr	r1, [r7, #12]
8010085c:	6bf8      	ldr	r0, [r7, #60]	; 0x3c
8010085e:	f000 ff3b 	bl	801016d8 <__aeabi_uidiv>
80100862:	4603      	mov	r3, r0
80100864:	63fb      	str	r3, [r7, #60]	; 0x3c
80100866:	68f9      	ldr	r1, [r7, #12]
80100868:	6bb8      	ldr	r0, [r7, #56]	; 0x38
8010086a:	f000 ff35 	bl	801016d8 <__aeabi_uidiv>
8010086e:	4603      	mov	r3, r0
80100870:	63bb      	str	r3, [r7, #56]	; 0x38
80100872:	6bfb      	ldr	r3, [r7, #60]	; 0x3c
80100874:	2b00      	cmp	r3, #0
80100876:	d101      	bne.n	8010087c <UART_SetBaudRate+0xf8>
80100878:	2301      	movs	r3, #1
8010087a:	63fb      	str	r3, [r7, #60]	; 0x3c
8010087c:	6bbb      	ldr	r3, [r7, #56]	; 0x38
8010087e:	2b00      	cmp	r3, #0
80100880:	d101      	bne.n	80100886 <UART_SetBaudRate+0x102>
80100882:	2301      	movs	r3, #1
80100884:	63bb      	str	r3, [r7, #56]	; 0x38
80100886:	6bfb      	ldr	r3, [r7, #60]	; 0x3c
80100888:	1e5a      	subs	r2, r3, #1
8010088a:	f248 0301 	movw	r3, #32769	; 0x8001
8010088e:	f2c8 0300 	movt	r3, #32768	; 0x8000
80100892:	fba2 3403 	umull	r3, r4, r2, r3
80100896:	0be3      	lsrs	r3, r4, #15
80100898:	3301      	adds	r3, #1
8010089a:	623b      	str	r3, [r7, #32]
8010089c:	6a3b      	ldr	r3, [r7, #32]
8010089e:	3b01      	subs	r3, #1
801008a0:	2b06      	cmp	r3, #6
801008a2:	d826      	bhi.n	801008f2 <UART_SetBaudRate+0x16e>
801008a4:	a201      	add	r2, pc, #4	; (adr r2, 801008ac <UART_SetBaudRate+0x128>)
801008a6:	f852 f023 	ldr.w	pc, [r2, r3, lsl #2]
801008aa:	bf00      	nop
801008ac:	801008c9 	andshi	r0, r0, r9, asr #17
801008b0:	801008cf 	andshi	r0, r0, pc, asr #17
801008b4:	801008d5 			; <UNDEFINED> instruction: 0x801008d5
801008b8:	801008db 			; <UNDEFINED> instruction: 0x801008db
801008bc:	801008e1 	andshi	r0, r0, r1, ror #17
801008c0:	801008e7 	andshi	r0, r0, r7, ror #17
801008c4:	801008ed 	andshi	r0, r0, sp, ror #17
801008c8:	2305      	movs	r3, #5
801008ca:	633b      	str	r3, [r7, #48]	; 0x30
801008cc:	e014      	b.n	801008f8 <UART_SetBaudRate+0x174>
801008ce:	2304      	movs	r3, #4
801008d0:	633b      	str	r3, [r7, #48]	; 0x30
801008d2:	e011      	b.n	801008f8 <UART_SetBaudRate+0x174>
801008d4:	2303      	movs	r3, #3
801008d6:	633b      	str	r3, [r7, #48]	; 0x30
801008d8:	e00e      	b.n	801008f8 <UART_SetBaudRate+0x174>
801008da:	2302      	movs	r3, #2
801008dc:	633b      	str	r3, [r7, #48]	; 0x30
801008de:	e00b      	b.n	801008f8 <UART_SetBaudRate+0x174>
801008e0:	2301      	movs	r3, #1
801008e2:	633b      	str	r3, [r7, #48]	; 0x30
801008e4:	e008      	b.n	801008f8 <UART_SetBaudRate+0x174>
801008e6:	2300      	movs	r3, #0
801008e8:	633b      	str	r3, [r7, #48]	; 0x30
801008ea:	e005      	b.n	801008f8 <UART_SetBaudRate+0x174>
801008ec:	2306      	movs	r3, #6
801008ee:	633b      	str	r3, [r7, #48]	; 0x30
801008f0:	e002      	b.n	801008f8 <UART_SetBaudRate+0x174>
801008f2:	2305      	movs	r3, #5
801008f4:	633b      	str	r3, [r7, #48]	; 0x30
801008f6:	bf00      	nop
801008f8:	683b      	ldr	r3, [r7, #0]
801008fa:	f04f 0400 	mov.w	r4, #0
801008fe:	e9c7 340a 	strd	r3, r4, [r7, #40]	; 0x28
80100902:	6bfb      	ldr	r3, [r7, #60]	; 0x3c
80100904:	011b      	lsls	r3, r3, #4
80100906:	627b      	str	r3, [r7, #36]	; 0x24
80100908:	2301      	movs	r3, #1
8010090a:	637b      	str	r3, [r7, #52]	; 0x34
8010090c:	e012      	b.n	80100934 <UART_SetBaudRate+0x1b0>
8010090e:	6a7b      	ldr	r3, [r7, #36]	; 0x24
80100910:	637b      	str	r3, [r7, #52]	; 0x34
80100912:	6a7b      	ldr	r3, [r7, #36]	; 0x24
80100914:	f04f 0400 	mov.w	r4, #0
80100918:	e9d7 010a 	ldrd	r0, r1, [r7, #40]	; 0x28
8010091c:	461a      	mov	r2, r3
8010091e:	4623      	mov	r3, r4
80100920:	f001 f816 	bl	80101950 <__aeabi_uldivmod>
80100924:	461c      	mov	r4, r3
80100926:	4613      	mov	r3, r2
80100928:	627b      	str	r3, [r7, #36]	; 0x24
8010092a:	6b7b      	ldr	r3, [r7, #52]	; 0x34
8010092c:	f04f 0400 	mov.w	r4, #0
80100930:	e9c7 340a 	strd	r3, r4, [r7, #40]	; 0x28
80100934:	6a7b      	ldr	r3, [r7, #36]	; 0x24
80100936:	2b00      	cmp	r3, #0
80100938:	d1e9      	bne.n	8010090e <UART_SetBaudRate+0x18a>
8010093a:	6b79      	ldr	r1, [r7, #52]	; 0x34
8010093c:	6838      	ldr	r0, [r7, #0]
8010093e:	f000 fecb 	bl	801016d8 <__aeabi_uidiv>
80100942:	4603      	mov	r3, r0
80100944:	f04f 0400 	mov.w	r4, #0
80100948:	e9c7 340a 	strd	r3, r4, [r7, #40]	; 0x28
8010094c:	6bfb      	ldr	r3, [r7, #60]	; 0x3c
8010094e:	011b      	lsls	r3, r3, #4
80100950:	6b79      	ldr	r1, [r7, #52]	; 0x34
80100952:	4618      	mov	r0, r3
80100954:	f000 fec0 	bl	801016d8 <__aeabi_uidiv>
80100958:	4603      	mov	r3, r0
8010095a:	627b      	str	r3, [r7, #36]	; 0x24
8010095c:	6bbb      	ldr	r3, [r7, #56]	; 0x38
8010095e:	f04f 0400 	mov.w	r4, #0
80100962:	6aba      	ldr	r2, [r7, #40]	; 0x28
80100964:	fb04 f102 	mul.w	r1, r4, r2
80100968:	6afa      	ldr	r2, [r7, #44]	; 0x2c
8010096a:	fb03 f202 	mul.w	r2, r3, r2
8010096e:	440a      	add	r2, r1
80100970:	6ab9      	ldr	r1, [r7, #40]	; 0x28
80100972:	fba1 0103 	umull	r0, r1, r1, r3
80100976:	1853      	adds	r3, r2, r1
80100978:	4619      	mov	r1, r3
8010097a:	6a7b      	ldr	r3, [r7, #36]	; 0x24
8010097c:	f04f 0400 	mov.w	r4, #0
80100980:	461a      	mov	r2, r3
80100982:	4623      	mov	r3, r4
80100984:	f000 ffe4 	bl	80101950 <__aeabi_uldivmod>
80100988:	4603      	mov	r3, r0
8010098a:	460c      	mov	r4, r1
8010098c:	e9c7 3406 	strd	r3, r4, [r7, #24]
80100990:	687b      	ldr	r3, [r7, #4]
80100992:	f04f 0400 	mov.w	r4, #0
80100996:	e9d7 1206 	ldrd	r1, r2, [r7, #24]
8010099a:	42a2      	cmp	r2, r4
8010099c:	bf08      	it	eq
8010099e:	4299      	cmpeq	r1, r3
801009a0:	d308      	bcc.n	801009b4 <UART_SetBaudRate+0x230>
801009a2:	687b      	ldr	r3, [r7, #4]
801009a4:	f04f 0400 	mov.w	r4, #0
801009a8:	e9d7 1206 	ldrd	r1, r2, [r7, #24]
801009ac:	1acb      	subs	r3, r1, r3
801009ae:	eb62 0404 	sbc.w	r4, r2, r4
801009b2:	e008      	b.n	801009c6 <UART_SetBaudRate+0x242>
801009b4:	687b      	ldr	r3, [r7, #4]
801009b6:	4619      	mov	r1, r3
801009b8:	f04f 0200 	mov.w	r2, #0
801009bc:	e9d7 3406 	ldrd	r3, r4, [r7, #24]
801009c0:	1acb      	subs	r3, r1, r3
801009c2:	eb62 0404 	sbc.w	r4, r2, r4
801009c6:	e9c7 3406 	strd	r3, r4, [r7, #24]
801009ca:	2300      	movs	r3, #0
801009cc:	f2c0 2302 	movt	r3, #514	; 0x202
801009d0:	2200      	movs	r2, #0
801009d2:	f2c0 2202 	movt	r2, #514	; 0x202
801009d6:	f8d2 2090 	ldr.w	r2, [r2, #144]	; 0x90
801009da:	f422 7260 	bic.w	r2, r2, #896	; 0x380
801009de:	f8c3 2090 	str.w	r2, [r3, #144]	; 0x90
801009e2:	2300      	movs	r3, #0
801009e4:	f2c0 2302 	movt	r3, #514	; 0x202
801009e8:	2200      	movs	r2, #0
801009ea:	f2c0 2202 	movt	r2, #514	; 0x202
801009ee:	f8d2 1090 	ldr.w	r1, [r2, #144]	; 0x90
801009f2:	6b3a      	ldr	r2, [r7, #48]	; 0x30
801009f4:	01d2      	lsls	r2, r2, #7
801009f6:	f402 7260 	and.w	r2, r2, #896	; 0x380
801009fa:	430a      	orrs	r2, r1
801009fc:	f8c3 2090 	str.w	r2, [r3, #144]	; 0x90
80100a00:	2300      	movs	r3, #0
80100a02:	f2c0 2302 	movt	r3, #514	; 0x202
80100a06:	6bba      	ldr	r2, [r7, #56]	; 0x38
80100a08:	3a01      	subs	r2, #1
80100a0a:	b292      	uxth	r2, r2
80100a0c:	f8c3 20a4 	str.w	r2, [r3, #164]	; 0xa4
80100a10:	2400      	movs	r4, #0
80100a12:	f2c0 2402 	movt	r4, #514	; 0x202
80100a16:	6a39      	ldr	r1, [r7, #32]
80100a18:	6bf8      	ldr	r0, [r7, #60]	; 0x3c
80100a1a:	f000 fe5d 	bl	801016d8 <__aeabi_uidiv>
80100a1e:	4603      	mov	r3, r0
80100a20:	3b01      	subs	r3, #1
80100a22:	b29b      	uxth	r3, r3
80100a24:	f8c4 30a8 	str.w	r3, [r4, #168]	; 0xa8
80100a28:	2400      	movs	r4, #0
80100a2a:	f2c0 2402 	movt	r4, #514	; 0x202
80100a2e:	6a3b      	ldr	r3, [r7, #32]
80100a30:	f44f 727a 	mov.w	r2, #1000	; 0x3e8
80100a34:	fb02 f303 	mul.w	r3, r2, r3
80100a38:	4619      	mov	r1, r3
80100a3a:	6838      	ldr	r0, [r7, #0]
80100a3c:	f000 fe4c 	bl	801016d8 <__aeabi_uidiv>
80100a40:	4603      	mov	r3, r0
80100a42:	f023 437f 	bic.w	r3, r3, #4278190080	; 0xff000000
80100a46:	f8c4 30b0 	str.w	r3, [r4, #176]	; 0xb0
80100a4a:	bf00      	nop
80100a4c:	3744      	adds	r7, #68	; 0x44
80100a4e:	46bd      	mov	sp, r7
80100a50:	bd90      	pop	{r4, r7, pc}

80100a52 <uart1_init>:
80100a52:	b580      	push	{r7, lr}
80100a54:	af00      	add	r7, sp, #0
80100a56:	2300      	movs	r3, #0
80100a58:	f2c0 2302 	movt	r3, #514	; 0x202
80100a5c:	2200      	movs	r2, #0
80100a5e:	f2c0 2202 	movt	r2, #514	; 0x202
80100a62:	f8d2 2080 	ldr.w	r2, [r2, #128]	; 0x80
80100a66:	f022 0201 	bic.w	r2, r2, #1
80100a6a:	f8c3 2080 	str.w	r2, [r3, #128]	; 0x80
80100a6e:	2300      	movs	r3, #0
80100a70:	f2c0 2302 	movt	r3, #514	; 0x202
80100a74:	2200      	movs	r2, #0
80100a76:	f2c0 2202 	movt	r2, #514	; 0x202
80100a7a:	f8d2 2084 	ldr.w	r2, [r2, #132]	; 0x84
80100a7e:	f022 0201 	bic.w	r2, r2, #1
80100a82:	f8c3 2084 	str.w	r2, [r3, #132]	; 0x84
80100a86:	bf00      	nop
80100a88:	2300      	movs	r3, #0
80100a8a:	f2c0 2302 	movt	r3, #514	; 0x202
80100a8e:	f8d3 3084 	ldr.w	r3, [r3, #132]	; 0x84
80100a92:	f003 0301 	and.w	r3, r3, #1
80100a96:	2b00      	cmp	r3, #0
80100a98:	d0f6      	beq.n	80100a88 <uart1_init+0x36>
80100a9a:	2300      	movs	r3, #0
80100a9c:	f2c0 2302 	movt	r3, #514	; 0x202
80100aa0:	2200      	movs	r2, #0
80100aa2:	f8c3 2080 	str.w	r2, [r3, #128]	; 0x80
80100aa6:	2300      	movs	r3, #0
80100aa8:	f2c0 2302 	movt	r3, #514	; 0x202
80100aac:	2201      	movs	r2, #1
80100aae:	f8c3 2084 	str.w	r2, [r3, #132]	; 0x84
80100ab2:	2300      	movs	r3, #0
80100ab4:	f2c0 2302 	movt	r3, #514	; 0x202
80100ab8:	f44f 62e0 	mov.w	r2, #1792	; 0x700
80100abc:	f8c3 2088 	str.w	r2, [r3, #136]	; 0x88
80100ac0:	2300      	movs	r3, #0
80100ac2:	f2c0 2302 	movt	r3, #514	; 0x202
80100ac6:	f44f 4200 	mov.w	r2, #32768	; 0x8000
80100aca:	f8c3 208c 	str.w	r2, [r3, #140]	; 0x8c
80100ace:	2300      	movs	r3, #0
80100ad0:	f2c0 2302 	movt	r3, #514	; 0x202
80100ad4:	f640 0201 	movw	r2, #2049	; 0x801
80100ad8:	f8c3 2090 	str.w	r2, [r3, #144]	; 0x90
80100adc:	2300      	movs	r3, #0
80100ade:	f2c0 2302 	movt	r3, #514	; 0x202
80100ae2:	222b      	movs	r2, #43	; 0x2b
80100ae4:	f8c3 209c 	str.w	r2, [r3, #156]	; 0x9c
80100ae8:	2300      	movs	r3, #0
80100aea:	f2c0 2302 	movt	r3, #514	; 0x202
80100aee:	2200      	movs	r2, #0
80100af0:	f8c3 20a0 	str.w	r2, [r3, #160]	; 0xa0
80100af4:	2300      	movs	r3, #0
80100af6:	f2c0 2302 	movt	r3, #514	; 0x202
80100afa:	2200      	movs	r2, #0
80100afc:	f8c3 20b0 	str.w	r2, [r3, #176]	; 0xb0
80100b00:	2300      	movs	r3, #0
80100b02:	f2c0 2302 	movt	r3, #514	; 0x202
80100b06:	2260      	movs	r2, #96	; 0x60
80100b08:	f8c3 20b4 	str.w	r2, [r3, #180]	; 0xb4
80100b0c:	2300      	movs	r3, #0
80100b0e:	f2c0 2302 	movt	r3, #514	; 0x202
80100b12:	2200      	movs	r2, #0
80100b14:	f8c3 20b8 	str.w	r2, [r3, #184]	; 0xb8
80100b18:	2200      	movs	r2, #0
80100b1a:	f2c0 2202 	movt	r2, #514	; 0x202
80100b1e:	2300      	movs	r3, #0
80100b20:	f2c0 2302 	movt	r3, #514	; 0x202
80100b24:	f8d3 3084 	ldr.w	r3, [r3, #132]	; 0x84
80100b28:	f443 4380 	orr.w	r3, r3, #16384	; 0x4000
80100b2c:	f043 0366 	orr.w	r3, r3, #102	; 0x66
80100b30:	f8c2 3084 	str.w	r3, [r2, #132]	; 0x84
80100b34:	2300      	movs	r3, #0
80100b36:	f2c0 2302 	movt	r3, #514	; 0x202
80100b3a:	2200      	movs	r2, #0
80100b3c:	f2c0 2202 	movt	r2, #514	; 0x202
80100b40:	f8d2 2088 	ldr.w	r2, [r2, #136]	; 0x88
80100b44:	f042 0204 	orr.w	r2, r2, #4
80100b48:	f8c3 2088 	str.w	r2, [r3, #136]	; 0x88
80100b4c:	2300      	movs	r3, #0
80100b4e:	f2c0 2302 	movt	r3, #514	; 0x202
80100b52:	2200      	movs	r2, #0
80100b54:	f2c0 2202 	movt	r2, #514	; 0x202
80100b58:	f8d2 2080 	ldr.w	r2, [r2, #128]	; 0x80
80100b5c:	f422 4280 	bic.w	r2, r2, #16384	; 0x4000
80100b60:	f8c3 2080 	str.w	r2, [r3, #128]	; 0x80
80100b64:	f44f 4134 	mov.w	r1, #46080	; 0xb400
80100b68:	f2c0 41c4 	movt	r1, #1220	; 0x4c4
80100b6c:	f44f 30e1 	mov.w	r0, #115200	; 0x1c200
80100b70:	f7ff fe08 	bl	80100784 <UART_SetBaudRate>
80100b74:	2300      	movs	r3, #0
80100b76:	f2c0 2302 	movt	r3, #514	; 0x202
80100b7a:	2200      	movs	r2, #0
80100b7c:	f2c0 2202 	movt	r2, #514	; 0x202
80100b80:	f8d2 2080 	ldr.w	r2, [r2, #128]	; 0x80
80100b84:	f042 0201 	orr.w	r2, r2, #1
80100b88:	f8c3 2080 	str.w	r2, [r3, #128]	; 0x80
80100b8c:	bf00      	nop
80100b8e:	bd80      	pop	{r7, pc}

80100b90 <putchar>:
80100b90:	b480      	push	{r7}
80100b92:	b083      	sub	sp, #12
80100b94:	af00      	add	r7, sp, #0
80100b96:	6078      	str	r0, [r7, #4]
80100b98:	bf00      	nop
80100b9a:	2300      	movs	r3, #0
80100b9c:	f2c0 2302 	movt	r3, #514	; 0x202
80100ba0:	f8d3 3098 	ldr.w	r3, [r3, #152]	; 0x98
80100ba4:	f003 0308 	and.w	r3, r3, #8
80100ba8:	2b00      	cmp	r3, #0
80100baa:	d0f6      	beq.n	80100b9a <putchar+0xa>
80100bac:	2300      	movs	r3, #0
80100bae:	f2c0 2302 	movt	r3, #514	; 0x202
80100bb2:	687a      	ldr	r2, [r7, #4]
80100bb4:	b2d2      	uxtb	r2, r2
80100bb6:	641a      	str	r2, [r3, #64]	; 0x40
80100bb8:	bf00      	nop
80100bba:	370c      	adds	r7, #12
80100bbc:	46bd      	mov	sp, r7
80100bbe:	f85d 7b04 	ldr.w	r7, [sp], #4
80100bc2:	4770      	bx	lr

80100bc4 <getchar>:
80100bc4:	b480      	push	{r7}
80100bc6:	af00      	add	r7, sp, #0
80100bc8:	bf00      	nop
80100bca:	2300      	movs	r3, #0
80100bcc:	f2c0 2302 	movt	r3, #514	; 0x202
80100bd0:	f8d3 3098 	ldr.w	r3, [r3, #152]	; 0x98
80100bd4:	f003 0301 	and.w	r3, r3, #1
80100bd8:	2b00      	cmp	r3, #0
80100bda:	d0f6      	beq.n	80100bca <getchar+0x6>
80100bdc:	2300      	movs	r3, #0
80100bde:	f2c0 2302 	movt	r3, #514	; 0x202
80100be2:	681b      	ldr	r3, [r3, #0]
80100be4:	b2db      	uxtb	r3, r3
80100be6:	4618      	mov	r0, r3
80100be8:	46bd      	mov	sp, r7
80100bea:	f85d 7b04 	ldr.w	r7, [sp], #4
80100bee:	4770      	bx	lr

80100bf0 <puts>:
80100bf0:	b580      	push	{r7, lr}
80100bf2:	b082      	sub	sp, #8
80100bf4:	af00      	add	r7, sp, #0
80100bf6:	6078      	str	r0, [r7, #4]
80100bf8:	e007      	b.n	80100c0a <puts+0x1a>
80100bfa:	687b      	ldr	r3, [r7, #4]
80100bfc:	781b      	ldrb	r3, [r3, #0]
80100bfe:	4618      	mov	r0, r3
80100c00:	f7ff ffc6 	bl	80100b90 <putchar>
80100c04:	687b      	ldr	r3, [r7, #4]
80100c06:	3301      	adds	r3, #1
80100c08:	607b      	str	r3, [r7, #4]
80100c0a:	687b      	ldr	r3, [r7, #4]
80100c0c:	781b      	ldrb	r3, [r3, #0]
80100c0e:	2b00      	cmp	r3, #0
80100c10:	d1f3      	bne.n	80100bfa <puts+0xa>
80100c12:	bf00      	nop
80100c14:	3708      	adds	r7, #8
80100c16:	46bd      	mov	sp, r7
80100c18:	bd80      	pop	{r7, pc}
80100c1a:	bf00      	nop

80100c1c <raise>:
80100c1c:	b480      	push	{r7}
80100c1e:	b083      	sub	sp, #12
80100c20:	af00      	add	r7, sp, #0
80100c22:	6078      	str	r0, [r7, #4]
80100c24:	2300      	movs	r3, #0
80100c26:	4618      	mov	r0, r3
80100c28:	370c      	adds	r7, #12
80100c2a:	46bd      	mov	sp, r7
80100c2c:	f85d 7b04 	ldr.w	r7, [sp], #4
80100c30:	4770      	bx	lr
	...

80100c34 <outc>:
80100c34:	b580      	push	{r7, lr}
80100c36:	b082      	sub	sp, #8
80100c38:	af00      	add	r7, sp, #0
80100c3a:	6078      	str	r0, [r7, #4]
80100c3c:	6878      	ldr	r0, [r7, #4]
80100c3e:	f7ff ffa7 	bl	80100b90 <putchar>
80100c42:	2300      	movs	r3, #0
80100c44:	4618      	mov	r0, r3
80100c46:	3708      	adds	r7, #8
80100c48:	46bd      	mov	sp, r7
80100c4a:	bd80      	pop	{r7, pc}

80100c4c <outs>:
80100c4c:	b580      	push	{r7, lr}
80100c4e:	b082      	sub	sp, #8
80100c50:	af00      	add	r7, sp, #0
80100c52:	6078      	str	r0, [r7, #4]
80100c54:	e006      	b.n	80100c64 <outs+0x18>
80100c56:	687b      	ldr	r3, [r7, #4]
80100c58:	1c5a      	adds	r2, r3, #1
80100c5a:	607a      	str	r2, [r7, #4]
80100c5c:	781b      	ldrb	r3, [r3, #0]
80100c5e:	4618      	mov	r0, r3
80100c60:	f7ff ff96 	bl	80100b90 <putchar>
80100c64:	687b      	ldr	r3, [r7, #4]
80100c66:	781b      	ldrb	r3, [r3, #0]
80100c68:	2b00      	cmp	r3, #0
80100c6a:	d1f4      	bne.n	80100c56 <outs+0xa>
80100c6c:	2300      	movs	r3, #0
80100c6e:	4618      	mov	r0, r3
80100c70:	3708      	adds	r7, #8
80100c72:	46bd      	mov	sp, r7
80100c74:	bd80      	pop	{r7, pc}

80100c76 <out_num>:
80100c76:	b590      	push	{r4, r7, lr}
80100c78:	b099      	sub	sp, #100	; 0x64
80100c7a:	af00      	add	r7, sp, #0
80100c7c:	e9c7 0102 	strd	r0, r1, [r7, #8]
80100c80:	607a      	str	r2, [r7, #4]
80100c82:	70fb      	strb	r3, [r7, #3]
80100c84:	2300      	movs	r3, #0
80100c86:	65fb      	str	r3, [r7, #92]	; 0x5c
80100c88:	f107 0310 	add.w	r3, r7, #16
80100c8c:	3340      	adds	r3, #64	; 0x40
80100c8e:	65bb      	str	r3, [r7, #88]	; 0x58
80100c90:	2300      	movs	r3, #0
80100c92:	657b      	str	r3, [r7, #84]	; 0x54
80100c94:	2300      	movs	r3, #0
80100c96:	653b      	str	r3, [r7, #80]	; 0x50
80100c98:	6dbb      	ldr	r3, [r7, #88]	; 0x58
80100c9a:	3b01      	subs	r3, #1
80100c9c:	65bb      	str	r3, [r7, #88]	; 0x58
80100c9e:	6dbb      	ldr	r3, [r7, #88]	; 0x58
80100ca0:	2200      	movs	r2, #0
80100ca2:	701a      	strb	r2, [r3, #0]
80100ca4:	e9d7 3402 	ldrd	r3, r4, [r7, #8]
80100ca8:	2b00      	cmp	r3, #0
80100caa:	f174 0300 	sbcs.w	r3, r4, #0
80100cae:	da03      	bge.n	80100cb8 <out_num+0x42>
80100cb0:	68bb      	ldr	r3, [r7, #8]
80100cb2:	425b      	negs	r3, r3
80100cb4:	65fb      	str	r3, [r7, #92]	; 0x5c
80100cb6:	e001      	b.n	80100cbc <out_num+0x46>
80100cb8:	68bb      	ldr	r3, [r7, #8]
80100cba:	65fb      	str	r3, [r7, #92]	; 0x5c
80100cbc:	6dbb      	ldr	r3, [r7, #88]	; 0x58
80100cbe:	3b01      	subs	r3, #1
80100cc0:	65bb      	str	r3, [r7, #88]	; 0x58
80100cc2:	687a      	ldr	r2, [r7, #4]
80100cc4:	6dfb      	ldr	r3, [r7, #92]	; 0x5c
80100cc6:	4611      	mov	r1, r2
80100cc8:	4618      	mov	r0, r3
80100cca:	f000 fe33 	bl	80101934 <__aeabi_uidivmod>
80100cce:	460b      	mov	r3, r1
80100cd0:	461a      	mov	r2, r3
80100cd2:	f641 43bc 	movw	r3, #7356	; 0x1cbc
80100cd6:	f2c8 0310 	movt	r3, #32784	; 0x8010
80100cda:	5c9a      	ldrb	r2, [r3, r2]
80100cdc:	6dbb      	ldr	r3, [r7, #88]	; 0x58
80100cde:	701a      	strb	r2, [r3, #0]
80100ce0:	6d7b      	ldr	r3, [r7, #84]	; 0x54
80100ce2:	3301      	adds	r3, #1
80100ce4:	657b      	str	r3, [r7, #84]	; 0x54
80100ce6:	687b      	ldr	r3, [r7, #4]
80100ce8:	4619      	mov	r1, r3
80100cea:	6df8      	ldr	r0, [r7, #92]	; 0x5c
80100cec:	f000 fcf4 	bl	801016d8 <__aeabi_uidiv>
80100cf0:	4603      	mov	r3, r0
80100cf2:	65fb      	str	r3, [r7, #92]	; 0x5c
80100cf4:	6dfb      	ldr	r3, [r7, #92]	; 0x5c
80100cf6:	2b00      	cmp	r3, #0
80100cf8:	d1e0      	bne.n	80100cbc <out_num+0x46>
80100cfa:	6f3b      	ldr	r3, [r7, #112]	; 0x70
80100cfc:	2b00      	cmp	r3, #0
80100cfe:	d014      	beq.n	80100d2a <out_num+0xb4>
80100d00:	6d7a      	ldr	r2, [r7, #84]	; 0x54
80100d02:	6f3b      	ldr	r3, [r7, #112]	; 0x70
80100d04:	429a      	cmp	r2, r3
80100d06:	da10      	bge.n	80100d2a <out_num+0xb4>
80100d08:	6f3a      	ldr	r2, [r7, #112]	; 0x70
80100d0a:	6d7b      	ldr	r3, [r7, #84]	; 0x54
80100d0c:	1ad3      	subs	r3, r2, r3
80100d0e:	653b      	str	r3, [r7, #80]	; 0x50
80100d10:	e008      	b.n	80100d24 <out_num+0xae>
80100d12:	6dbb      	ldr	r3, [r7, #88]	; 0x58
80100d14:	3b01      	subs	r3, #1
80100d16:	65bb      	str	r3, [r7, #88]	; 0x58
80100d18:	6dbb      	ldr	r3, [r7, #88]	; 0x58
80100d1a:	78fa      	ldrb	r2, [r7, #3]
80100d1c:	701a      	strb	r2, [r3, #0]
80100d1e:	6d3b      	ldr	r3, [r7, #80]	; 0x50
80100d20:	3b01      	subs	r3, #1
80100d22:	653b      	str	r3, [r7, #80]	; 0x50
80100d24:	6d3b      	ldr	r3, [r7, #80]	; 0x50
80100d26:	2b00      	cmp	r3, #0
80100d28:	d1f3      	bne.n	80100d12 <out_num+0x9c>
80100d2a:	e9d7 3402 	ldrd	r3, r4, [r7, #8]
80100d2e:	2b00      	cmp	r3, #0
80100d30:	f174 0300 	sbcs.w	r3, r4, #0
80100d34:	da05      	bge.n	80100d42 <out_num+0xcc>
80100d36:	6dbb      	ldr	r3, [r7, #88]	; 0x58
80100d38:	3b01      	subs	r3, #1
80100d3a:	65bb      	str	r3, [r7, #88]	; 0x58
80100d3c:	6dbb      	ldr	r3, [r7, #88]	; 0x58
80100d3e:	222d      	movs	r2, #45	; 0x2d
80100d40:	701a      	strb	r2, [r3, #0]
80100d42:	6db8      	ldr	r0, [r7, #88]	; 0x58
80100d44:	f7ff ff82 	bl	80100c4c <outs>
80100d48:	4603      	mov	r3, r0
80100d4a:	4618      	mov	r0, r3
80100d4c:	3764      	adds	r7, #100	; 0x64
80100d4e:	46bd      	mov	sp, r7
80100d50:	bd90      	pop	{r4, r7, pc}

80100d52 <my_vprintf>:
80100d52:	b580      	push	{r7, lr}
80100d54:	b086      	sub	sp, #24
80100d56:	af02      	add	r7, sp, #8
80100d58:	6078      	str	r0, [r7, #4]
80100d5a:	6039      	str	r1, [r7, #0]
80100d5c:	2320      	movs	r3, #32
80100d5e:	72fb      	strb	r3, [r7, #11]
80100d60:	2300      	movs	r3, #0
80100d62:	60fb      	str	r3, [r7, #12]
80100d64:	e0c7      	b.n	80100ef6 <my_vprintf+0x1a4>
80100d66:	687b      	ldr	r3, [r7, #4]
80100d68:	781b      	ldrb	r3, [r3, #0]
80100d6a:	2b25      	cmp	r3, #37	; 0x25
80100d6c:	d005      	beq.n	80100d7a <my_vprintf+0x28>
80100d6e:	687b      	ldr	r3, [r7, #4]
80100d70:	781b      	ldrb	r3, [r3, #0]
80100d72:	4618      	mov	r0, r3
80100d74:	f7ff ff5e 	bl	80100c34 <outc>
80100d78:	e0ba      	b.n	80100ef0 <my_vprintf+0x19e>
80100d7a:	687b      	ldr	r3, [r7, #4]
80100d7c:	3301      	adds	r3, #1
80100d7e:	607b      	str	r3, [r7, #4]
80100d80:	687b      	ldr	r3, [r7, #4]
80100d82:	781b      	ldrb	r3, [r3, #0]
80100d84:	2b30      	cmp	r3, #48	; 0x30
80100d86:	d104      	bne.n	80100d92 <my_vprintf+0x40>
80100d88:	2330      	movs	r3, #48	; 0x30
80100d8a:	72fb      	strb	r3, [r7, #11]
80100d8c:	687b      	ldr	r3, [r7, #4]
80100d8e:	3301      	adds	r3, #1
80100d90:	607b      	str	r3, [r7, #4]
80100d92:	2320      	movs	r3, #32
80100d94:	72fb      	strb	r3, [r7, #11]
80100d96:	2300      	movs	r3, #0
80100d98:	60fb      	str	r3, [r7, #12]
80100d9a:	e00e      	b.n	80100dba <my_vprintf+0x68>
80100d9c:	68fa      	ldr	r2, [r7, #12]
80100d9e:	4613      	mov	r3, r2
80100da0:	009b      	lsls	r3, r3, #2
80100da2:	4413      	add	r3, r2
80100da4:	005b      	lsls	r3, r3, #1
80100da6:	60fb      	str	r3, [r7, #12]
80100da8:	687b      	ldr	r3, [r7, #4]
80100daa:	781b      	ldrb	r3, [r3, #0]
80100dac:	3b30      	subs	r3, #48	; 0x30
80100dae:	68fa      	ldr	r2, [r7, #12]
80100db0:	4413      	add	r3, r2
80100db2:	60fb      	str	r3, [r7, #12]
80100db4:	687b      	ldr	r3, [r7, #4]
80100db6:	3301      	adds	r3, #1
80100db8:	607b      	str	r3, [r7, #4]
80100dba:	687b      	ldr	r3, [r7, #4]
80100dbc:	781b      	ldrb	r3, [r3, #0]
80100dbe:	2b2f      	cmp	r3, #47	; 0x2f
80100dc0:	d903      	bls.n	80100dca <my_vprintf+0x78>
80100dc2:	687b      	ldr	r3, [r7, #4]
80100dc4:	781b      	ldrb	r3, [r3, #0]
80100dc6:	2b39      	cmp	r3, #57	; 0x39
80100dc8:	d9e8      	bls.n	80100d9c <my_vprintf+0x4a>
80100dca:	687b      	ldr	r3, [r7, #4]
80100dcc:	781b      	ldrb	r3, [r3, #0]
80100dce:	3b63      	subs	r3, #99	; 0x63
80100dd0:	2b15      	cmp	r3, #21
80100dd2:	f200 8087 	bhi.w	80100ee4 <my_vprintf+0x192>
80100dd6:	a201      	add	r2, pc, #4	; (adr r2, 80100ddc <my_vprintf+0x8a>)
80100dd8:	f852 f023 	ldr.w	pc, [r2, r3, lsl #2]
80100ddc:	80100ebd 			; <UNDEFINED> instruction: 0x80100ebd
80100de0:	80100e35 	andshi	r0, r0, r5, lsr lr
80100de4:	80100ee5 	andshi	r0, r0, r5, ror #29
80100de8:	80100ee5 	andshi	r0, r0, r5, ror #29
80100dec:	80100ee5 	andshi	r0, r0, r5, ror #29
80100df0:	80100ee5 	andshi	r0, r0, r5, ror #29
80100df4:	80100ee5 	andshi	r0, r0, r5, ror #29
80100df8:	80100ee5 	andshi	r0, r0, r5, ror #29
80100dfc:	80100ee5 	andshi	r0, r0, r5, ror #29
80100e00:	80100ee5 	andshi	r0, r0, r5, ror #29
80100e04:	80100ee5 	andshi	r0, r0, r5, ror #29
80100e08:	80100ee5 	andshi	r0, r0, r5, ror #29
80100e0c:	80100e57 	andshi	r0, r0, r7, asr lr
80100e10:	80100ee5 	andshi	r0, r0, r5, ror #29
80100e14:	80100ee5 	andshi	r0, r0, r5, ror #29
80100e18:	80100ee5 	andshi	r0, r0, r5, ror #29
80100e1c:	80100ed1 			; <UNDEFINED> instruction: 0x80100ed1
80100e20:	80100ee5 	andshi	r0, r0, r5, ror #29
80100e24:	80100e79 	andshi	r0, r0, r9, ror lr
80100e28:	80100ee5 	andshi	r0, r0, r5, ror #29
80100e2c:	80100ee5 	andshi	r0, r0, r5, ror #29
80100e30:	80100e9b 	mulshi	r0, fp, lr
80100e34:	683b      	ldr	r3, [r7, #0]
80100e36:	3304      	adds	r3, #4
80100e38:	603b      	str	r3, [r7, #0]
80100e3a:	683b      	ldr	r3, [r7, #0]
80100e3c:	3b04      	subs	r3, #4
80100e3e:	681b      	ldr	r3, [r3, #0]
80100e40:	4618      	mov	r0, r3
80100e42:	ea4f 71e0 	mov.w	r1, r0, asr #31
80100e46:	7afa      	ldrb	r2, [r7, #11]
80100e48:	68fb      	ldr	r3, [r7, #12]
80100e4a:	9300      	str	r3, [sp, #0]
80100e4c:	4613      	mov	r3, r2
80100e4e:	220a      	movs	r2, #10
80100e50:	f7ff ff11 	bl	80100c76 <out_num>
80100e54:	e04c      	b.n	80100ef0 <my_vprintf+0x19e>
80100e56:	683b      	ldr	r3, [r7, #0]
80100e58:	3304      	adds	r3, #4
80100e5a:	603b      	str	r3, [r7, #0]
80100e5c:	683b      	ldr	r3, [r7, #0]
80100e5e:	3b04      	subs	r3, #4
80100e60:	681b      	ldr	r3, [r3, #0]
80100e62:	4618      	mov	r0, r3
80100e64:	f04f 0100 	mov.w	r1, #0
80100e68:	7afa      	ldrb	r2, [r7, #11]
80100e6a:	68fb      	ldr	r3, [r7, #12]
80100e6c:	9300      	str	r3, [sp, #0]
80100e6e:	4613      	mov	r3, r2
80100e70:	2208      	movs	r2, #8
80100e72:	f7ff ff00 	bl	80100c76 <out_num>
80100e76:	e03b      	b.n	80100ef0 <my_vprintf+0x19e>
80100e78:	683b      	ldr	r3, [r7, #0]
80100e7a:	3304      	adds	r3, #4
80100e7c:	603b      	str	r3, [r7, #0]
80100e7e:	683b      	ldr	r3, [r7, #0]
80100e80:	3b04      	subs	r3, #4
80100e82:	681b      	ldr	r3, [r3, #0]
80100e84:	4618      	mov	r0, r3
80100e86:	f04f 0100 	mov.w	r1, #0
80100e8a:	7afa      	ldrb	r2, [r7, #11]
80100e8c:	68fb      	ldr	r3, [r7, #12]
80100e8e:	9300      	str	r3, [sp, #0]
80100e90:	4613      	mov	r3, r2
80100e92:	220a      	movs	r2, #10
80100e94:	f7ff feef 	bl	80100c76 <out_num>
80100e98:	e02a      	b.n	80100ef0 <my_vprintf+0x19e>
80100e9a:	683b      	ldr	r3, [r7, #0]
80100e9c:	3304      	adds	r3, #4
80100e9e:	603b      	str	r3, [r7, #0]
80100ea0:	683b      	ldr	r3, [r7, #0]
80100ea2:	3b04      	subs	r3, #4
80100ea4:	681b      	ldr	r3, [r3, #0]
80100ea6:	4618      	mov	r0, r3
80100ea8:	f04f 0100 	mov.w	r1, #0
80100eac:	7afa      	ldrb	r2, [r7, #11]
80100eae:	68fb      	ldr	r3, [r7, #12]
80100eb0:	9300      	str	r3, [sp, #0]
80100eb2:	4613      	mov	r3, r2
80100eb4:	2210      	movs	r2, #16
80100eb6:	f7ff fede 	bl	80100c76 <out_num>
80100eba:	e019      	b.n	80100ef0 <my_vprintf+0x19e>
80100ebc:	683b      	ldr	r3, [r7, #0]
80100ebe:	3304      	adds	r3, #4
80100ec0:	603b      	str	r3, [r7, #0]
80100ec2:	683b      	ldr	r3, [r7, #0]
80100ec4:	3b04      	subs	r3, #4
80100ec6:	681b      	ldr	r3, [r3, #0]
80100ec8:	4618      	mov	r0, r3
80100eca:	f7ff feb3 	bl	80100c34 <outc>
80100ece:	e00f      	b.n	80100ef0 <my_vprintf+0x19e>
80100ed0:	683b      	ldr	r3, [r7, #0]
80100ed2:	3304      	adds	r3, #4
80100ed4:	603b      	str	r3, [r7, #0]
80100ed6:	683b      	ldr	r3, [r7, #0]
80100ed8:	3b04      	subs	r3, #4
80100eda:	681b      	ldr	r3, [r3, #0]
80100edc:	4618      	mov	r0, r3
80100ede:	f7ff feb5 	bl	80100c4c <outs>
80100ee2:	e005      	b.n	80100ef0 <my_vprintf+0x19e>
80100ee4:	687b      	ldr	r3, [r7, #4]
80100ee6:	781b      	ldrb	r3, [r3, #0]
80100ee8:	4618      	mov	r0, r3
80100eea:	f7ff fea3 	bl	80100c34 <outc>
80100eee:	bf00      	nop
80100ef0:	687b      	ldr	r3, [r7, #4]
80100ef2:	3301      	adds	r3, #1
80100ef4:	607b      	str	r3, [r7, #4]
80100ef6:	687b      	ldr	r3, [r7, #4]
80100ef8:	781b      	ldrb	r3, [r3, #0]
80100efa:	2b00      	cmp	r3, #0
80100efc:	f47f af33 	bne.w	80100d66 <my_vprintf+0x14>
80100f00:	2300      	movs	r3, #0
80100f02:	4618      	mov	r0, r3
80100f04:	3710      	adds	r7, #16
80100f06:	46bd      	mov	sp, r7
80100f08:	bd80      	pop	{r7, pc}

80100f0a <printf>:
80100f0a:	b40f      	push	{r0, r1, r2, r3}
80100f0c:	b580      	push	{r7, lr}
80100f0e:	b082      	sub	sp, #8
80100f10:	af00      	add	r7, sp, #0
80100f12:	f107 0314 	add.w	r3, r7, #20
80100f16:	607b      	str	r3, [r7, #4]
80100f18:	693b      	ldr	r3, [r7, #16]
80100f1a:	6879      	ldr	r1, [r7, #4]
80100f1c:	4618      	mov	r0, r3
80100f1e:	f7ff ff18 	bl	80100d52 <my_vprintf>
80100f22:	2300      	movs	r3, #0
80100f24:	607b      	str	r3, [r7, #4]
80100f26:	2300      	movs	r3, #0
80100f28:	4618      	mov	r0, r3
80100f2a:	3708      	adds	r7, #8
80100f2c:	46bd      	mov	sp, r7
80100f2e:	e8bd 4080 	ldmia.w	sp!, {r7, lr}
80100f32:	b004      	add	sp, #16
80100f34:	4770      	bx	lr

80100f36 <my_printf_test>:
80100f36:	b580      	push	{r7, lr}
80100f38:	af00      	add	r7, sp, #0
80100f3a:	f641 300c 	movw	r0, #6924	; 0x1b0c
80100f3e:	f2c8 0010 	movt	r0, #32784	; 0x8010
80100f42:	f7ff ffe2 	bl	80100f0a <printf>
80100f46:	2261      	movs	r2, #97	; 0x61
80100f48:	2141      	movs	r1, #65	; 0x41
80100f4a:	f641 3038 	movw	r0, #6968	; 0x1b38
80100f4e:	f2c8 0010 	movt	r0, #32784	; 0x8010
80100f52:	f7ff ffda 	bl	80100f0a <printf>
80100f56:	f24e 2140 	movw	r1, #57920	; 0xe240
80100f5a:	f2c0 0101 	movt	r1, #1
80100f5e:	f641 3058 	movw	r0, #7000	; 0x1b58
80100f62:	f2c8 0010 	movt	r0, #32784	; 0x8010
80100f66:	f7ff ffd0 	bl	80100f0a <printf>
80100f6a:	f44f 51ee 	mov.w	r1, #7616	; 0x1dc0
80100f6e:	f6cf 71fe 	movt	r1, #65534	; 0xfffe
80100f72:	f641 3058 	movw	r0, #7000	; 0x1b58
80100f76:	f2c8 0010 	movt	r0, #32784	; 0x8010
80100f7a:	f7ff ffc6 	bl	80100f0a <printf>
80100f7e:	f245 51aa 	movw	r1, #21930	; 0x55aa
80100f82:	f2c5 51aa 	movt	r1, #21930	; 0x55aa
80100f86:	f641 3074 	movw	r0, #7028	; 0x1b74
80100f8a:	f2c8 0010 	movt	r0, #32784	; 0x8010
80100f8e:	f7ff ffbc 	bl	80100f0a <printf>
80100f92:	f641 3190 	movw	r1, #7056	; 0x1b90
80100f96:	f2c8 0110 	movt	r1, #32784	; 0x8010
80100f9a:	f641 30a0 	movw	r0, #7072	; 0x1ba0
80100f9e:	f2c8 0010 	movt	r0, #32784	; 0x8010
80100fa2:	f7ff ffb2 	bl	80100f0a <printf>
80100fa6:	f243 0139 	movw	r1, #12345	; 0x3039
80100faa:	f641 30bc 	movw	r0, #7100	; 0x1bbc
80100fae:	f2c8 0010 	movt	r0, #32784	; 0x8010
80100fb2:	f7ff ffaa 	bl	80100f0a <printf>
80100fb6:	f243 0139 	movw	r1, #12345	; 0x3039
80100fba:	f641 30c8 	movw	r0, #7112	; 0x1bc8
80100fbe:	f2c8 0010 	movt	r0, #32784	; 0x8010
80100fc2:	f7ff ffa2 	bl	80100f0a <printf>
80100fc6:	f242 3145 	movw	r1, #9029	; 0x2345
80100fca:	f2c0 0101 	movt	r1, #1
80100fce:	f641 30d4 	movw	r0, #7124	; 0x1bd4
80100fd2:	f2c8 0010 	movt	r0, #32784	; 0x8010
80100fd6:	f7ff ff98 	bl	80100f0a <printf>
80100fda:	f242 3145 	movw	r1, #9029	; 0x2345
80100fde:	f2c0 0101 	movt	r1, #1
80100fe2:	f641 30e4 	movw	r0, #7140	; 0x1be4
80100fe6:	f2c8 0010 	movt	r0, #32784	; 0x8010
80100fea:	f7ff ff8e 	bl	80100f0a <printf>
80100fee:	2101      	movs	r1, #1
80100ff0:	f641 30f0 	movw	r0, #7152	; 0x1bf0
80100ff4:	f2c8 0010 	movt	r0, #32784	; 0x8010
80100ff8:	f7ff ff87 	bl	80100f0a <printf>
80100ffc:	2101      	movs	r1, #1
80100ffe:	f641 4000 	movw	r0, #7168	; 0x1c00
80101002:	f2c8 0010 	movt	r0, #32784	; 0x8010
80101006:	f7ff ff80 	bl	80100f0a <printf>
8010100a:	2101      	movs	r1, #1
8010100c:	f641 400c 	movw	r0, #7180	; 0x1c0c
80101010:	f2c8 0010 	movt	r0, #32784	; 0x8010
80101014:	f7ff ff79 	bl	80100f0a <printf>
80101018:	2101      	movs	r1, #1
8010101a:	f641 4018 	movw	r0, #7192	; 0x1c18
8010101e:	f2c8 0010 	movt	r0, #32784	; 0x8010
80101022:	f7ff ff72 	bl	80100f0a <printf>
80101026:	2300      	movs	r3, #0
80101028:	4618      	mov	r0, r3
8010102a:	bd80      	pop	{r7, pc}

8010102c <get_gic_base>:
8010102c:	b480      	push	{r7}
8010102e:	b083      	sub	sp, #12
80101030:	af00      	add	r7, sp, #0
80101032:	ee9f 3f10 	mrc	15, 4, r3, cr15, cr0, {0}
80101036:	607b      	str	r3, [r7, #4]
80101038:	687b      	ldr	r3, [r7, #4]
8010103a:	4618      	mov	r0, r3
8010103c:	370c      	adds	r7, #12
8010103e:	46bd      	mov	sp, r7
80101040:	f85d 7b04 	ldr.w	r7, [sp], #4
80101044:	4770      	bx	lr

80101046 <gic_init>:
80101046:	b580      	push	{r7, lr}
80101048:	b084      	sub	sp, #16
8010104a:	af00      	add	r7, sp, #0
8010104c:	f7ff ffee 	bl	8010102c <get_gic_base>
80101050:	60b8      	str	r0, [r7, #8]
80101052:	68bb      	ldr	r3, [r7, #8]
80101054:	f503 5380 	add.w	r3, r3, #4096	; 0x1000
80101058:	3304      	adds	r3, #4
8010105a:	681b      	ldr	r3, [r3, #0]
8010105c:	f003 031f 	and.w	r3, r3, #31
80101060:	3301      	adds	r3, #1
80101062:	607b      	str	r3, [r7, #4]
80101064:	2300      	movs	r3, #0
80101066:	60fb      	str	r3, [r7, #12]
80101068:	e00a      	b.n	80101080 <gic_init+0x3a>
8010106a:	68bb      	ldr	r3, [r7, #8]
8010106c:	68fa      	ldr	r2, [r7, #12]
8010106e:	f502 628c 	add.w	r2, r2, #1120	; 0x460
80101072:	f04f 31ff 	mov.w	r1, #4294967295
80101076:	f843 1022 	str.w	r1, [r3, r2, lsl #2]
8010107a:	68fb      	ldr	r3, [r7, #12]
8010107c:	3301      	adds	r3, #1
8010107e:	60fb      	str	r3, [r7, #12]
80101080:	68fa      	ldr	r2, [r7, #12]
80101082:	687b      	ldr	r3, [r7, #4]
80101084:	429a      	cmp	r2, r3
80101086:	d3f0      	bcc.n	8010106a <gic_init+0x24>
80101088:	68bb      	ldr	r3, [r7, #8]
8010108a:	f503 5300 	add.w	r3, r3, #8192	; 0x2000
8010108e:	3304      	adds	r3, #4
80101090:	22f8      	movs	r2, #248	; 0xf8
80101092:	601a      	str	r2, [r3, #0]
80101094:	68bb      	ldr	r3, [r7, #8]
80101096:	f503 5300 	add.w	r3, r3, #8192	; 0x2000
8010109a:	3308      	adds	r3, #8
8010109c:	2202      	movs	r2, #2
8010109e:	601a      	str	r2, [r3, #0]
801010a0:	68bb      	ldr	r3, [r7, #8]
801010a2:	f503 5380 	add.w	r3, r3, #4096	; 0x1000
801010a6:	2201      	movs	r2, #1
801010a8:	601a      	str	r2, [r3, #0]
801010aa:	68bb      	ldr	r3, [r7, #8]
801010ac:	f503 5300 	add.w	r3, r3, #8192	; 0x2000
801010b0:	2201      	movs	r2, #1
801010b2:	601a      	str	r2, [r3, #0]
801010b4:	bf00      	nop
801010b6:	3710      	adds	r7, #16
801010b8:	46bd      	mov	sp, r7
801010ba:	bd80      	pop	{r7, pc}

801010bc <gic_enable_irq>:
801010bc:	b580      	push	{r7, lr}
801010be:	b084      	sub	sp, #16
801010c0:	af00      	add	r7, sp, #0
801010c2:	6078      	str	r0, [r7, #4]
801010c4:	f7ff ffb2 	bl	8010102c <get_gic_base>
801010c8:	60f8      	str	r0, [r7, #12]
801010ca:	687b      	ldr	r3, [r7, #4]
801010cc:	115a      	asrs	r2, r3, #5
801010ce:	687b      	ldr	r3, [r7, #4]
801010d0:	f003 031f 	and.w	r3, r3, #31
801010d4:	2101      	movs	r1, #1
801010d6:	4099      	lsls	r1, r3
801010d8:	68fb      	ldr	r3, [r7, #12]
801010da:	f502 6288 	add.w	r2, r2, #1088	; 0x440
801010de:	f843 1022 	str.w	r1, [r3, r2, lsl #2]
801010e2:	bf00      	nop
801010e4:	3710      	adds	r7, #16
801010e6:	46bd      	mov	sp, r7
801010e8:	bd80      	pop	{r7, pc}

801010ea <gic_disable_irq>:
801010ea:	b580      	push	{r7, lr}
801010ec:	b084      	sub	sp, #16
801010ee:	af00      	add	r7, sp, #0
801010f0:	6078      	str	r0, [r7, #4]
801010f2:	f7ff ff9b 	bl	8010102c <get_gic_base>
801010f6:	60f8      	str	r0, [r7, #12]
801010f8:	687b      	ldr	r3, [r7, #4]
801010fa:	115a      	asrs	r2, r3, #5
801010fc:	687b      	ldr	r3, [r7, #4]
801010fe:	f003 031f 	and.w	r3, r3, #31
80101102:	2101      	movs	r1, #1
80101104:	4099      	lsls	r1, r3
80101106:	68fb      	ldr	r3, [r7, #12]
80101108:	f502 628c 	add.w	r2, r2, #1120	; 0x460
8010110c:	f843 1022 	str.w	r1, [r3, r2, lsl #2]
80101110:	bf00      	nop
80101112:	3710      	adds	r7, #16
80101114:	46bd      	mov	sp, r7
80101116:	bd80      	pop	{r7, pc}

80101118 <default_irq_handler>:
80101118:	b580      	push	{r7, lr}
8010111a:	b082      	sub	sp, #8
8010111c:	af00      	add	r7, sp, #0
8010111e:	6078      	str	r0, [r7, #4]
80101120:	6039      	str	r1, [r7, #0]
80101122:	6879      	ldr	r1, [r7, #4]
80101124:	f641 4024 	movw	r0, #7204	; 0x1c24
80101128:	f2c8 0010 	movt	r0, #32784	; 0x8010
8010112c:	f7ff feed 	bl	80100f0a <printf>
80101130:	bf00      	nop
80101132:	3708      	adds	r7, #8
80101134:	46bd      	mov	sp, r7
80101136:	bd80      	pop	{r7, pc}

80101138 <request_irq>:
80101138:	b480      	push	{r7}
8010113a:	b085      	sub	sp, #20
8010113c:	af00      	add	r7, sp, #0
8010113e:	60f8      	str	r0, [r7, #12]
80101140:	60b9      	str	r1, [r7, #8]
80101142:	607a      	str	r2, [r7, #4]
80101144:	f641 43cc 	movw	r3, #7372	; 0x1ccc
80101148:	f2c8 0310 	movt	r3, #32784	; 0x8010
8010114c:	68fa      	ldr	r2, [r7, #12]
8010114e:	68b9      	ldr	r1, [r7, #8]
80101150:	f843 1032 	str.w	r1, [r3, r2, lsl #3]
80101154:	f641 42cc 	movw	r2, #7372	; 0x1ccc
80101158:	f2c8 0210 	movt	r2, #32784	; 0x8010
8010115c:	68fb      	ldr	r3, [r7, #12]
8010115e:	00db      	lsls	r3, r3, #3
80101160:	4413      	add	r3, r2
80101162:	687a      	ldr	r2, [r7, #4]
80101164:	605a      	str	r2, [r3, #4]
80101166:	bf00      	nop
80101168:	3714      	adds	r7, #20
8010116a:	46bd      	mov	sp, r7
8010116c:	f85d 7b04 	ldr.w	r7, [sp], #4
80101170:	4770      	bx	lr

80101172 <system_init_irq_table>:
80101172:	b580      	push	{r7, lr}
80101174:	b082      	sub	sp, #8
80101176:	af00      	add	r7, sp, #0
80101178:	2300      	movs	r3, #0
8010117a:	607b      	str	r3, [r7, #4]
8010117c:	e00b      	b.n	80101196 <system_init_irq_table+0x24>
8010117e:	687b      	ldr	r3, [r7, #4]
80101180:	2200      	movs	r2, #0
80101182:	f241 1119 	movw	r1, #4377	; 0x1119
80101186:	f2c8 0110 	movt	r1, #32784	; 0x8010
8010118a:	4618      	mov	r0, r3
8010118c:	f7ff ffd4 	bl	80101138 <request_irq>
80101190:	687b      	ldr	r3, [r7, #4]
80101192:	3301      	adds	r3, #1
80101194:	607b      	str	r3, [r7, #4]
80101196:	687b      	ldr	r3, [r7, #4]
80101198:	2b9e      	cmp	r3, #158	; 0x9e
8010119a:	d9f0      	bls.n	8010117e <system_init_irq_table+0xc>
8010119c:	bf00      	nop
8010119e:	3708      	adds	r7, #8
801011a0:	46bd      	mov	sp, r7
801011a2:	bd80      	pop	{r7, pc}

801011a4 <handle_irq_c>:
801011a4:	b590      	push	{r4, r7, lr}
801011a6:	b083      	sub	sp, #12
801011a8:	af00      	add	r7, sp, #0
801011aa:	f7ff ff3f 	bl	8010102c <get_gic_base>
801011ae:	6078      	str	r0, [r7, #4]
801011b0:	687b      	ldr	r3, [r7, #4]
801011b2:	f503 5300 	add.w	r3, r3, #8192	; 0x2000
801011b6:	330c      	adds	r3, #12
801011b8:	681b      	ldr	r3, [r3, #0]
801011ba:	603b      	str	r3, [r7, #0]
801011bc:	6839      	ldr	r1, [r7, #0]
801011be:	f641 4058 	movw	r0, #7256	; 0x1c58
801011c2:	f2c8 0010 	movt	r0, #32784	; 0x8010
801011c6:	f7ff fea0 	bl	80100f0a <printf>
801011ca:	f641 43cc 	movw	r3, #7372	; 0x1ccc
801011ce:	f2c8 0310 	movt	r3, #32784	; 0x8010
801011d2:	683a      	ldr	r2, [r7, #0]
801011d4:	f853 4032 	ldr.w	r4, [r3, r2, lsl #3]
801011d8:	6838      	ldr	r0, [r7, #0]
801011da:	f641 42cc 	movw	r2, #7372	; 0x1ccc
801011de:	f2c8 0210 	movt	r2, #32784	; 0x8010
801011e2:	683b      	ldr	r3, [r7, #0]
801011e4:	00db      	lsls	r3, r3, #3
801011e6:	4413      	add	r3, r2
801011e8:	685b      	ldr	r3, [r3, #4]
801011ea:	4619      	mov	r1, r3
801011ec:	47a0      	blx	r4
801011ee:	683a      	ldr	r2, [r7, #0]
801011f0:	687b      	ldr	r3, [r7, #4]
801011f2:	f503 5300 	add.w	r3, r3, #8192	; 0x2000
801011f6:	3310      	adds	r3, #16
801011f8:	601a      	str	r2, [r3, #0]
801011fa:	bf00      	nop
801011fc:	370c      	adds	r7, #12
801011fe:	46bd      	mov	sp, r7
80101200:	bd90      	pop	{r4, r7, pc}

80101202 <epit_init>:
80101202:	b480      	push	{r7}
80101204:	b083      	sub	sp, #12
80101206:	af00      	add	r7, sp, #0
80101208:	6078      	str	r0, [r7, #4]
8010120a:	6039      	str	r1, [r7, #0]
8010120c:	687b      	ldr	r3, [r7, #4]
8010120e:	2200      	movs	r2, #0
80101210:	601a      	str	r2, [r3, #0]
80101212:	687b      	ldr	r3, [r7, #4]
80101214:	681b      	ldr	r3, [r3, #0]
80101216:	f443 3280 	orr.w	r2, r3, #65536	; 0x10000
8010121a:	687b      	ldr	r3, [r7, #4]
8010121c:	601a      	str	r2, [r3, #0]
8010121e:	bf00      	nop
80101220:	687b      	ldr	r3, [r7, #4]
80101222:	681b      	ldr	r3, [r3, #0]
80101224:	f403 3380 	and.w	r3, r3, #65536	; 0x10000
80101228:	2b00      	cmp	r3, #0
8010122a:	d1f9      	bne.n	80101220 <epit_init+0x1e>
8010122c:	687b      	ldr	r3, [r7, #4]
8010122e:	681b      	ldr	r3, [r3, #0]
80101230:	f443 1320 	orr.w	r3, r3, #2621440	; 0x280000
80101234:	f043 030a 	orr.w	r3, r3, #10
80101238:	687a      	ldr	r2, [r7, #4]
8010123a:	6013      	str	r3, [r2, #0]
8010123c:	687b      	ldr	r3, [r7, #4]
8010123e:	681a      	ldr	r2, [r3, #0]
80101240:	230f      	movs	r3, #15
80101242:	f6cf 43ff 	movt	r3, #64767	; 0xfcff
80101246:	4013      	ands	r3, r2
80101248:	687a      	ldr	r2, [r7, #4]
8010124a:	6013      	str	r3, [r2, #0]
8010124c:	687b      	ldr	r3, [r7, #4]
8010124e:	681b      	ldr	r3, [r3, #0]
80101250:	f043 7280 	orr.w	r2, r3, #16777216	; 0x1000000
80101254:	687b      	ldr	r3, [r7, #4]
80101256:	601a      	str	r2, [r3, #0]
80101258:	687b      	ldr	r3, [r7, #4]
8010125a:	2200      	movs	r2, #0
8010125c:	60da      	str	r2, [r3, #12]
8010125e:	683a      	ldr	r2, [r7, #0]
80101260:	4613      	mov	r3, r2
80101262:	015b      	lsls	r3, r3, #5
80101264:	4413      	add	r3, r2
80101266:	005b      	lsls	r3, r3, #1
80101268:	461a      	mov	r2, r3
8010126a:	687b      	ldr	r3, [r7, #4]
8010126c:	609a      	str	r2, [r3, #8]
8010126e:	bf00      	nop
80101270:	370c      	adds	r7, #12
80101272:	46bd      	mov	sp, r7
80101274:	f85d 7b04 	ldr.w	r7, [sp], #4
80101278:	4770      	bx	lr

8010127a <epit_enable_interrupt>:
8010127a:	b480      	push	{r7}
8010127c:	b083      	sub	sp, #12
8010127e:	af00      	add	r7, sp, #0
80101280:	6078      	str	r0, [r7, #4]
80101282:	6039      	str	r1, [r7, #0]
80101284:	683b      	ldr	r3, [r7, #0]
80101286:	2b00      	cmp	r3, #0
80101288:	d006      	beq.n	80101298 <epit_enable_interrupt+0x1e>
8010128a:	687b      	ldr	r3, [r7, #4]
8010128c:	681b      	ldr	r3, [r3, #0]
8010128e:	f043 0204 	orr.w	r2, r3, #4
80101292:	687b      	ldr	r3, [r7, #4]
80101294:	601a      	str	r2, [r3, #0]
80101296:	e005      	b.n	801012a4 <epit_enable_interrupt+0x2a>
80101298:	687b      	ldr	r3, [r7, #4]
8010129a:	681b      	ldr	r3, [r3, #0]
8010129c:	f023 0204 	bic.w	r2, r3, #4
801012a0:	687b      	ldr	r3, [r7, #4]
801012a2:	601a      	str	r2, [r3, #0]
801012a4:	bf00      	nop
801012a6:	370c      	adds	r7, #12
801012a8:	46bd      	mov	sp, r7
801012aa:	f85d 7b04 	ldr.w	r7, [sp], #4
801012ae:	4770      	bx	lr

801012b0 <epit_run>:
801012b0:	b480      	push	{r7}
801012b2:	b083      	sub	sp, #12
801012b4:	af00      	add	r7, sp, #0
801012b6:	6078      	str	r0, [r7, #4]
801012b8:	6039      	str	r1, [r7, #0]
801012ba:	683b      	ldr	r3, [r7, #0]
801012bc:	2b00      	cmp	r3, #0
801012be:	d006      	beq.n	801012ce <epit_run+0x1e>
801012c0:	687b      	ldr	r3, [r7, #4]
801012c2:	681b      	ldr	r3, [r3, #0]
801012c4:	f043 0201 	orr.w	r2, r3, #1
801012c8:	687b      	ldr	r3, [r7, #4]
801012ca:	601a      	str	r2, [r3, #0]
801012cc:	e005      	b.n	801012da <epit_run+0x2a>
801012ce:	687b      	ldr	r3, [r7, #4]
801012d0:	681b      	ldr	r3, [r3, #0]
801012d2:	f023 0201 	bic.w	r2, r3, #1
801012d6:	687b      	ldr	r3, [r7, #4]
801012d8:	601a      	str	r2, [r3, #0]
801012da:	bf00      	nop
801012dc:	370c      	adds	r7, #12
801012de:	46bd      	mov	sp, r7
801012e0:	f85d 7b04 	ldr.w	r7, [sp], #4
801012e4:	4770      	bx	lr

801012e6 <epit_poll_init>:
801012e6:	b480      	push	{r7}
801012e8:	b083      	sub	sp, #12
801012ea:	af00      	add	r7, sp, #0
801012ec:	6078      	str	r0, [r7, #4]
801012ee:	687b      	ldr	r3, [r7, #4]
801012f0:	2200      	movs	r2, #0
801012f2:	601a      	str	r2, [r3, #0]
801012f4:	687b      	ldr	r3, [r7, #4]
801012f6:	681b      	ldr	r3, [r3, #0]
801012f8:	f443 3280 	orr.w	r2, r3, #65536	; 0x10000
801012fc:	687b      	ldr	r3, [r7, #4]
801012fe:	601a      	str	r2, [r3, #0]
80101300:	bf00      	nop
80101302:	687b      	ldr	r3, [r7, #4]
80101304:	681b      	ldr	r3, [r3, #0]
80101306:	f403 3380 	and.w	r3, r3, #65536	; 0x10000
8010130a:	2b00      	cmp	r3, #0
8010130c:	d1f9      	bne.n	80101302 <epit_poll_init+0x1c>
8010130e:	687b      	ldr	r3, [r7, #4]
80101310:	681b      	ldr	r3, [r3, #0]
80101312:	f443 1328 	orr.w	r3, r3, #2752512	; 0x2a0000
80101316:	f043 030a 	orr.w	r3, r3, #10
8010131a:	687a      	ldr	r2, [r7, #4]
8010131c:	6013      	str	r3, [r2, #0]
8010131e:	687b      	ldr	r3, [r7, #4]
80101320:	681a      	ldr	r2, [r3, #0]
80101322:	230f      	movs	r3, #15
80101324:	f6cf 43ff 	movt	r3, #64767	; 0xfcff
80101328:	4013      	ands	r3, r2
8010132a:	687a      	ldr	r2, [r7, #4]
8010132c:	6013      	str	r3, [r2, #0]
8010132e:	687b      	ldr	r3, [r7, #4]
80101330:	681b      	ldr	r3, [r3, #0]
80101332:	f043 7280 	orr.w	r2, r3, #16777216	; 0x1000000
80101336:	687b      	ldr	r3, [r7, #4]
80101338:	601a      	str	r2, [r3, #0]
8010133a:	687b      	ldr	r3, [r7, #4]
8010133c:	2200      	movs	r2, #0
8010133e:	60da      	str	r2, [r3, #12]
80101340:	687b      	ldr	r3, [r7, #4]
80101342:	681b      	ldr	r3, [r3, #0]
80101344:	f043 0204 	orr.w	r2, r3, #4
80101348:	687b      	ldr	r3, [r7, #4]
8010134a:	601a      	str	r2, [r3, #0]
8010134c:	bf00      	nop
8010134e:	370c      	adds	r7, #12
80101350:	46bd      	mov	sp, r7
80101352:	f85d 7b04 	ldr.w	r7, [sp], #4
80101356:	4770      	bx	lr

80101358 <epit_poll_restart>:
80101358:	b580      	push	{r7, lr}
8010135a:	b082      	sub	sp, #8
8010135c:	af00      	add	r7, sp, #0
8010135e:	6078      	str	r0, [r7, #4]
80101360:	6039      	str	r1, [r7, #0]
80101362:	2100      	movs	r1, #0
80101364:	6878      	ldr	r0, [r7, #4]
80101366:	f7ff ffa3 	bl	801012b0 <epit_run>
8010136a:	683a      	ldr	r2, [r7, #0]
8010136c:	4613      	mov	r3, r2
8010136e:	015b      	lsls	r3, r3, #5
80101370:	4413      	add	r3, r2
80101372:	005b      	lsls	r3, r3, #1
80101374:	461a      	mov	r2, r3
80101376:	687b      	ldr	r3, [r7, #4]
80101378:	609a      	str	r2, [r3, #8]
8010137a:	2300      	movs	r3, #0
8010137c:	f2c0 230d 	movt	r3, #525	; 0x20d
80101380:	2200      	movs	r2, #0
80101382:	f2c0 220d 	movt	r2, #525	; 0x20d
80101386:	6852      	ldr	r2, [r2, #4]
80101388:	f042 0201 	orr.w	r2, r2, #1
8010138c:	605a      	str	r2, [r3, #4]
8010138e:	2101      	movs	r1, #1
80101390:	6878      	ldr	r0, [r7, #4]
80101392:	f7ff ff8d 	bl	801012b0 <epit_run>
80101396:	bf00      	nop
80101398:	2300      	movs	r3, #0
8010139a:	f2c0 230d 	movt	r3, #525	; 0x20d
8010139e:	685b      	ldr	r3, [r3, #4]
801013a0:	f003 0301 	and.w	r3, r3, #1
801013a4:	2b00      	cmp	r3, #0
801013a6:	d0f7      	beq.n	80101398 <epit_poll_restart+0x40>
801013a8:	2300      	movs	r3, #0
801013aa:	f2c0 230d 	movt	r3, #525	; 0x20d
801013ae:	2200      	movs	r2, #0
801013b0:	f2c0 220d 	movt	r2, #525	; 0x20d
801013b4:	6852      	ldr	r2, [r2, #4]
801013b6:	f042 0201 	orr.w	r2, r2, #1
801013ba:	605a      	str	r2, [r3, #4]
801013bc:	bf00      	nop
801013be:	3708      	adds	r7, #8
801013c0:	46bd      	mov	sp, r7
801013c2:	bd80      	pop	{r7, pc}

801013c4 <gpt_init>:
801013c4:	b480      	push	{r7}
801013c6:	b085      	sub	sp, #20
801013c8:	af00      	add	r7, sp, #0
801013ca:	60f8      	str	r0, [r7, #12]
801013cc:	60b9      	str	r1, [r7, #8]
801013ce:	607a      	str	r2, [r7, #4]
801013d0:	68fb      	ldr	r3, [r7, #12]
801013d2:	681b      	ldr	r3, [r3, #0]
801013d4:	f443 4200 	orr.w	r2, r3, #32768	; 0x8000
801013d8:	68fb      	ldr	r3, [r7, #12]
801013da:	601a      	str	r2, [r3, #0]
801013dc:	bf00      	nop
801013de:	68fb      	ldr	r3, [r7, #12]
801013e0:	681b      	ldr	r3, [r3, #0]
801013e2:	0bdb      	lsrs	r3, r3, #15
801013e4:	f003 0301 	and.w	r3, r3, #1
801013e8:	2b00      	cmp	r3, #0
801013ea:	d1f8      	bne.n	801013de <gpt_init+0x1a>
801013ec:	68fb      	ldr	r3, [r7, #12]
801013ee:	226a      	movs	r2, #106	; 0x6a
801013f0:	601a      	str	r2, [r3, #0]
801013f2:	68fb      	ldr	r3, [r7, #12]
801013f4:	2200      	movs	r2, #0
801013f6:	605a      	str	r2, [r3, #4]
801013f8:	687a      	ldr	r2, [r7, #4]
801013fa:	4613      	mov	r3, r2
801013fc:	015b      	lsls	r3, r3, #5
801013fe:	4413      	add	r3, r2
80101400:	005b      	lsls	r3, r3, #1
80101402:	3b01      	subs	r3, #1
80101404:	4619      	mov	r1, r3
80101406:	68fb      	ldr	r3, [r7, #12]
80101408:	68ba      	ldr	r2, [r7, #8]
8010140a:	3204      	adds	r2, #4
8010140c:	f843 1022 	str.w	r1, [r3, r2, lsl #2]
80101410:	bf00      	nop
80101412:	3714      	adds	r7, #20
80101414:	46bd      	mov	sp, r7
80101416:	f85d 7b04 	ldr.w	r7, [sp], #4
8010141a:	4770      	bx	lr

8010141c <gpt_run>:
8010141c:	b480      	push	{r7}
8010141e:	b083      	sub	sp, #12
80101420:	af00      	add	r7, sp, #0
80101422:	6078      	str	r0, [r7, #4]
80101424:	6039      	str	r1, [r7, #0]
80101426:	683b      	ldr	r3, [r7, #0]
80101428:	2b00      	cmp	r3, #0
8010142a:	d006      	beq.n	8010143a <gpt_run+0x1e>
8010142c:	687b      	ldr	r3, [r7, #4]
8010142e:	681b      	ldr	r3, [r3, #0]
80101430:	f043 0201 	orr.w	r2, r3, #1
80101434:	687b      	ldr	r3, [r7, #4]
80101436:	601a      	str	r2, [r3, #0]
80101438:	e005      	b.n	80101446 <gpt_run+0x2a>
8010143a:	687b      	ldr	r3, [r7, #4]
8010143c:	681b      	ldr	r3, [r3, #0]
8010143e:	f023 0201 	bic.w	r2, r3, #1
80101442:	687b      	ldr	r3, [r7, #4]
80101444:	601a      	str	r2, [r3, #0]
80101446:	bf00      	nop
80101448:	370c      	adds	r7, #12
8010144a:	46bd      	mov	sp, r7
8010144c:	f85d 7b04 	ldr.w	r7, [sp], #4
80101450:	4770      	bx	lr

80101452 <gpt_enable_interrupt>:
80101452:	b480      	push	{r7}
80101454:	b085      	sub	sp, #20
80101456:	af00      	add	r7, sp, #0
80101458:	60f8      	str	r0, [r7, #12]
8010145a:	60b9      	str	r1, [r7, #8]
8010145c:	607a      	str	r2, [r7, #4]
8010145e:	687b      	ldr	r3, [r7, #4]
80101460:	2b00      	cmp	r3, #0
80101462:	d009      	beq.n	80101478 <gpt_enable_interrupt+0x26>
80101464:	68fb      	ldr	r3, [r7, #12]
80101466:	68db      	ldr	r3, [r3, #12]
80101468:	2101      	movs	r1, #1
8010146a:	68ba      	ldr	r2, [r7, #8]
8010146c:	fa01 f202 	lsl.w	r2, r1, r2
80101470:	431a      	orrs	r2, r3
80101472:	68fb      	ldr	r3, [r7, #12]
80101474:	60da      	str	r2, [r3, #12]
80101476:	e009      	b.n	8010148c <gpt_enable_interrupt+0x3a>
80101478:	68fb      	ldr	r3, [r7, #12]
8010147a:	68db      	ldr	r3, [r3, #12]
8010147c:	2101      	movs	r1, #1
8010147e:	68ba      	ldr	r2, [r7, #8]
80101480:	fa01 f202 	lsl.w	r2, r1, r2
80101484:	43d2      	mvns	r2, r2
80101486:	401a      	ands	r2, r3
80101488:	68fb      	ldr	r3, [r7, #12]
8010148a:	60da      	str	r2, [r3, #12]
8010148c:	bf00      	nop
8010148e:	3714      	adds	r7, #20
80101490:	46bd      	mov	sp, r7
80101492:	f85d 7b04 	ldr.w	r7, [sp], #4
80101496:	4770      	bx	lr

80101498 <gpt_clear_int_status>:
80101498:	b480      	push	{r7}
8010149a:	b083      	sub	sp, #12
8010149c:	af00      	add	r7, sp, #0
8010149e:	6078      	str	r0, [r7, #4]
801014a0:	6039      	str	r1, [r7, #0]
801014a2:	687b      	ldr	r3, [r7, #4]
801014a4:	689b      	ldr	r3, [r3, #8]
801014a6:	2101      	movs	r1, #1
801014a8:	683a      	ldr	r2, [r7, #0]
801014aa:	fa01 f202 	lsl.w	r2, r1, r2
801014ae:	431a      	orrs	r2, r3
801014b0:	687b      	ldr	r3, [r7, #4]
801014b2:	609a      	str	r2, [r3, #8]
801014b4:	bf00      	nop
801014b6:	370c      	adds	r7, #12
801014b8:	46bd      	mov	sp, r7
801014ba:	f85d 7b04 	ldr.w	r7, [sp], #4
801014be:	4770      	bx	lr

801014c0 <HalClockFreqRead>:
801014c0:	b480      	push	{r7}
801014c2:	b083      	sub	sp, #12
801014c4:	af00      	add	r7, sp, #0
801014c6:	ee1e 3f10 	mrc	15, 0, r3, cr14, cr0, {0}
801014ca:	607b      	str	r3, [r7, #4]
801014cc:	687b      	ldr	r3, [r7, #4]
801014ce:	4618      	mov	r0, r3
801014d0:	370c      	adds	r7, #12
801014d2:	46bd      	mov	sp, r7
801014d4:	f85d 7b04 	ldr.w	r7, [sp], #4
801014d8:	4770      	bx	lr

801014da <HalClockFreqWrite>:
801014da:	b480      	push	{r7}
801014dc:	b083      	sub	sp, #12
801014de:	af00      	add	r7, sp, #0
801014e0:	6078      	str	r0, [r7, #4]
801014e2:	687b      	ldr	r3, [r7, #4]
801014e4:	ee0e 3f10 	mcr	15, 0, r3, cr14, cr0, {0}
801014e8:	f3bf 8f6f 	isb	sy
801014ec:	bf00      	nop
801014ee:	370c      	adds	r7, #12
801014f0:	46bd      	mov	sp, r7
801014f2:	f85d 7b04 	ldr.w	r7, [sp], #4
801014f6:	4770      	bx	lr

801014f8 <TimerCtlWrite>:
801014f8:	b480      	push	{r7}
801014fa:	b083      	sub	sp, #12
801014fc:	af00      	add	r7, sp, #0
801014fe:	6078      	str	r0, [r7, #4]
80101500:	687b      	ldr	r3, [r7, #4]
80101502:	ee0e 3f32 	mcr	15, 0, r3, cr14, cr2, {1}
80101506:	f3bf 8f6f 	isb	sy
8010150a:	bf00      	nop
8010150c:	370c      	adds	r7, #12
8010150e:	46bd      	mov	sp, r7
80101510:	f85d 7b04 	ldr.w	r7, [sp], #4
80101514:	4770      	bx	lr

80101516 <TimerCvalRead>:
80101516:	b490      	push	{r4, r7}
80101518:	b082      	sub	sp, #8
8010151a:	af00      	add	r7, sp, #0
8010151c:	ec54 3f2e 	mrrc	15, 2, r3, r4, cr14
80101520:	e9c7 3400 	strd	r3, r4, [r7]
80101524:	e9d7 3400 	ldrd	r3, r4, [r7]
80101528:	4618      	mov	r0, r3
8010152a:	4621      	mov	r1, r4
8010152c:	3708      	adds	r7, #8
8010152e:	46bd      	mov	sp, r7
80101530:	bc90      	pop	{r4, r7}
80101532:	4770      	bx	lr

80101534 <TimerTvalRead>:
80101534:	b480      	push	{r7}
80101536:	b083      	sub	sp, #12
80101538:	af00      	add	r7, sp, #0
8010153a:	ee1e 3f12 	mrc	15, 0, r3, cr14, cr2, {0}
8010153e:	607b      	str	r3, [r7, #4]
80101540:	687b      	ldr	r3, [r7, #4]
80101542:	4618      	mov	r0, r3
80101544:	370c      	adds	r7, #12
80101546:	46bd      	mov	sp, r7
80101548:	f85d 7b04 	ldr.w	r7, [sp], #4
8010154c:	4770      	bx	lr

8010154e <TimerCvalWrite>:
8010154e:	b490      	push	{r4, r7}
80101550:	b082      	sub	sp, #8
80101552:	af00      	add	r7, sp, #0
80101554:	e9c7 0100 	strd	r0, r1, [r7]
80101558:	e9d7 3400 	ldrd	r3, r4, [r7]
8010155c:	ec44 3f2e 	mcrr	15, 2, r3, r4, cr14
80101560:	f3bf 8f6f 	isb	sy
80101564:	bf00      	nop
80101566:	3708      	adds	r7, #8
80101568:	46bd      	mov	sp, r7
8010156a:	bc90      	pop	{r4, r7}
8010156c:	4770      	bx	lr

8010156e <TimerTvalWrite>:
8010156e:	b480      	push	{r7}
80101570:	b083      	sub	sp, #12
80101572:	af00      	add	r7, sp, #0
80101574:	6078      	str	r0, [r7, #4]
80101576:	687b      	ldr	r3, [r7, #4]
80101578:	ee0e 3f12 	mcr	15, 0, r3, cr14, cr2, {0}
8010157c:	f3bf 8f6f 	isb	sy
80101580:	bf00      	nop
80101582:	370c      	adds	r7, #12
80101584:	46bd      	mov	sp, r7
80101586:	f85d 7b04 	ldr.w	r7, [sp], #4
8010158a:	4770      	bx	lr

8010158c <HalClockGetCycles>:
8010158c:	b490      	push	{r4, r7}
8010158e:	b084      	sub	sp, #16
80101590:	af00      	add	r7, sp, #0
80101592:	ec54 3f0e 	mrrc	15, 0, r3, r4, cr14
80101596:	e9c7 3402 	strd	r3, r4, [r7, #8]
8010159a:	e9d7 3402 	ldrd	r3, r4, [r7, #8]
8010159e:	e9c7 3400 	strd	r3, r4, [r7]
801015a2:	e9d7 3400 	ldrd	r3, r4, [r7]
801015a6:	4618      	mov	r0, r3
801015a8:	4621      	mov	r1, r4
801015aa:	3710      	adds	r7, #16
801015ac:	46bd      	mov	sp, r7
801015ae:	bc90      	pop	{r4, r7}
801015b0:	4770      	bx	lr

801015b2 <rt_hw_timer_isr>:
801015b2:	b590      	push	{r4, r7, lr}
801015b4:	b083      	sub	sp, #12
801015b6:	af00      	add	r7, sp, #0
801015b8:	6078      	str	r0, [r7, #4]
801015ba:	6039      	str	r1, [r7, #0]
801015bc:	f242 13cc 	movw	r3, #8652	; 0x21cc
801015c0:	f2c8 0310 	movt	r3, #32784	; 0x8010
801015c4:	681a      	ldr	r2, [r3, #0]
801015c6:	1c51      	adds	r1, r2, #1
801015c8:	f242 13cc 	movw	r3, #8652	; 0x21cc
801015cc:	f2c8 0310 	movt	r3, #32784	; 0x8010
801015d0:	6019      	str	r1, [r3, #0]
801015d2:	4611      	mov	r1, r2
801015d4:	f641 4070 	movw	r0, #7280	; 0x1c70
801015d8:	f2c8 0010 	movt	r0, #32784	; 0x8010
801015dc:	f7ff fc95 	bl	80100f0a <printf>
801015e0:	2000      	movs	r0, #0
801015e2:	f7ff ff89 	bl	801014f8 <TimerCtlWrite>
801015e6:	f7ff ff96 	bl	80101516 <TimerCvalRead>
801015ea:	460a      	mov	r2, r1
801015ec:	4601      	mov	r1, r0
801015ee:	f44f 5390 	mov.w	r3, #4608	; 0x1200
801015f2:	f2c0 037a 	movt	r3, #122	; 0x7a
801015f6:	f04f 0400 	mov.w	r4, #0
801015fa:	185b      	adds	r3, r3, r1
801015fc:	eb44 0402 	adc.w	r4, r4, r2
80101600:	4618      	mov	r0, r3
80101602:	4621      	mov	r1, r4
80101604:	f7ff ffa3 	bl	8010154e <TimerCvalWrite>
80101608:	2001      	movs	r0, #1
8010160a:	f7ff ff75 	bl	801014f8 <TimerCtlWrite>
8010160e:	bf00      	nop
80101610:	370c      	adds	r7, #12
80101612:	46bd      	mov	sp, r7
80101614:	bd90      	pop	{r4, r7, pc}

80101616 <rt_hw_clock_start>:
80101616:	b580      	push	{r7, lr}
80101618:	af00      	add	r7, sp, #0
8010161a:	201d      	movs	r0, #29
8010161c:	f7ff fd4e 	bl	801010bc <gic_enable_irq>
80101620:	2000      	movs	r0, #0
80101622:	f7ff ff69 	bl	801014f8 <TimerCtlWrite>
80101626:	f44f 5090 	mov.w	r0, #4608	; 0x1200
8010162a:	f2c0 007a 	movt	r0, #122	; 0x7a
8010162e:	f7ff ff9e 	bl	8010156e <TimerTvalWrite>
80101632:	2001      	movs	r0, #1
80101634:	f7ff ff60 	bl	801014f8 <TimerCtlWrite>
80101638:	bf00      	nop
8010163a:	bd80      	pop	{r7, pc}

8010163c <imx6ull_system_countter_init>:
8010163c:	b480      	push	{r7}
8010163e:	b085      	sub	sp, #20
80101640:	af00      	add	r7, sp, #0
80101642:	f44f 4340 	mov.w	r3, #49152	; 0xc000
80101646:	f2c0 231d 	movt	r3, #541	; 0x21d
8010164a:	60fb      	str	r3, [r7, #12]
8010164c:	f44f 5390 	mov.w	r3, #4608	; 0x1200
80101650:	f2c0 037a 	movt	r3, #122	; 0x7a
80101654:	60bb      	str	r3, [r7, #8]
80101656:	68fb      	ldr	r3, [r7, #12]
80101658:	68ba      	ldr	r2, [r7, #8]
8010165a:	621a      	str	r2, [r3, #32]
8010165c:	68fb      	ldr	r3, [r7, #12]
8010165e:	681b      	ldr	r3, [r3, #0]
80101660:	607b      	str	r3, [r7, #4]
80101662:	687b      	ldr	r3, [r7, #4]
80101664:	f423 7340 	bic.w	r3, r3, #768	; 0x300
80101668:	607b      	str	r3, [r7, #4]
8010166a:	687b      	ldr	r3, [r7, #4]
8010166c:	f443 7381 	orr.w	r3, r3, #258	; 0x102
80101670:	f043 0301 	orr.w	r3, r3, #1
80101674:	607b      	str	r3, [r7, #4]
80101676:	68fb      	ldr	r3, [r7, #12]
80101678:	687a      	ldr	r2, [r7, #4]
8010167a:	601a      	str	r2, [r3, #0]
8010167c:	2300      	movs	r3, #0
8010167e:	4618      	mov	r0, r3
80101680:	3714      	adds	r7, #20
80101682:	46bd      	mov	sp, r7
80101684:	f85d 7b04 	ldr.w	r7, [sp], #4
80101688:	4770      	bx	lr

8010168a <system_counter_init>:
8010168a:	b580      	push	{r7, lr}
8010168c:	b082      	sub	sp, #8
8010168e:	af00      	add	r7, sp, #0
80101690:	f7ff ffd4 	bl	8010163c <imx6ull_system_countter_init>
80101694:	f44f 5090 	mov.w	r0, #4608	; 0x1200
80101698:	f2c0 007a 	movt	r0, #122	; 0x7a
8010169c:	f7ff ff1d 	bl	801014da <HalClockFreqWrite>
801016a0:	f7ff ff0e 	bl	801014c0 <HalClockFreqRead>
801016a4:	4603      	mov	r3, r0
801016a6:	607b      	str	r3, [r7, #4]
801016a8:	6879      	ldr	r1, [r7, #4]
801016aa:	f641 4088 	movw	r0, #7304	; 0x1c88
801016ae:	f2c8 0010 	movt	r0, #32784	; 0x8010
801016b2:	f7ff fc2a 	bl	80100f0a <printf>
801016b6:	2200      	movs	r2, #0
801016b8:	f241 51b3 	movw	r1, #5555	; 0x15b3
801016bc:	f2c8 0110 	movt	r1, #32784	; 0x8010
801016c0:	201d      	movs	r0, #29
801016c2:	f7ff fd39 	bl	80101138 <request_irq>
801016c6:	f7ff ffa6 	bl	80101616 <rt_hw_clock_start>
801016ca:	2300      	movs	r3, #0
801016cc:	4618      	mov	r0, r3
801016ce:	3708      	adds	r7, #8
801016d0:	46bd      	mov	sp, r7
801016d2:	bd80      	pop	{r7, pc}
801016d4:	0000      	movs	r0, r0
	...

801016d8 <__aeabi_uidiv>:
801016d8:	1e4a      	subs	r2, r1, #1
801016da:	bf08      	it	eq
801016dc:	4770      	bxeq	lr
801016de:	f0c0 8124 	bcc.w	8010192a <__aeabi_uidiv+0x252>
801016e2:	4288      	cmp	r0, r1
801016e4:	f240 8116 	bls.w	80101914 <__aeabi_uidiv+0x23c>
801016e8:	4211      	tst	r1, r2
801016ea:	f000 8117 	beq.w	8010191c <__aeabi_uidiv+0x244>
801016ee:	fab0 f380 	clz	r3, r0
801016f2:	fab1 f281 	clz	r2, r1
801016f6:	eba2 0303 	sub.w	r3, r2, r3
801016fa:	f1c3 031f 	rsb	r3, r3, #31
801016fe:	a204      	add	r2, pc, #16	; (adr r2, 80101710 <__aeabi_uidiv+0x38>)
80101700:	eb02 1303 	add.w	r3, r2, r3, lsl #4
80101704:	f04f 0200 	mov.w	r2, #0
80101708:	469f      	mov	pc, r3
8010170a:	bf00      	nop
8010170c:	f3af 8000 	nop.w
80101710:	ebb0 7fc1 	cmp.w	r0, r1, lsl #31
80101714:	bf00      	nop
80101716:	eb42 0202 	adc.w	r2, r2, r2
8010171a:	bf28      	it	cs
8010171c:	eba0 70c1 	subcs.w	r0, r0, r1, lsl #31
80101720:	ebb0 7f81 	cmp.w	r0, r1, lsl #30
80101724:	bf00      	nop
80101726:	eb42 0202 	adc.w	r2, r2, r2
8010172a:	bf28      	it	cs
8010172c:	eba0 7081 	subcs.w	r0, r0, r1, lsl #30
80101730:	ebb0 7f41 	cmp.w	r0, r1, lsl #29
80101734:	bf00      	nop
80101736:	eb42 0202 	adc.w	r2, r2, r2
8010173a:	bf28      	it	cs
8010173c:	eba0 7041 	subcs.w	r0, r0, r1, lsl #29
80101740:	ebb0 7f01 	cmp.w	r0, r1, lsl #28
80101744:	bf00      	nop
80101746:	eb42 0202 	adc.w	r2, r2, r2
8010174a:	bf28      	it	cs
8010174c:	eba0 7001 	subcs.w	r0, r0, r1, lsl #28
80101750:	ebb0 6fc1 	cmp.w	r0, r1, lsl #27
80101754:	bf00      	nop
80101756:	eb42 0202 	adc.w	r2, r2, r2
8010175a:	bf28      	it	cs
8010175c:	eba0 60c1 	subcs.w	r0, r0, r1, lsl #27
80101760:	ebb0 6f81 	cmp.w	r0, r1, lsl #26
80101764:	bf00      	nop
80101766:	eb42 0202 	adc.w	r2, r2, r2
8010176a:	bf28      	it	cs
8010176c:	eba0 6081 	subcs.w	r0, r0, r1, lsl #26
80101770:	ebb0 6f41 	cmp.w	r0, r1, lsl #25
80101774:	bf00      	nop
80101776:	eb42 0202 	adc.w	r2, r2, r2
8010177a:	bf28      	it	cs
8010177c:	eba0 6041 	subcs.w	r0, r0, r1, lsl #25
80101780:	ebb0 6f01 	cmp.w	r0, r1, lsl #24
80101784:	bf00      	nop
80101786:	eb42 0202 	adc.w	r2, r2, r2
8010178a:	bf28      	it	cs
8010178c:	eba0 6001 	subcs.w	r0, r0, r1, lsl #24
80101790:	ebb0 5fc1 	cmp.w	r0, r1, lsl #23
80101794:	bf00      	nop
80101796:	eb42 0202 	adc.w	r2, r2, r2
8010179a:	bf28      	it	cs
8010179c:	eba0 50c1 	subcs.w	r0, r0, r1, lsl #23
801017a0:	ebb0 5f81 	cmp.w	r0, r1, lsl #22
801017a4:	bf00      	nop
801017a6:	eb42 0202 	adc.w	r2, r2, r2
801017aa:	bf28      	it	cs
801017ac:	eba0 5081 	subcs.w	r0, r0, r1, lsl #22
801017b0:	ebb0 5f41 	cmp.w	r0, r1, lsl #21
801017b4:	bf00      	nop
801017b6:	eb42 0202 	adc.w	r2, r2, r2
801017ba:	bf28      	it	cs
801017bc:	eba0 5041 	subcs.w	r0, r0, r1, lsl #21
801017c0:	ebb0 5f01 	cmp.w	r0, r1, lsl #20
801017c4:	bf00      	nop
801017c6:	eb42 0202 	adc.w	r2, r2, r2
801017ca:	bf28      	it	cs
801017cc:	eba0 5001 	subcs.w	r0, r0, r1, lsl #20
801017d0:	ebb0 4fc1 	cmp.w	r0, r1, lsl #19
801017d4:	bf00      	nop
801017d6:	eb42 0202 	adc.w	r2, r2, r2
801017da:	bf28      	it	cs
801017dc:	eba0 40c1 	subcs.w	r0, r0, r1, lsl #19
801017e0:	ebb0 4f81 	cmp.w	r0, r1, lsl #18
801017e4:	bf00      	nop
801017e6:	eb42 0202 	adc.w	r2, r2, r2
801017ea:	bf28      	it	cs
801017ec:	eba0 4081 	subcs.w	r0, r0, r1, lsl #18
801017f0:	ebb0 4f41 	cmp.w	r0, r1, lsl #17
801017f4:	bf00      	nop
801017f6:	eb42 0202 	adc.w	r2, r2, r2
801017fa:	bf28      	it	cs
801017fc:	eba0 4041 	subcs.w	r0, r0, r1, lsl #17
80101800:	ebb0 4f01 	cmp.w	r0, r1, lsl #16
80101804:	bf00      	nop
80101806:	eb42 0202 	adc.w	r2, r2, r2
8010180a:	bf28      	it	cs
8010180c:	eba0 4001 	subcs.w	r0, r0, r1, lsl #16
80101810:	ebb0 3fc1 	cmp.w	r0, r1, lsl #15
80101814:	bf00      	nop
80101816:	eb42 0202 	adc.w	r2, r2, r2
8010181a:	bf28      	it	cs
8010181c:	eba0 30c1 	subcs.w	r0, r0, r1, lsl #15
80101820:	ebb0 3f81 	cmp.w	r0, r1, lsl #14
80101824:	bf00      	nop
80101826:	eb42 0202 	adc.w	r2, r2, r2
8010182a:	bf28      	it	cs
8010182c:	eba0 3081 	subcs.w	r0, r0, r1, lsl #14
80101830:	ebb0 3f41 	cmp.w	r0, r1, lsl #13
80101834:	bf00      	nop
80101836:	eb42 0202 	adc.w	r2, r2, r2
8010183a:	bf28      	it	cs
8010183c:	eba0 3041 	subcs.w	r0, r0, r1, lsl #13
80101840:	ebb0 3f01 	cmp.w	r0, r1, lsl #12
80101844:	bf00      	nop
80101846:	eb42 0202 	adc.w	r2, r2, r2
8010184a:	bf28      	it	cs
8010184c:	eba0 3001 	subcs.w	r0, r0, r1, lsl #12
80101850:	ebb0 2fc1 	cmp.w	r0, r1, lsl #11
80101854:	bf00      	nop
80101856:	eb42 0202 	adc.w	r2, r2, r2
8010185a:	bf28      	it	cs
8010185c:	eba0 20c1 	subcs.w	r0, r0, r1, lsl #11
80101860:	ebb0 2f81 	cmp.w	r0, r1, lsl #10
80101864:	bf00      	nop
80101866:	eb42 0202 	adc.w	r2, r2, r2
8010186a:	bf28      	it	cs
8010186c:	eba0 2081 	subcs.w	r0, r0, r1, lsl #10
80101870:	ebb0 2f41 	cmp.w	r0, r1, lsl #9
80101874:	bf00      	nop
80101876:	eb42 0202 	adc.w	r2, r2, r2
8010187a:	bf28      	it	cs
8010187c:	eba0 2041 	subcs.w	r0, r0, r1, lsl #9
80101880:	ebb0 2f01 	cmp.w	r0, r1, lsl #8
80101884:	bf00      	nop
80101886:	eb42 0202 	adc.w	r2, r2, r2
8010188a:	bf28      	it	cs
8010188c:	eba0 2001 	subcs.w	r0, r0, r1, lsl #8
80101890:	ebb0 1fc1 	cmp.w	r0, r1, lsl #7
80101894:	bf00      	nop
80101896:	eb42 0202 	adc.w	r2, r2, r2
8010189a:	bf28      	it	cs
8010189c:	eba0 10c1 	subcs.w	r0, r0, r1, lsl #7
801018a0:	ebb0 1f81 	cmp.w	r0, r1, lsl #6
801018a4:	bf00      	nop
801018a6:	eb42 0202 	adc.w	r2, r2, r2
801018aa:	bf28      	it	cs
801018ac:	eba0 1081 	subcs.w	r0, r0, r1, lsl #6
801018b0:	ebb0 1f41 	cmp.w	r0, r1, lsl #5
801018b4:	bf00      	nop
801018b6:	eb42 0202 	adc.w	r2, r2, r2
801018ba:	bf28      	it	cs
801018bc:	eba0 1041 	subcs.w	r0, r0, r1, lsl #5
801018c0:	ebb0 1f01 	cmp.w	r0, r1, lsl #4
801018c4:	bf00      	nop
801018c6:	eb42 0202 	adc.w	r2, r2, r2
801018ca:	bf28      	it	cs
801018cc:	eba0 1001 	subcs.w	r0, r0, r1, lsl #4
801018d0:	ebb0 0fc1 	cmp.w	r0, r1, lsl #3
801018d4:	bf00      	nop
801018d6:	eb42 0202 	adc.w	r2, r2, r2
801018da:	bf28      	it	cs
801018dc:	eba0 00c1 	subcs.w	r0, r0, r1, lsl #3
801018e0:	ebb0 0f81 	cmp.w	r0, r1, lsl #2
801018e4:	bf00      	nop
801018e6:	eb42 0202 	adc.w	r2, r2, r2
801018ea:	bf28      	it	cs
801018ec:	eba0 0081 	subcs.w	r0, r0, r1, lsl #2
801018f0:	ebb0 0f41 	cmp.w	r0, r1, lsl #1
801018f4:	bf00      	nop
801018f6:	eb42 0202 	adc.w	r2, r2, r2
801018fa:	bf28      	it	cs
801018fc:	eba0 0041 	subcs.w	r0, r0, r1, lsl #1
80101900:	ebb0 0f01 	cmp.w	r0, r1
80101904:	bf00      	nop
80101906:	eb42 0202 	adc.w	r2, r2, r2
8010190a:	bf28      	it	cs
8010190c:	eba0 0001 	subcs.w	r0, r0, r1
80101910:	4610      	mov	r0, r2
80101912:	4770      	bx	lr
80101914:	bf0c      	ite	eq
80101916:	2001      	moveq	r0, #1
80101918:	2000      	movne	r0, #0
8010191a:	4770      	bx	lr
8010191c:	fab1 f281 	clz	r2, r1
80101920:	f1c2 021f 	rsb	r2, r2, #31
80101924:	fa20 f002 	lsr.w	r0, r0, r2
80101928:	4770      	bx	lr
8010192a:	b108      	cbz	r0, 80101930 <__aeabi_uidiv+0x258>
8010192c:	f04f 30ff 	mov.w	r0, #4294967295
80101930:	f000 b826 	b.w	80101980 <__aeabi_idiv0>

80101934 <__aeabi_uidivmod>:
80101934:	2900      	cmp	r1, #0
80101936:	d0f8      	beq.n	8010192a <__aeabi_uidiv+0x252>
80101938:	e92d 4003 	stmdb	sp!, {r0, r1, lr}
8010193c:	f7ff fecc 	bl	801016d8 <__aeabi_uidiv>
80101940:	e8bd 4006 	ldmia.w	sp!, {r1, r2, lr}
80101944:	fb02 f300 	mul.w	r3, r2, r0
80101948:	eba1 0103 	sub.w	r1, r1, r3
8010194c:	4770      	bx	lr
8010194e:	bf00      	nop

80101950 <__aeabi_uldivmod>:
80101950:	b953      	cbnz	r3, 80101968 <__aeabi_uldivmod+0x18>
80101952:	b94a      	cbnz	r2, 80101968 <__aeabi_uldivmod+0x18>
80101954:	2900      	cmp	r1, #0
80101956:	bf08      	it	eq
80101958:	2800      	cmpeq	r0, #0
8010195a:	bf1c      	itt	ne
8010195c:	f04f 31ff 	movne.w	r1, #4294967295
80101960:	f04f 30ff 	movne.w	r0, #4294967295
80101964:	f000 b80c 	b.w	80101980 <__aeabi_idiv0>
80101968:	f1ad 0c08 	sub.w	ip, sp, #8
8010196c:	e96d ce04 	strd	ip, lr, [sp, #-16]!
80101970:	f000 f80c 	bl	8010198c <__udivmoddi4>
80101974:	f8dd e004 	ldr.w	lr, [sp, #4]
80101978:	e9dd 2302 	ldrd	r2, r3, [sp, #8]
8010197c:	b004      	add	sp, #16
8010197e:	4770      	bx	lr

80101980 <__aeabi_idiv0>:
80101980:	b502      	push	{r1, lr}
80101982:	f04f 0008 	mov.w	r0, #8
80101986:	f7ff f949 	bl	80100c1c <raise>
8010198a:	bd02      	pop	{r1, pc}

8010198c <__udivmoddi4>:
8010198c:	4299      	cmp	r1, r3
8010198e:	e92d 47f0 	stmdb	sp!, {r4, r5, r6, r7, r8, r9, sl, lr}
80101992:	bf08      	it	eq
80101994:	4290      	cmpeq	r0, r2
80101996:	4604      	mov	r4, r0
80101998:	460d      	mov	r5, r1
8010199a:	bf38      	it	cc
8010199c:	2000      	movcc	r0, #0
8010199e:	f8dd a020 	ldr.w	sl, [sp, #32]
801019a2:	bf38      	it	cc
801019a4:	2100      	movcc	r1, #0
801019a6:	d369      	bcc.n	80101a7c <__udivmoddi4+0xf0>
801019a8:	fab3 f683 	clz	r6, r3
801019ac:	2b00      	cmp	r3, #0
801019ae:	d070      	beq.n	80101a92 <__udivmoddi4+0x106>
801019b0:	fab5 f185 	clz	r1, r5
801019b4:	2d00      	cmp	r5, #0
801019b6:	d068      	beq.n	80101a8a <__udivmoddi4+0xfe>
801019b8:	1a76      	subs	r6, r6, r1
801019ba:	f1a6 0e20 	sub.w	lr, r6, #32
801019be:	fa03 f906 	lsl.w	r9, r3, r6
801019c2:	fa02 f10e 	lsl.w	r1, r2, lr
801019c6:	f1c6 0720 	rsb	r7, r6, #32
801019ca:	fa22 f307 	lsr.w	r3, r2, r7
801019ce:	fa02 f806 	lsl.w	r8, r2, r6
801019d2:	ea49 0901 	orr.w	r9, r9, r1
801019d6:	ea49 0903 	orr.w	r9, r9, r3
801019da:	454d      	cmp	r5, r9
801019dc:	bf08      	it	eq
801019de:	4544      	cmpeq	r4, r8
801019e0:	bf3c      	itt	cc
801019e2:	2000      	movcc	r0, #0
801019e4:	2100      	movcc	r1, #0
801019e6:	d30c      	bcc.n	80101a02 <__udivmoddi4+0x76>
801019e8:	2301      	movs	r3, #1
801019ea:	ebb4 0408 	subs.w	r4, r4, r8
801019ee:	fa03 f10e 	lsl.w	r1, r3, lr
801019f2:	fa23 f207 	lsr.w	r2, r3, r7
801019f6:	fa03 f006 	lsl.w	r0, r3, r6
801019fa:	ea41 0102 	orr.w	r1, r1, r2
801019fe:	eb65 0509 	sbc.w	r5, r5, r9
80101a02:	2e00      	cmp	r6, #0
80101a04:	d03a      	beq.n	80101a7c <__udivmoddi4+0xf0>
80101a06:	ea5f 0959 	movs.w	r9, r9, lsr #1
80101a0a:	ea4f 0838 	mov.w	r8, r8, rrx
80101a0e:	46b4      	mov	ip, r6
80101a10:	e00b      	b.n	80101a2a <__udivmoddi4+0x9e>
80101a12:	ebb4 0408 	subs.w	r4, r4, r8
80101a16:	eb65 0509 	sbc.w	r5, r5, r9
80101a1a:	1924      	adds	r4, r4, r4
80101a1c:	416d      	adcs	r5, r5
80101a1e:	3401      	adds	r4, #1
80101a20:	f145 0500 	adc.w	r5, r5, #0
80101a24:	f1bc 0c01 	subs.w	ip, ip, #1
80101a28:	d008      	beq.n	80101a3c <__udivmoddi4+0xb0>
80101a2a:	454d      	cmp	r5, r9
80101a2c:	bf08      	it	eq
80101a2e:	4544      	cmpeq	r4, r8
80101a30:	d2ef      	bcs.n	80101a12 <__udivmoddi4+0x86>
80101a32:	1924      	adds	r4, r4, r4
80101a34:	416d      	adcs	r5, r5
80101a36:	f1bc 0c01 	subs.w	ip, ip, #1
80101a3a:	d1f6      	bne.n	80101a2a <__udivmoddi4+0x9e>
80101a3c:	fa05 f707 	lsl.w	r7, r5, r7
80101a40:	fa24 f306 	lsr.w	r3, r4, r6
80101a44:	fa25 fe0e 	lsr.w	lr, r5, lr
80101a48:	fa25 fc06 	lsr.w	ip, r5, r6
80101a4c:	433b      	orrs	r3, r7
80101a4e:	1900      	adds	r0, r0, r4
80101a50:	ea43 040e 	orr.w	r4, r3, lr
80101a54:	f1a6 0e20 	sub.w	lr, r6, #32
80101a58:	fa0c f306 	lsl.w	r3, ip, r6
80101a5c:	fa04 fe0e 	lsl.w	lr, r4, lr
80101a60:	fa04 f206 	lsl.w	r2, r4, r6
80101a64:	f1c6 0720 	rsb	r7, r6, #32
80101a68:	fa24 f707 	lsr.w	r7, r4, r7
80101a6c:	ea43 030e 	orr.w	r3, r3, lr
80101a70:	4169      	adcs	r1, r5
80101a72:	433b      	orrs	r3, r7
80101a74:	1a80      	subs	r0, r0, r2
80101a76:	4665      	mov	r5, ip
80101a78:	eb61 0103 	sbc.w	r1, r1, r3
80101a7c:	f1ba 0f00 	cmp.w	sl, #0
80101a80:	d001      	beq.n	80101a86 <__udivmoddi4+0xfa>
80101a82:	e9ca 4500 	strd	r4, r5, [sl]
80101a86:	e8bd 87f0 	ldmia.w	sp!, {r4, r5, r6, r7, r8, r9, sl, pc}
80101a8a:	fab4 f184 	clz	r1, r4
80101a8e:	3120      	adds	r1, #32
80101a90:	e792      	b.n	801019b8 <__udivmoddi4+0x2c>
80101a92:	fab2 f682 	clz	r6, r2
80101a96:	fab5 f185 	clz	r1, r5
80101a9a:	3620      	adds	r6, #32
80101a9c:	2d00      	cmp	r5, #0
80101a9e:	d18b      	bne.n	801019b8 <__udivmoddi4+0x2c>
80101aa0:	e7f3      	b.n	80101a8a <__udivmoddi4+0xfe>
80101aa2:	bf00      	nop

Disassembly of section .rodata:

80101aa4 <.LC0>:
80101aa4:	65637845 	strbvs	r7, [r3, #-2117]!	; 0xfffff7bb
80101aa8:	6f697470 	svcvs	0x00697470
80101aac:	6320216e 			; <UNDEFINED> instruction: 0x6320216e
80101ab0:	20727370 	rsbscs	r7, r2, r0, ror r3
80101ab4:	30207369 	eorcc	r7, r0, r9, ror #6
80101ab8:	0d782578 	cfldr64eq	mvdx2, [r8, #-480]!	; 0xfffffe20
80101abc:	0000000a 	andeq	r0, r0, sl

80101ac0 <.LC1>:
80101ac0:	0a0d7325 	beq	8045e75c <__bss_end+0x35c58c>
80101ac4:	00000000 	andeq	r0, r0, r0

80101ac8 <.LC2>:
80101ac8:	20495753 	subcs	r5, r9, r3, asr r7
80101acc:	206c6176 	rsbcs	r6, ip, r6, ror r1
80101ad0:	7830203d 	ldmdavc	r0!, {r0, r2, r3, r4, r5, sp}
80101ad4:	0a0d7825 	beq	8045fb70 <__bss_end+0x35d9a0>
80101ad8:	00000000 	andeq	r0, r0, r0

80101adc <.LC3>:
80101adc:	31545047 	cmpcc	r4, r7, asr #32
80101ae0:	6d6f6320 	stclvs	3, cr6, [pc, #-128]!	; 80101a68 <__udivmoddi4+0xdc>
80101ae4:	69203070 	stmdbvs	r0!, {r4, r5, r6, ip, sp}
80101ae8:	7265746e 	rsbvc	r7, r5, #1845493760	; 0x6e000000
80101aec:	74707572 	ldrbtvc	r7, [r0], #-1394	; 0xfffffa8e
80101af0:	70616820 	rsbvc	r6, r1, r0, lsr #16
80101af4:	656e6570 	strbvs	r6, [lr, #-1392]!	; 0xfffffa90
80101af8:	000a0d64 	andeq	r0, sl, r4, ror #26

80101afc <.LC4>:
80101afc:	6c6c6568 	cfstr64vs	mvdx6, [ip], #-416	; 0xfffffe60
80101b00:	6f77206f 	svcvs	0x0077206f
80101b04:	0d646c72 	stcleq	12, cr6, [r4, #-456]!	; 0xfffffe38
80101b08:	0000000a 	andeq	r0, r0, sl

80101b0c <.LC0>:
80101b0c:	73696854 	cmnvc	r9, #84, 16	; 0x540000
80101b10:	20736920 	rsbscs	r6, r3, r0, lsr #18
80101b14:	2e777777 	mrccs	7, 3, r7, cr7, cr7, {3}
80101b18:	61303031 	teqvs	r0, r1, lsr r0
80101b1c:	6f2e6b73 	svcvs	0x002e6b73
80101b20:	20206772 	eorcs	r6, r0, r2, ror r7
80101b24:	5f796d20 	svcpl	0x00796d20
80101b28:	6e697270 	mcrvs	2, 3, r7, cr9, cr0, {3}
80101b2c:	74206674 	strtvc	r6, [r0], #-1652	; 0xfffff98c
80101b30:	0a747365 	beq	81e1e8cc <__bss_end+0x1d1c6fc>
80101b34:	0000000d 	andeq	r0, r0, sp

80101b38 <.LC1>:
80101b38:	74736574 	ldrbtvc	r6, [r3], #-1396	; 0xfffffa8c
80101b3c:	61686320 	cmnvs	r8, r0, lsr #6
80101b40:	20202072 	eorcs	r2, r0, r2, ror r0
80101b44:	20202020 	eorcs	r2, r0, r0, lsr #32
80101b48:	20202020 	eorcs	r2, r0, r0, lsr #32
80101b4c:	2c63253d 	cfstr64cs	mvdx2, [r3], #-244	; 0xffffff0c
80101b50:	0d0a6325 	stceq	3, cr6, [sl, #-148]	; 0xffffff6c
80101b54:	00000000 	andeq	r0, r0, r0

80101b58 <.LC2>:
80101b58:	74736574 	ldrbtvc	r6, [r3], #-1396	; 0xfffffa8c
80101b5c:	63656420 	cmnvs	r5, #32, 8	; 0x20000000
80101b60:	6c616d69 	stclvs	13, cr6, [r1], #-420	; 0xfffffe5c
80101b64:	6d756e20 	ldclvs	14, cr6, [r5, #-128]!	; 0xffffff80
80101b68:	20726562 	rsbscs	r6, r2, r2, ror #10
80101b6c:	0a64253d 	beq	81a0b068 <__bss_end+0x1908e98>
80101b70:	0000000d 	andeq	r0, r0, sp

80101b74 <.LC3>:
80101b74:	74736574 	ldrbtvc	r6, [r3], #-1396	; 0xfffffa8c
80101b78:	78656820 	stmdavc	r5!, {r5, fp, sp, lr}^
80101b7c:	20202020 	eorcs	r2, r0, r0, lsr #32
80101b80:	6d756e20 	ldclvs	14, cr6, [r5, #-128]!	; 0xffffff80
80101b84:	20726562 	rsbscs	r6, r2, r2, ror #10
80101b88:	2578303d 	ldrbcs	r3, [r8, #-61]!	; 0xffffffc3
80101b8c:	000d0a78 	andeq	r0, sp, r8, ror sl

80101b90 <.LC4>:
80101b90:	2e777777 	mrccs	7, 3, r7, cr7, cr7, {3}
80101b94:	61303031 	teqvs	r0, r1, lsr r0
80101b98:	6f2e6b73 	svcvs	0x002e6b73
80101b9c:	00006772 	andeq	r6, r0, r2, ror r7

80101ba0 <.LC5>:
80101ba0:	74736574 	ldrbtvc	r6, [r3], #-1396	; 0xfffffa8c
80101ba4:	72747320 	rsbsvc	r7, r4, #32, 6	; 0x80000000
80101ba8:	20676e69 	rsbcs	r6, r7, r9, ror #28
80101bac:	20202020 	eorcs	r2, r0, r0, lsr #32
80101bb0:	20202020 	eorcs	r2, r0, r0, lsr #32
80101bb4:	0a73253d 	beq	81dcb0b0 <__bss_end+0x1cc8ee0>
80101bb8:	0000000d 	andeq	r0, r0, sp

80101bbc <.LC6>:
80101bbc:	3d6d756e 	cfstr64cc	mvdx7, [sp, #-440]!	; 0xfffffe48
80101bc0:	64383025 	ldrtvs	r3, [r8], #-37	; 0xffffffdb
80101bc4:	00000d0a 	andeq	r0, r0, sl, lsl #26

80101bc8 <.LC7>:
80101bc8:	3d6d756e 	cfstr64cc	mvdx7, [sp, #-440]!	; 0xfffffe48
80101bcc:	0a643825 	beq	81a0fc68 <__bss_end+0x190da98>
80101bd0:	0000000d 	andeq	r0, r0, sp

80101bd4 <.LC8>:
80101bd4:	3d6d756e 	cfstr64cc	mvdx7, [sp, #-440]!	; 0xfffffe48
80101bd8:	30257830 	eorcc	r7, r5, r0, lsr r8
80101bdc:	0d0a7838 	stceq	8, cr7, [sl, #-224]	; 0xffffff20
80101be0:	00000000 	andeq	r0, r0, r0

80101be4 <.LC9>:
80101be4:	3d6d756e 	cfstr64cc	mvdx7, [sp, #-440]!	; 0xfffffe48
80101be8:	38257830 	stmdacc	r5!, {r4, r5, fp, ip, sp, lr}
80101bec:	000d0a78 	andeq	r0, sp, r8, ror sl

80101bf0 <.LC10>:
80101bf0:	3d6d756e 	cfstr64cc	mvdx7, [sp, #-440]!	; 0xfffffe48
80101bf4:	30257830 	eorcc	r7, r5, r0, lsr r8
80101bf8:	0d0a7832 	stceq	8, cr7, [sl, #-200]	; 0xffffff38
80101bfc:	00000000 	andeq	r0, r0, r0

80101c00 <.LC11>:
80101c00:	3d6d756e 	cfstr64cc	mvdx7, [sp, #-440]!	; 0xfffffe48
80101c04:	32257830 	eorcc	r7, r5, #48, 16	; 0x300000
80101c08:	000d0a78 	andeq	r0, sp, r8, ror sl

80101c0c <.LC12>:
80101c0c:	3d6d756e 	cfstr64cc	mvdx7, [sp, #-440]!	; 0xfffffe48
80101c10:	64353025 	ldrtvs	r3, [r5], #-37	; 0xffffffdb
80101c14:	00000d0a 	andeq	r0, r0, sl, lsl #26

80101c18 <.LC13>:
80101c18:	3d6d756e 	cfstr64cc	mvdx7, [sp, #-440]!	; 0xfffffe48
80101c1c:	0a643525 	beq	81a0f0b8 <__bss_end+0x190cee8>
80101c20:	0000000d 	andeq	r0, r0, sp

80101c24 <.LC0>:
80101c24:	25717269 	ldrbcs	r7, [r1, #-617]!	; 0xfffffd97
80101c28:	61682064 	cmnvs	r8, r4, rrx
80101c2c:	6e206576 	mcrvs	5, 1, r6, cr0, cr6, {3}
80101c30:	7320746f 			; <UNDEFINED> instruction: 0x7320746f
80101c34:	69207465 	stmdbvs	r0!, {r0, r2, r5, r6, sl, ip, sp, lr}
80101c38:	68207172 	stmdavs	r0!, {r1, r4, r5, r6, r8, ip, sp, lr}
80101c3c:	6c646e61 	stclvs	14, cr6, [r4], #-388	; 0xfffffe7c
80101c40:	202c7265 	eorcs	r7, ip, r5, ror #4
80101c44:	20657375 	rsbcs	r7, r5, r5, ror r3
80101c48:	61666564 	cmnvs	r6, r4, ror #10
80101c4c:	20746c75 	rsbscs	r6, r4, r5, ror ip
80101c50:	61657473 	smcvs	22339	; 0x5743
80101c54:	00000a64 	andeq	r0, r0, r4, ror #20

80101c58 <.LC1>:
80101c58:	20717269 	rsbscs	r7, r1, r9, ror #4
80101c5c:	69206425 	stmdbvs	r0!, {r0, r2, r5, sl, sp, lr}
80101c60:	61682073 	smcvs	33283	; 0x8203
80101c64:	6e657070 	mcrvs	0, 3, r7, cr5, cr0, {3}
80101c68:	0a0d6465 	beq	8045ae04 <__bss_end+0x358c34>
80101c6c:	00000000 	andeq	r0, r0, r0

80101c70 <.LC0>:
80101c70:	685f7472 	ldmdavs	pc, {r1, r4, r5, r6, sl, ip, sp, lr}^	; <UNPREDICTABLE>
80101c74:	69745f77 	ldmdbvs	r4!, {r0, r1, r2, r4, r5, r6, r8, r9, sl, fp, ip, lr}^
80101c78:	5f72656d 	svcpl	0x0072656d
80101c7c:	20727369 	rsbscs	r7, r2, r9, ror #6
80101c80:	0d0a6425 	cfstrseq	mvf6, [sl, #-148]	; 0xffffff6c
80101c84:	00000000 	andeq	r0, r0, r0

80101c88 <.LC1>:
80101c88:	685f7472 	ldmdavs	pc, {r1, r4, r5, r6, sl, ip, sp, lr}^	; <UNPREDICTABLE>
80101c8c:	69745f77 	ldmdbvs	r4!, {r0, r1, r2, r4, r5, r6, r8, r9, sl, fp, ip, lr}^
80101c90:	5f72656d 	svcpl	0x0072656d
80101c94:	74696e69 	strbtvc	r6, [r9], #-3689	; 0xfffff197
80101c98:	534f2020 	movtpl	r2, #61472	; 0xf020
80101c9c:	4359435f 	cmpmi	r9, #2080374785	; 0x7c000001
80101ca0:	505f454c 	subspl	r4, pc, ip, asr #10
80101ca4:	545f5245 	ldrbpl	r5, [pc], #-581	; 80101cac <.LC1+0x24>
80101ca8:	204b4349 	subcs	r4, fp, r9, asr #6
80101cac:	Address 0x80101cac is out of bounds.


Disassembly of section .ARM.exidx:

80101cb0 <.ARM.exidx>:
80101cb0:	7ffffcdc 	svcvc	0x00fffcdc
80101cb4:	00000001 	andeq	r0, r0, r1

Disassembly of section .data:

80101cb8 <on.8270>:
80101cb8:	00000001 	andeq	r0, r0, r1

80101cbc <hex_tab>:
80101cbc:	33323130 	teqcc	r2, #48, 2
80101cc0:	37363534 			; <UNDEFINED> instruction: 0x37363534
80101cc4:	62613938 	rsbvs	r3, r1, #56, 18	; 0xe0000
80101cc8:	66656463 	strbtvs	r6, [r5], -r3, ror #8

Disassembly of section .bss:

80101ccc <__bss_start>:
	...

801021cc <cnt.4972>:
801021cc:	00000000 	andeq	r0, r0, r0

