:020000040800F2
:10000000000000008900000800F002F800F02CF861
:100010000AA090E8000C82448344AAF10107DA4563
:1000200001D100F021F8AFF2090EBAE80F0013F089
:10003000010F18BFFB1A43F0010318474C010000E1
:100040005C0100000023002400250026103A28BF90
:1000500078C1FBD8520728BF30C148BF0B6070473A
:100060001FB51FBD10B510BD00F014F81146FFF705
:10007000F7FF00F067F800F032F803B4FFF7F2FF83
:1000800003BC00F053F80000DFF804D000F05AF889
:1000900000000120754600F02BF8AE4605006946C9
:1000A000534620F00700854618B020B500F024F82C
:1000B000BDE820404FF000064FF000074FF0000869
:1000C0004FF0000B21F00701AC46ACE8C009ACE8EA
:1000D000C009ACE8C009ACE8C0098D46704710B54E
:1000E0000446AFF300802046BDE81040FFF7C5BFCF
:1000F000004870470000002000B54FF0160085B0A2
:10010000694601AA0A60ABBE0198002802BF0548F3
:10011000C01D20F007000399029A049B05B000BDA2
:10012000090000006000002070470000014918200D
:10013000ABBEFEE72600020000BF011EA0F10100D9
:10014000FBD170470D4B186840F0080018600C4B4D
:10015000186840F001001860094B0C330DE0186876
:1001600040F0010018600748FFF7E6FF186820F02C
:10017000010018600348FFF7DFFFF0E718100240A6
:10018000000C0140A086010098010008000000203A
:080190006000000044000008BB
:040000050800008966
:00000001FF
