
led.elf:     file format elf32-littlearm


Disassembly of section .text:

c0100000 <_start>:
c0100000:	e51fd000 	ldr	sp, [pc, #-0]	; c0100008 <_start+0x8>
c0100004:	fb0000db 	blx	c010037a <main>
c0100008:	c0100000 	andsgt	r0, r0, r0

c010000c <uart4_clk_init>:
c010000c:	b480      	push	{r7}
c010000e:	af00      	add	r7, sp, #0
c0100010:	f240 32ec 	movw	r2, #1004	; 0x3ec
c0100014:	f2cc 0210 	movt	r2, #49168	; 0xc010
c0100018:	f44f 6308 	mov.w	r3, #2176	; 0x880
c010001c:	f2c5 0300 	movt	r3, #20480	; 0x5000
c0100020:	6013      	str	r3, [r2, #0]
c0100022:	f240 32d8 	movw	r2, #984	; 0x3d8
c0100026:	f2cc 0210 	movt	r2, #49168	; 0xc010
c010002a:	f44f 6302 	mov.w	r3, #2080	; 0x820
c010002e:	f2c5 0300 	movt	r3, #20480	; 0x5000
c0100032:	6013      	str	r3, [r2, #0]
c0100034:	f240 32d4 	movw	r2, #980	; 0x3d4
c0100038:	f2cc 0210 	movt	r2, #49168	; 0xc010
c010003c:	f640 038c 	movw	r3, #2188	; 0x88c
c0100040:	f2c5 0300 	movt	r3, #20480	; 0x5000
c0100044:	6013      	str	r3, [r2, #0]
c0100046:	f240 32dc 	movw	r2, #988	; 0x3dc
c010004a:	f2cc 0210 	movt	r2, #49168	; 0xc010
c010004e:	f640 0384 	movw	r3, #2180	; 0x884
c0100052:	f2c5 0300 	movt	r3, #20480	; 0x5000
c0100056:	6013      	str	r3, [r2, #0]
c0100058:	f240 32e0 	movw	r2, #992	; 0x3e0
c010005c:	f2cc 0210 	movt	r2, #49168	; 0xc010
c0100060:	f640 0388 	movw	r3, #2184	; 0x888
c0100064:	f2c5 0300 	movt	r3, #20480	; 0x5000
c0100068:	6013      	str	r3, [r2, #0]
c010006a:	f240 32e4 	movw	r2, #996	; 0x3e4
c010006e:	f2cc 0210 	movt	r2, #49168	; 0xc010
c0100072:	2348      	movs	r3, #72	; 0x48
c0100074:	f2c5 0300 	movt	r3, #20480	; 0x5000
c0100078:	6013      	str	r3, [r2, #0]
c010007a:	f240 32e8 	movw	r2, #1000	; 0x3e8
c010007e:	f2cc 0210 	movt	r2, #49168	; 0xc010
c0100082:	f640 0334 	movw	r3, #2100	; 0x834
c0100086:	f2c5 0300 	movt	r3, #20480	; 0x5000
c010008a:	6013      	str	r3, [r2, #0]
c010008c:	f240 32f0 	movw	r2, #1008	; 0x3f0
c0100090:	f2cc 0210 	movt	r2, #49168	; 0xc010
c0100094:	f640 03e8 	movw	r3, #2280	; 0x8e8
c0100098:	f2c5 0300 	movt	r3, #20480	; 0x5000
c010009c:	6013      	str	r3, [r2, #0]
c010009e:	f240 33d8 	movw	r3, #984	; 0x3d8
c01000a2:	f2cc 0310 	movt	r3, #49168	; 0xc010
c01000a6:	681a      	ldr	r2, [r3, #0]
c01000a8:	f240 33d8 	movw	r3, #984	; 0x3d8
c01000ac:	f2cc 0310 	movt	r3, #49168	; 0xc010
c01000b0:	681b      	ldr	r3, [r3, #0]
c01000b2:	681b      	ldr	r3, [r3, #0]
c01000b4:	f023 0303 	bic.w	r3, r3, #3
c01000b8:	6013      	str	r3, [r2, #0]
c01000ba:	f240 33d8 	movw	r3, #984	; 0x3d8
c01000be:	f2cc 0310 	movt	r3, #49168	; 0xc010
c01000c2:	681a      	ldr	r2, [r3, #0]
c01000c4:	f240 33d8 	movw	r3, #984	; 0x3d8
c01000c8:	f2cc 0310 	movt	r3, #49168	; 0xc010
c01000cc:	681b      	ldr	r3, [r3, #0]
c01000ce:	681b      	ldr	r3, [r3, #0]
c01000d0:	f043 0301 	orr.w	r3, r3, #1
c01000d4:	6013      	str	r3, [r2, #0]
c01000d6:	f240 33f0 	movw	r3, #1008	; 0x3f0
c01000da:	f2cc 0310 	movt	r3, #49168	; 0xc010
c01000de:	681b      	ldr	r3, [r3, #0]
c01000e0:	2200      	movs	r2, #0
c01000e2:	601a      	str	r2, [r3, #0]
c01000e4:	f240 33dc 	movw	r3, #988	; 0x3dc
c01000e8:	f2cc 0310 	movt	r3, #49168	; 0xc010
c01000ec:	681a      	ldr	r2, [r3, #0]
c01000ee:	f240 33dc 	movw	r3, #988	; 0x3dc
c01000f2:	f2cc 0310 	movt	r3, #49168	; 0xc010
c01000f6:	681b      	ldr	r3, [r3, #0]
c01000f8:	681b      	ldr	r3, [r3, #0]
c01000fa:	f023 03c7 	bic.w	r3, r3, #199	; 0xc7
c01000fe:	6013      	str	r3, [r2, #0]
c0100100:	f240 33dc 	movw	r3, #988	; 0x3dc
c0100104:	f2cc 0310 	movt	r3, #49168	; 0xc010
c0100108:	681a      	ldr	r2, [r3, #0]
c010010a:	f240 33dc 	movw	r3, #988	; 0x3dc
c010010e:	f2cc 0310 	movt	r3, #49168	; 0xc010
c0100112:	681b      	ldr	r3, [r3, #0]
c0100114:	681b      	ldr	r3, [r3, #0]
c0100116:	f043 0333 	orr.w	r3, r3, #51	; 0x33
c010011a:	6013      	str	r3, [r2, #0]
c010011c:	f240 33e0 	movw	r3, #992	; 0x3e0
c0100120:	f2cc 0310 	movt	r3, #49168	; 0xc010
c0100124:	681a      	ldr	r2, [r3, #0]
c0100126:	f240 33e0 	movw	r3, #992	; 0x3e0
c010012a:	f2cc 0310 	movt	r3, #49168	; 0xc010
c010012e:	681b      	ldr	r3, [r3, #0]
c0100130:	681b      	ldr	r3, [r3, #0]
c0100132:	f023 037f 	bic.w	r3, r3, #127	; 0x7f
c0100136:	6013      	str	r3, [r2, #0]
c0100138:	f240 33e0 	movw	r3, #992	; 0x3e0
c010013c:	f2cc 0310 	movt	r3, #49168	; 0xc010
c0100140:	681a      	ldr	r2, [r3, #0]
c0100142:	f240 33e0 	movw	r3, #992	; 0x3e0
c0100146:	f2cc 0310 	movt	r3, #49168	; 0xc010
c010014a:	681b      	ldr	r3, [r3, #0]
c010014c:	681b      	ldr	r3, [r3, #0]
c010014e:	f043 0302 	orr.w	r3, r3, #2
c0100152:	6013      	str	r3, [r2, #0]
c0100154:	f240 33d4 	movw	r3, #980	; 0x3d4
c0100158:	f2cc 0310 	movt	r3, #49168	; 0xc010
c010015c:	681a      	ldr	r2, [r3, #0]
c010015e:	f240 33d4 	movw	r3, #980	; 0x3d4
c0100162:	f2cc 0310 	movt	r3, #49168	; 0xc010
c0100166:	681b      	ldr	r3, [r3, #0]
c0100168:	681b      	ldr	r3, [r3, #0]
c010016a:	f423 3380 	bic.w	r3, r3, #65536	; 0x10000
c010016e:	6013      	str	r3, [r2, #0]
c0100170:	f240 33d4 	movw	r3, #980	; 0x3d4
c0100174:	f2cc 0310 	movt	r3, #49168	; 0xc010
c0100178:	681b      	ldr	r3, [r3, #0]
c010017a:	f643 72f8 	movw	r2, #16376	; 0x3ff8
c010017e:	601a      	str	r2, [r3, #0]
c0100180:	f240 33d4 	movw	r3, #980	; 0x3d4
c0100184:	f2cc 0310 	movt	r3, #49168	; 0xc010
c0100188:	681a      	ldr	r2, [r3, #0]
c010018a:	f240 33d4 	movw	r3, #980	; 0x3d4
c010018e:	f2cc 0310 	movt	r3, #49168	; 0xc010
c0100192:	681b      	ldr	r3, [r3, #0]
c0100194:	681b      	ldr	r3, [r3, #0]
c0100196:	f443 3380 	orr.w	r3, r3, #65536	; 0x10000
c010019a:	6013      	str	r3, [r2, #0]
c010019c:	f240 33e4 	movw	r3, #996	; 0x3e4
c01001a0:	f2cc 0310 	movt	r3, #49168	; 0xc010
c01001a4:	681a      	ldr	r2, [r3, #0]
c01001a6:	f240 33e4 	movw	r3, #996	; 0x3e4
c01001aa:	f2cc 0310 	movt	r3, #49168	; 0xc010
c01001ae:	681b      	ldr	r3, [r3, #0]
c01001b0:	681b      	ldr	r3, [r3, #0]
c01001b2:	f023 0303 	bic.w	r3, r3, #3
c01001b6:	6013      	str	r3, [r2, #0]
c01001b8:	f240 33e4 	movw	r3, #996	; 0x3e4
c01001bc:	f2cc 0310 	movt	r3, #49168	; 0xc010
c01001c0:	681a      	ldr	r2, [r3, #0]
c01001c2:	f240 33e4 	movw	r3, #996	; 0x3e4
c01001c6:	f2cc 0310 	movt	r3, #49168	; 0xc010
c01001ca:	681b      	ldr	r3, [r3, #0]
c01001cc:	681b      	ldr	r3, [r3, #0]
c01001ce:	f043 0303 	orr.w	r3, r3, #3
c01001d2:	6013      	str	r3, [r2, #0]
c01001d4:	f240 33e8 	movw	r3, #1000	; 0x3e8
c01001d8:	f2cc 0310 	movt	r3, #49168	; 0xc010
c01001dc:	681a      	ldr	r2, [r3, #0]
c01001de:	f240 33e8 	movw	r3, #1000	; 0x3e8
c01001e2:	f2cc 0310 	movt	r3, #49168	; 0xc010
c01001e6:	681b      	ldr	r3, [r3, #0]
c01001e8:	681b      	ldr	r3, [r3, #0]
c01001ea:	f023 0307 	bic.w	r3, r3, #7
c01001ee:	6013      	str	r3, [r2, #0]
c01001f0:	f240 33e8 	movw	r3, #1000	; 0x3e8
c01001f4:	f2cc 0310 	movt	r3, #49168	; 0xc010
c01001f8:	681a      	ldr	r2, [r3, #0]
c01001fa:	f240 33e8 	movw	r3, #1000	; 0x3e8
c01001fe:	f2cc 0310 	movt	r3, #49168	; 0xc010
c0100202:	681b      	ldr	r3, [r3, #0]
c0100204:	681b      	ldr	r3, [r3, #0]
c0100206:	f043 0301 	orr.w	r3, r3, #1
c010020a:	6013      	str	r3, [r2, #0]
c010020c:	f240 33ec 	movw	r3, #1004	; 0x3ec
c0100210:	f2cc 0310 	movt	r3, #49168	; 0xc010
c0100214:	681a      	ldr	r2, [r3, #0]
c0100216:	f240 33ec 	movw	r3, #1004	; 0x3ec
c010021a:	f2cc 0310 	movt	r3, #49168	; 0xc010
c010021e:	681b      	ldr	r3, [r3, #0]
c0100220:	681b      	ldr	r3, [r3, #0]
c0100222:	f043 0301 	orr.w	r3, r3, #1
c0100226:	6013      	str	r3, [r2, #0]
c0100228:	bf00      	nop
c010022a:	f240 33ec 	movw	r3, #1004	; 0x3ec
c010022e:	f2cc 0310 	movt	r3, #49168	; 0xc010
c0100232:	681b      	ldr	r3, [r3, #0]
c0100234:	681b      	ldr	r3, [r3, #0]
c0100236:	f003 0302 	and.w	r3, r3, #2
c010023a:	2b00      	cmp	r3, #0
c010023c:	d0f5      	beq.n	c010022a <uart4_clk_init+0x21e>
c010023e:	f240 33ec 	movw	r3, #1004	; 0x3ec
c0100242:	f2cc 0310 	movt	r3, #49168	; 0xc010
c0100246:	681a      	ldr	r2, [r3, #0]
c0100248:	f240 33ec 	movw	r3, #1004	; 0x3ec
c010024c:	f2cc 0310 	movt	r3, #49168	; 0xc010
c0100250:	681b      	ldr	r3, [r3, #0]
c0100252:	681b      	ldr	r3, [r3, #0]
c0100254:	f043 0310 	orr.w	r3, r3, #16
c0100258:	6013      	str	r3, [r2, #0]
c010025a:	bf00      	nop
c010025c:	46bd      	mov	sp, r7
c010025e:	f85d 7b04 	ldr.w	r7, [sp], #4
c0100262:	4770      	bx	lr

c0100264 <uart_init>:
c0100264:	b580      	push	{r7, lr}
c0100266:	b084      	sub	sp, #16
c0100268:	af00      	add	r7, sp, #0
c010026a:	2300      	movs	r3, #0
c010026c:	f2c4 0301 	movt	r3, #16385	; 0x4001
c0100270:	60fb      	str	r3, [r7, #12]
c0100272:	f44f 5300 	mov.w	r3, #8192	; 0x2000
c0100276:	f2c5 0300 	movt	r3, #20480	; 0x5000
c010027a:	60bb      	str	r3, [r7, #8]
c010027c:	f242 0324 	movw	r3, #8228	; 0x2024
c0100280:	f2c5 0300 	movt	r3, #20480	; 0x5000
c0100284:	607b      	str	r3, [r7, #4]
c0100286:	f7ff fec1 	bl	c010000c <uart4_clk_init>
c010028a:	68bb      	ldr	r3, [r7, #8]
c010028c:	681b      	ldr	r3, [r3, #0]
c010028e:	f023 7270 	bic.w	r2, r3, #62914560	; 0x3c00000
c0100292:	68bb      	ldr	r3, [r7, #8]
c0100294:	601a      	str	r2, [r3, #0]
c0100296:	68bb      	ldr	r3, [r7, #8]
c0100298:	681b      	ldr	r3, [r3, #0]
c010029a:	f043 7220 	orr.w	r2, r3, #41943040	; 0x2800000
c010029e:	68bb      	ldr	r3, [r7, #8]
c01002a0:	601a      	str	r2, [r3, #0]
c01002a2:	687b      	ldr	r3, [r7, #4]
c01002a4:	681b      	ldr	r3, [r3, #0]
c01002a6:	f423 227f 	bic.w	r2, r3, #1044480	; 0xff000
c01002aa:	687b      	ldr	r3, [r7, #4]
c01002ac:	601a      	str	r2, [r3, #0]
c01002ae:	687b      	ldr	r3, [r7, #4]
c01002b0:	681b      	ldr	r3, [r3, #0]
c01002b2:	f443 22cc 	orr.w	r2, r3, #417792	; 0x66000
c01002b6:	687b      	ldr	r3, [r7, #4]
c01002b8:	601a      	str	r2, [r3, #0]
c01002ba:	68fb      	ldr	r3, [r7, #12]
c01002bc:	681b      	ldr	r3, [r3, #0]
c01002be:	f023 0201 	bic.w	r2, r3, #1
c01002c2:	68fb      	ldr	r3, [r7, #12]
c01002c4:	601a      	str	r2, [r3, #0]
c01002c6:	68fb      	ldr	r3, [r7, #12]
c01002c8:	f240 328b 	movw	r2, #907	; 0x38b
c01002cc:	60da      	str	r2, [r3, #12]
c01002ce:	68fb      	ldr	r3, [r7, #12]
c01002d0:	681b      	ldr	r3, [r3, #0]
c01002d2:	f043 020c 	orr.w	r2, r3, #12
c01002d6:	68fb      	ldr	r3, [r7, #12]
c01002d8:	601a      	str	r2, [r3, #0]
c01002da:	68fb      	ldr	r3, [r7, #12]
c01002dc:	685b      	ldr	r3, [r3, #4]
c01002de:	f423 5240 	bic.w	r2, r3, #12288	; 0x3000
c01002e2:	68fb      	ldr	r3, [r7, #12]
c01002e4:	605a      	str	r2, [r3, #4]
c01002e6:	68fb      	ldr	r3, [r7, #12]
c01002e8:	681b      	ldr	r3, [r3, #0]
c01002ea:	f043 0201 	orr.w	r2, r3, #1
c01002ee:	68fb      	ldr	r3, [r7, #12]
c01002f0:	601a      	str	r2, [r3, #0]
c01002f2:	bf00      	nop
c01002f4:	3710      	adds	r7, #16
c01002f6:	46bd      	mov	sp, r7
c01002f8:	bd80      	pop	{r7, pc}

c01002fa <getchar>:
c01002fa:	b480      	push	{r7}
c01002fc:	b083      	sub	sp, #12
c01002fe:	af00      	add	r7, sp, #0
c0100300:	2300      	movs	r3, #0
c0100302:	f2c4 0301 	movt	r3, #16385	; 0x4001
c0100306:	607b      	str	r3, [r7, #4]
c0100308:	bf00      	nop
c010030a:	687b      	ldr	r3, [r7, #4]
c010030c:	69db      	ldr	r3, [r3, #28]
c010030e:	f003 0320 	and.w	r3, r3, #32
c0100312:	2b00      	cmp	r3, #0
c0100314:	d0f9      	beq.n	c010030a <getchar+0x10>
c0100316:	687b      	ldr	r3, [r7, #4]
c0100318:	6a5b      	ldr	r3, [r3, #36]	; 0x24
c010031a:	4618      	mov	r0, r3
c010031c:	370c      	adds	r7, #12
c010031e:	46bd      	mov	sp, r7
c0100320:	f85d 7b04 	ldr.w	r7, [sp], #4
c0100324:	4770      	bx	lr

c0100326 <putchar>:
c0100326:	b480      	push	{r7}
c0100328:	b085      	sub	sp, #20
c010032a:	af00      	add	r7, sp, #0
c010032c:	4603      	mov	r3, r0
c010032e:	71fb      	strb	r3, [r7, #7]
c0100330:	2300      	movs	r3, #0
c0100332:	f2c4 0301 	movt	r3, #16385	; 0x4001
c0100336:	60fb      	str	r3, [r7, #12]
c0100338:	bf00      	nop
c010033a:	68fb      	ldr	r3, [r7, #12]
c010033c:	69db      	ldr	r3, [r3, #28]
c010033e:	f003 0380 	and.w	r3, r3, #128	; 0x80
c0100342:	2b00      	cmp	r3, #0
c0100344:	d0f9      	beq.n	c010033a <putchar+0x14>
c0100346:	79fa      	ldrb	r2, [r7, #7]
c0100348:	68fb      	ldr	r3, [r7, #12]
c010034a:	629a      	str	r2, [r3, #40]	; 0x28
c010034c:	79fb      	ldrb	r3, [r7, #7]
c010034e:	4618      	mov	r0, r3
c0100350:	3714      	adds	r7, #20
c0100352:	46bd      	mov	sp, r7
c0100354:	f85d 7b04 	ldr.w	r7, [sp], #4
c0100358:	4770      	bx	lr

c010035a <delay>:
c010035a:	b480      	push	{r7}
c010035c:	b083      	sub	sp, #12
c010035e:	af00      	add	r7, sp, #0
c0100360:	6078      	str	r0, [r7, #4]
c0100362:	bf00      	nop
c0100364:	687b      	ldr	r3, [r7, #4]
c0100366:	1e5a      	subs	r2, r3, #1
c0100368:	607a      	str	r2, [r7, #4]
c010036a:	2b00      	cmp	r3, #0
c010036c:	d1fa      	bne.n	c0100364 <delay+0xa>
c010036e:	bf00      	nop
c0100370:	370c      	adds	r7, #12
c0100372:	46bd      	mov	sp, r7
c0100374:	f85d 7b04 	ldr.w	r7, [sp], #4
c0100378:	4770      	bx	lr

c010037a <main>:
c010037a:	b580      	push	{r7, lr}
c010037c:	b082      	sub	sp, #8
c010037e:	af00      	add	r7, sp, #0
c0100380:	f7ff ff70 	bl	c0100264 <uart_init>
c0100384:	2031      	movs	r0, #49	; 0x31
c0100386:	f7ff ffce 	bl	c0100326 <putchar>
c010038a:	2030      	movs	r0, #48	; 0x30
c010038c:	f7ff ffcb 	bl	c0100326 <putchar>
c0100390:	2030      	movs	r0, #48	; 0x30
c0100392:	f7ff ffc8 	bl	c0100326 <putchar>
c0100396:	2061      	movs	r0, #97	; 0x61
c0100398:	f7ff ffc5 	bl	c0100326 <putchar>
c010039c:	2073      	movs	r0, #115	; 0x73
c010039e:	f7ff ffc2 	bl	c0100326 <putchar>
c01003a2:	206b      	movs	r0, #107	; 0x6b
c01003a4:	f7ff ffbf 	bl	c0100326 <putchar>
c01003a8:	200d      	movs	r0, #13
c01003aa:	f7ff ffbc 	bl	c0100326 <putchar>
c01003ae:	200a      	movs	r0, #10
c01003b0:	f7ff ffb9 	bl	c0100326 <putchar>
c01003b4:	f7ff ffa1 	bl	c01002fa <getchar>
c01003b8:	4603      	mov	r3, r0
c01003ba:	71fb      	strb	r3, [r7, #7]
c01003bc:	79fb      	ldrb	r3, [r7, #7]
c01003be:	4618      	mov	r0, r3
c01003c0:	f7ff ffb1 	bl	c0100326 <putchar>
c01003c4:	79fb      	ldrb	r3, [r7, #7]
c01003c6:	3301      	adds	r3, #1
c01003c8:	b2db      	uxtb	r3, r3
c01003ca:	4618      	mov	r0, r3
c01003cc:	f7ff ffab 	bl	c0100326 <putchar>
c01003d0:	e7f0      	b.n	c01003b4 <main+0x3a>

Disassembly of section .bss:

c01003d4 <__bss_start>:
c01003d4:	00000000 	andeq	r0, r0, r0

c01003d8 <RCC_RCK3SELR>:
c01003d8:	00000000 	andeq	r0, r0, r0

c01003dc <RCC_PLL3CFGR1>:
c01003dc:	00000000 	andeq	r0, r0, r0

c01003e0 <RCC_PLL3CFGR2>:
c01003e0:	00000000 	andeq	r0, r0, r0

c01003e4 <RCC_MSSCKSELR>:
c01003e4:	00000000 	andeq	r0, r0, r0

c01003e8 <RCC_APB1DIVR>:
c01003e8:	00000000 	andeq	r0, r0, r0

c01003ec <RCC_PLL3CR>:
c01003ec:	00000000 	andeq	r0, r0, r0

c01003f0 <RCC_UART24CKSELR>:
c01003f0:	00000000 	andeq	r0, r0, r0

