
led.elf:     file format elf32-littlearm


Disassembly of section .text:

c0100000 <_start>:
c0100000:	e59fd028 	ldr	sp, [pc, #40]	; c0100030 <clean+0x14>
c0100004:	eb000001 	bl	c0100010 <clean_bss>
c0100008:	fa000060 	blx	c0100190 <main>

c010000c <halt>:
c010000c:	eafffffe 	b	c010000c <halt>

c0100010 <clean_bss>:
c0100010:	e59f101c 	ldr	r1, [pc, #28]	; c0100034 <clean+0x18>
c0100014:	e59f201c 	ldr	r2, [pc, #28]	; c0100038 <clean+0x1c>
c0100018:	e3a03000 	mov	r3, #0

c010001c <clean>:
c010001c:	e5813000 	str	r3, [r1]
c0100020:	e2811004 	add	r1, r1, #4
c0100024:	e1510002 	cmp	r1, r2
c0100028:	1afffffb 	bne	c010001c <clean>
c010002c:	e1a0f00e 	mov	pc, lr
c0100030:	c0200000 	eorgt	r0, r0, r0
c0100034:	c0100214 	andsgt	r0, r0, r4, lsl r2
c0100038:	c0100228 	andsgt	r0, r0, r8, lsr #4

c010003c <led_init>:
c010003c:	b480      	push	{r7}
c010003e:	b083      	sub	sp, #12
c0100040:	af00      	add	r7, sp, #0
c0100042:	f240 2214 	movw	r2, #532	; 0x214
c0100046:	f2cc 0210 	movt	r2, #49168	; 0xc010
c010004a:	f44f 5300 	mov.w	r3, #8192	; 0x2000
c010004e:	f2c5 0300 	movt	r3, #20480	; 0x5000
c0100052:	6013      	str	r3, [r2, #0]
c0100054:	f240 2218 	movw	r2, #536	; 0x218
c0100058:	f2cc 0210 	movt	r2, #49168	; 0xc010
c010005c:	f242 0304 	movw	r3, #8196	; 0x2004
c0100060:	f2c5 0300 	movt	r3, #20480	; 0x5000
c0100064:	6013      	str	r3, [r2, #0]
c0100066:	f240 221c 	movw	r2, #540	; 0x21c
c010006a:	f2cc 0210 	movt	r2, #49168	; 0xc010
c010006e:	f242 0314 	movw	r3, #8212	; 0x2014
c0100072:	f2c5 0300 	movt	r3, #20480	; 0x5000
c0100076:	6013      	str	r3, [r2, #0]
c0100078:	f240 2220 	movw	r2, #544	; 0x220
c010007c:	f2cc 0210 	movt	r2, #49168	; 0xc010
c0100080:	f242 0320 	movw	r3, #8224	; 0x2020
c0100084:	f2c5 0300 	movt	r3, #20480	; 0x5000
c0100088:	6013      	str	r3, [r2, #0]
c010008a:	f240 2224 	movw	r2, #548	; 0x224
c010008e:	f2cc 0210 	movt	r2, #49168	; 0xc010
c0100092:	f242 0324 	movw	r3, #8228	; 0x2024
c0100096:	f2c5 0300 	movt	r3, #20480	; 0x5000
c010009a:	6013      	str	r3, [r2, #0]
c010009c:	f240 2314 	movw	r3, #532	; 0x214
c01000a0:	f2cc 0310 	movt	r3, #49168	; 0xc010
c01000a4:	681b      	ldr	r3, [r3, #0]
c01000a6:	681b      	ldr	r3, [r3, #0]
c01000a8:	607b      	str	r3, [r7, #4]
c01000aa:	687b      	ldr	r3, [r7, #4]
c01000ac:	f423 1340 	bic.w	r3, r3, #3145728	; 0x300000
c01000b0:	607b      	str	r3, [r7, #4]
c01000b2:	687b      	ldr	r3, [r7, #4]
c01000b4:	f443 1380 	orr.w	r3, r3, #1048576	; 0x100000
c01000b8:	607b      	str	r3, [r7, #4]
c01000ba:	f240 2314 	movw	r3, #532	; 0x214
c01000be:	f2cc 0310 	movt	r3, #49168	; 0xc010
c01000c2:	681b      	ldr	r3, [r3, #0]
c01000c4:	687a      	ldr	r2, [r7, #4]
c01000c6:	601a      	str	r2, [r3, #0]
c01000c8:	f240 231c 	movw	r3, #540	; 0x21c
c01000cc:	f2cc 0310 	movt	r3, #49168	; 0xc010
c01000d0:	681b      	ldr	r3, [r3, #0]
c01000d2:	681b      	ldr	r3, [r3, #0]
c01000d4:	607b      	str	r3, [r7, #4]
c01000d6:	687b      	ldr	r3, [r7, #4]
c01000d8:	f423 6380 	bic.w	r3, r3, #1024	; 0x400
c01000dc:	607b      	str	r3, [r7, #4]
c01000de:	f240 231c 	movw	r3, #540	; 0x21c
c01000e2:	f2cc 0310 	movt	r3, #49168	; 0xc010
c01000e6:	681b      	ldr	r3, [r3, #0]
c01000e8:	687a      	ldr	r2, [r7, #4]
c01000ea:	601a      	str	r2, [r3, #0]
c01000ec:	f240 2324 	movw	r3, #548	; 0x224
c01000f0:	f2cc 0310 	movt	r3, #49168	; 0xc010
c01000f4:	681b      	ldr	r3, [r3, #0]
c01000f6:	681b      	ldr	r3, [r3, #0]
c01000f8:	607b      	str	r3, [r7, #4]
c01000fa:	687b      	ldr	r3, [r7, #4]
c01000fc:	f423 6370 	bic.w	r3, r3, #3840	; 0xf00
c0100100:	607b      	str	r3, [r7, #4]
c0100102:	f240 2324 	movw	r3, #548	; 0x224
c0100106:	f2cc 0310 	movt	r3, #49168	; 0xc010
c010010a:	681b      	ldr	r3, [r3, #0]
c010010c:	687a      	ldr	r2, [r7, #4]
c010010e:	601a      	str	r2, [r3, #0]
c0100110:	bf00      	nop
c0100112:	370c      	adds	r7, #12
c0100114:	46bd      	mov	sp, r7
c0100116:	f85d 7b04 	ldr.w	r7, [sp], #4
c010011a:	4770      	bx	lr

c010011c <led_ctl>:
c010011c:	b480      	push	{r7}
c010011e:	b083      	sub	sp, #12
c0100120:	af00      	add	r7, sp, #0
c0100122:	6078      	str	r0, [r7, #4]
c0100124:	687b      	ldr	r3, [r7, #4]
c0100126:	2b00      	cmp	r3, #0
c0100128:	d00e      	beq.n	c0100148 <led_ctl+0x2c>
c010012a:	f240 231c 	movw	r3, #540	; 0x21c
c010012e:	f2cc 0310 	movt	r3, #49168	; 0xc010
c0100132:	681a      	ldr	r2, [r3, #0]
c0100134:	f240 231c 	movw	r3, #540	; 0x21c
c0100138:	f2cc 0310 	movt	r3, #49168	; 0xc010
c010013c:	681b      	ldr	r3, [r3, #0]
c010013e:	681b      	ldr	r3, [r3, #0]
c0100140:	f423 6380 	bic.w	r3, r3, #1024	; 0x400
c0100144:	6013      	str	r3, [r2, #0]
c0100146:	e00d      	b.n	c0100164 <led_ctl+0x48>
c0100148:	f240 231c 	movw	r3, #540	; 0x21c
c010014c:	f2cc 0310 	movt	r3, #49168	; 0xc010
c0100150:	681a      	ldr	r2, [r3, #0]
c0100152:	f240 231c 	movw	r3, #540	; 0x21c
c0100156:	f2cc 0310 	movt	r3, #49168	; 0xc010
c010015a:	681b      	ldr	r3, [r3, #0]
c010015c:	681b      	ldr	r3, [r3, #0]
c010015e:	f443 6380 	orr.w	r3, r3, #1024	; 0x400
c0100162:	6013      	str	r3, [r2, #0]
c0100164:	bf00      	nop
c0100166:	370c      	adds	r7, #12
c0100168:	46bd      	mov	sp, r7
c010016a:	f85d 7b04 	ldr.w	r7, [sp], #4
c010016e:	4770      	bx	lr

c0100170 <delay>:
c0100170:	b480      	push	{r7}
c0100172:	b083      	sub	sp, #12
c0100174:	af00      	add	r7, sp, #0
c0100176:	6078      	str	r0, [r7, #4]
c0100178:	bf00      	nop
c010017a:	687b      	ldr	r3, [r7, #4]
c010017c:	1e5a      	subs	r2, r3, #1
c010017e:	607a      	str	r2, [r7, #4]
c0100180:	2b00      	cmp	r3, #0
c0100182:	d1fa      	bne.n	c010017a <delay+0xa>
c0100184:	bf00      	nop
c0100186:	370c      	adds	r7, #12
c0100188:	46bd      	mov	sp, r7
c010018a:	f85d 7b04 	ldr.w	r7, [sp], #4
c010018e:	4770      	bx	lr

c0100190 <main>:
c0100190:	b580      	push	{r7, lr}
c0100192:	af00      	add	r7, sp, #0
c0100194:	f240 230c 	movw	r3, #524	; 0x20c
c0100198:	f2cc 0310 	movt	r3, #49168	; 0xc010
c010019c:	681a      	ldr	r2, [r3, #0]
c010019e:	f240 230c 	movw	r3, #524	; 0x20c
c01001a2:	f2cc 0310 	movt	r3, #49168	; 0xc010
c01001a6:	681b      	ldr	r3, [r3, #0]
c01001a8:	681b      	ldr	r3, [r3, #0]
c01001aa:	f043 0301 	orr.w	r3, r3, #1
c01001ae:	6013      	str	r3, [r2, #0]
c01001b0:	bf00      	nop
c01001b2:	f240 230c 	movw	r3, #524	; 0x20c
c01001b6:	f2cc 0310 	movt	r3, #49168	; 0xc010
c01001ba:	681b      	ldr	r3, [r3, #0]
c01001bc:	681b      	ldr	r3, [r3, #0]
c01001be:	f003 0302 	and.w	r3, r3, #2
c01001c2:	2b00      	cmp	r3, #0
c01001c4:	d0f5      	beq.n	c01001b2 <main+0x22>
c01001c6:	f240 2310 	movw	r3, #528	; 0x210
c01001ca:	f2cc 0310 	movt	r3, #49168	; 0xc010
c01001ce:	681a      	ldr	r2, [r3, #0]
c01001d0:	f240 2310 	movw	r3, #528	; 0x210
c01001d4:	f2cc 0310 	movt	r3, #49168	; 0xc010
c01001d8:	681b      	ldr	r3, [r3, #0]
c01001da:	681b      	ldr	r3, [r3, #0]
c01001dc:	f043 0301 	orr.w	r3, r3, #1
c01001e0:	6013      	str	r3, [r2, #0]
c01001e2:	f7ff ff2b 	bl	c010003c <led_init>
c01001e6:	2001      	movs	r0, #1
c01001e8:	f7ff ff98 	bl	c010011c <led_ctl>
c01001ec:	f244 2040 	movw	r0, #16960	; 0x4240
c01001f0:	f2c0 000f 	movt	r0, #15
c01001f4:	f7ff ffbc 	bl	c0100170 <delay>
c01001f8:	2000      	movs	r0, #0
c01001fa:	f7ff ff8f 	bl	c010011c <led_ctl>
c01001fe:	f244 2040 	movw	r0, #16960	; 0x4240
c0100202:	f2c0 000f 	movt	r0, #15
c0100206:	f7ff ffb3 	bl	c0100170 <delay>
c010020a:	e7ec      	b.n	c01001e6 <main+0x56>

Disassembly of section .data:

c010020c <RCC_PLL4CR>:
c010020c:	50000894 	mulpl	r0, r4, r8

c0100210 <RCC_MP_AHB4LPENSETR>:
c0100210:	50000a28 	andpl	r0, r0, r8, lsr #20

Disassembly of section .bss:

c0100214 <__bss_start>:
c0100214:	00000000 	andeq	r0, r0, r0

c0100218 <GPIOA_OTYPER>:
c0100218:	00000000 	andeq	r0, r0, r0

c010021c <GPIOA_ODR>:
c010021c:	00000000 	andeq	r0, r0, r0

c0100220 <GPIOA_AFRL>:
c0100220:	00000000 	andeq	r0, r0, r0

c0100224 <GPIOA_AFRH>:
c0100224:	00000000 	andeq	r0, r0, r0

