
led.elf:     file format elf32-littlearm


Disassembly of section .text:

c0100000 <_start>:
c0100000:	e51fd000 	ldr	sp, [pc, #-0]	; c0100008 <_start+0x8>
c0100004:	fa000008 	blx	c010002c <main>
c0100008:	c0100000 	andsgt	r0, r0, r0

c010000c <delay>:
c010000c:	b480      	push	{r7}
c010000e:	b083      	sub	sp, #12
c0100010:	af00      	add	r7, sp, #0
c0100012:	6078      	str	r0, [r7, #4]
c0100014:	bf00      	nop
c0100016:	687b      	ldr	r3, [r7, #4]
c0100018:	1e5a      	subs	r2, r3, #1
c010001a:	607a      	str	r2, [r7, #4]
c010001c:	2b00      	cmp	r3, #0
c010001e:	d1fa      	bne.n	c0100016 <delay+0xa>
c0100020:	bf00      	nop
c0100022:	370c      	adds	r7, #12
c0100024:	46bd      	mov	sp, r7
c0100026:	f85d 7b04 	ldr.w	r7, [sp], #4
c010002a:	4770      	bx	lr

c010002c <main>:
c010002c:	b580      	push	{r7, lr}
c010002e:	b082      	sub	sp, #8
c0100030:	af00      	add	r7, sp, #0
c0100032:	f640 0394 	movw	r3, #2196	; 0x894
c0100036:	f2c5 0300 	movt	r3, #20480	; 0x5000
c010003a:	607b      	str	r3, [r7, #4]
c010003c:	687b      	ldr	r3, [r7, #4]
c010003e:	681b      	ldr	r3, [r3, #0]
c0100040:	f043 0201 	orr.w	r2, r3, #1
c0100044:	687b      	ldr	r3, [r7, #4]
c0100046:	601a      	str	r2, [r3, #0]
c0100048:	bf00      	nop
c010004a:	687b      	ldr	r3, [r7, #4]
c010004c:	681b      	ldr	r3, [r3, #0]
c010004e:	f640 2328 	movw	r3, #2600	; 0xa28
c0100052:	f2c5 0300 	movt	r3, #20480	; 0x5000
c0100056:	607b      	str	r3, [r7, #4]
c0100058:	687b      	ldr	r3, [r7, #4]
c010005a:	681b      	ldr	r3, [r3, #0]
c010005c:	f043 0201 	orr.w	r2, r3, #1
c0100060:	687b      	ldr	r3, [r7, #4]
c0100062:	601a      	str	r2, [r3, #0]
c0100064:	f44f 5300 	mov.w	r3, #8192	; 0x2000
c0100068:	f2c5 0300 	movt	r3, #20480	; 0x5000
c010006c:	607b      	str	r3, [r7, #4]
c010006e:	687b      	ldr	r3, [r7, #4]
c0100070:	681b      	ldr	r3, [r3, #0]
c0100072:	f423 1240 	bic.w	r2, r3, #3145728	; 0x300000
c0100076:	687b      	ldr	r3, [r7, #4]
c0100078:	601a      	str	r2, [r3, #0]
c010007a:	687b      	ldr	r3, [r7, #4]
c010007c:	681b      	ldr	r3, [r3, #0]
c010007e:	f443 1280 	orr.w	r2, r3, #1048576	; 0x100000
c0100082:	687b      	ldr	r3, [r7, #4]
c0100084:	601a      	str	r2, [r3, #0]
c0100086:	f242 0314 	movw	r3, #8212	; 0x2014
c010008a:	f2c5 0300 	movt	r3, #20480	; 0x5000
c010008e:	607b      	str	r3, [r7, #4]
c0100090:	687b      	ldr	r3, [r7, #4]
c0100092:	681b      	ldr	r3, [r3, #0]
c0100094:	f443 6280 	orr.w	r2, r3, #1024	; 0x400
c0100098:	687b      	ldr	r3, [r7, #4]
c010009a:	601a      	str	r2, [r3, #0]
c010009c:	f244 2040 	movw	r0, #16960	; 0x4240
c01000a0:	f2c0 000f 	movt	r0, #15
c01000a4:	f7ff ffb2 	bl	c010000c <delay>
c01000a8:	687b      	ldr	r3, [r7, #4]
c01000aa:	681b      	ldr	r3, [r3, #0]
c01000ac:	f423 6280 	bic.w	r2, r3, #1024	; 0x400
c01000b0:	687b      	ldr	r3, [r7, #4]
c01000b2:	601a      	str	r2, [r3, #0]
c01000b4:	f244 2040 	movw	r0, #16960	; 0x4240
c01000b8:	f2c0 000f 	movt	r0, #15
c01000bc:	f7ff ffa6 	bl	c010000c <delay>
c01000c0:	e7e6      	b.n	c0100090 <main+0x64>

