
led.elf:     file format elf32-littlearm


Disassembly of section .text:

80100000 <_start>:
80100000:	e51fd000 	ldr	sp, [pc, #-0]	; 80100008 <_start+0x8>
80100004:	fa000008 	blx	8010002c <main>
80100008:	80100000 	andshi	r0, r0, r0

8010000c <delay>:
8010000c:	b480      	push	{r7}
8010000e:	b083      	sub	sp, #12
80100010:	af00      	add	r7, sp, #0
80100012:	6078      	str	r0, [r7, #4]
80100014:	bf00      	nop
80100016:	687b      	ldr	r3, [r7, #4]
80100018:	1e5a      	subs	r2, r3, #1
8010001a:	607a      	str	r2, [r7, #4]
8010001c:	2b00      	cmp	r3, #0
8010001e:	d1fa      	bne.n	80100016 <delay+0xa>
80100020:	bf00      	nop
80100022:	370c      	adds	r7, #12
80100024:	46bd      	mov	sp, r7
80100026:	f85d 7b04 	ldr.w	r7, [sp], #4
8010002a:	4770      	bx	lr

8010002c <main>:
8010002c:	b580      	push	{r7, lr}
8010002e:	b082      	sub	sp, #8
80100030:	af00      	add	r7, sp, #0
80100032:	2314      	movs	r3, #20
80100034:	f2c0 2329 	movt	r3, #553	; 0x229
80100038:	607b      	str	r3, [r7, #4]
8010003a:	687b      	ldr	r3, [r7, #4]
8010003c:	681b      	ldr	r3, [r3, #0]
8010003e:	f043 0205 	orr.w	r2, r3, #5
80100042:	687b      	ldr	r3, [r7, #4]
80100044:	601a      	str	r2, [r3, #0]
80100046:	f24c 0304 	movw	r3, #49156	; 0xc004
8010004a:	f2c0 230a 	movt	r3, #522	; 0x20a
8010004e:	607b      	str	r3, [r7, #4]
80100050:	687b      	ldr	r3, [r7, #4]
80100052:	681b      	ldr	r3, [r3, #0]
80100054:	f043 0208 	orr.w	r2, r3, #8
80100058:	687b      	ldr	r3, [r7, #4]
8010005a:	601a      	str	r2, [r3, #0]
8010005c:	f44f 4340 	mov.w	r3, #49152	; 0xc000
80100060:	f2c0 230a 	movt	r3, #522	; 0x20a
80100064:	607b      	str	r3, [r7, #4]
80100066:	687b      	ldr	r3, [r7, #4]
80100068:	681b      	ldr	r3, [r3, #0]
8010006a:	f043 0208 	orr.w	r2, r3, #8
8010006e:	687b      	ldr	r3, [r7, #4]
80100070:	601a      	str	r2, [r3, #0]
80100072:	f244 2040 	movw	r0, #16960	; 0x4240
80100076:	f2c0 000f 	movt	r0, #15
8010007a:	f7ff ffc7 	bl	8010000c <delay>
8010007e:	687b      	ldr	r3, [r7, #4]
80100080:	681b      	ldr	r3, [r3, #0]
80100082:	f023 0208 	bic.w	r2, r3, #8
80100086:	687b      	ldr	r3, [r7, #4]
80100088:	601a      	str	r2, [r3, #0]
8010008a:	f244 2040 	movw	r0, #16960	; 0x4240
8010008e:	f2c0 000f 	movt	r0, #15
80100092:	f7ff ffbb 	bl	8010000c <delay>
80100096:	e7e6      	b.n	80100066 <main+0x3a>

