
led.elf:     file format elf32-littlearm


Disassembly of section .text:

c0100000 <_start>:
c0100000:	e51fd000 	ldr	sp, [pc, #-0]	; c0100008 <_start+0x8>
c0100004:	fa000008 	blx	c010002c <main>
c0100008:	c0100000 	andsgt	r0, r0, r0

c010000c <delay>:
c010000c:	b480      	push	{r7}
c010000e:	b083      	sub	sp, #12
c0100010:	af00      	add	r7, sp, #0
c0100012:	6078      	str	r0, [r7, #4]
c0100014:	bf00      	nop
c0100016:	687b      	ldr	r3, [r7, #4]
c0100018:	1e5a      	subs	r2, r3, #1
c010001a:	607a      	str	r2, [r7, #4]
c010001c:	2b00      	cmp	r3, #0
c010001e:	d1fa      	bne.n	c0100016 <delay+0xa>
c0100020:	bf00      	nop
c0100022:	370c      	adds	r7, #12
c0100024:	46bd      	mov	sp, r7
c0100026:	f85d 7b04 	ldr.w	r7, [sp], #4
c010002a:	4770      	bx	lr

c010002c <main>:
c010002c:	b480      	push	{r7}
c010002e:	b085      	sub	sp, #20
c0100030:	af00      	add	r7, sp, #0
c0100032:	f640 0394 	movw	r3, #2196	; 0x894
c0100036:	f2c5 0300 	movt	r3, #20480	; 0x5000
c010003a:	60fb      	str	r3, [r7, #12]
c010003c:	68fb      	ldr	r3, [r7, #12]
c010003e:	681b      	ldr	r3, [r3, #0]
c0100040:	f043 0201 	orr.w	r2, r3, #1
c0100044:	68fb      	ldr	r3, [r7, #12]
c0100046:	601a      	str	r2, [r3, #0]
c0100048:	bf00      	nop
c010004a:	68fb      	ldr	r3, [r7, #12]
c010004c:	681b      	ldr	r3, [r3, #0]
c010004e:	f003 0302 	and.w	r3, r3, #2
c0100052:	2b00      	cmp	r3, #0
c0100054:	d0f9      	beq.n	c010004a <main+0x1e>
c0100056:	f640 2328 	movw	r3, #2600	; 0xa28
c010005a:	f2c5 0300 	movt	r3, #20480	; 0x5000
c010005e:	60fb      	str	r3, [r7, #12]
c0100060:	68fb      	ldr	r3, [r7, #12]
c0100062:	681b      	ldr	r3, [r3, #0]
c0100064:	f043 0241 	orr.w	r2, r3, #65	; 0x41
c0100068:	68fb      	ldr	r3, [r7, #12]
c010006a:	601a      	str	r2, [r3, #0]
c010006c:	f44f 5300 	mov.w	r3, #8192	; 0x2000
c0100070:	f2c5 0300 	movt	r3, #20480	; 0x5000
c0100074:	60bb      	str	r3, [r7, #8]
c0100076:	68bb      	ldr	r3, [r7, #8]
c0100078:	681b      	ldr	r3, [r3, #0]
c010007a:	f423 1240 	bic.w	r2, r3, #3145728	; 0x300000
c010007e:	68bb      	ldr	r3, [r7, #8]
c0100080:	601a      	str	r2, [r3, #0]
c0100082:	68bb      	ldr	r3, [r7, #8]
c0100084:	681b      	ldr	r3, [r3, #0]
c0100086:	f443 1280 	orr.w	r2, r3, #1048576	; 0x100000
c010008a:	68bb      	ldr	r3, [r7, #8]
c010008c:	601a      	str	r2, [r3, #0]
c010008e:	f44f 4300 	mov.w	r3, #32768	; 0x8000
c0100092:	f2c5 0300 	movt	r3, #20480	; 0x5000
c0100096:	607b      	str	r3, [r7, #4]
c0100098:	687b      	ldr	r3, [r7, #4]
c010009a:	681b      	ldr	r3, [r3, #0]
c010009c:	f023 02c0 	bic.w	r2, r3, #192	; 0xc0
c01000a0:	687b      	ldr	r3, [r7, #4]
c01000a2:	601a      	str	r2, [r3, #0]
c01000a4:	f242 0314 	movw	r3, #8212	; 0x2014
c01000a8:	f2c5 0300 	movt	r3, #20480	; 0x5000
c01000ac:	60bb      	str	r3, [r7, #8]
c01000ae:	f248 0310 	movw	r3, #32784	; 0x8010
c01000b2:	f2c5 0300 	movt	r3, #20480	; 0x5000
c01000b6:	607b      	str	r3, [r7, #4]
c01000b8:	687b      	ldr	r3, [r7, #4]
c01000ba:	681b      	ldr	r3, [r3, #0]
c01000bc:	f003 0308 	and.w	r3, r3, #8
c01000c0:	2b00      	cmp	r3, #0
c01000c2:	d106      	bne.n	c01000d2 <main+0xa6>
c01000c4:	68bb      	ldr	r3, [r7, #8]
c01000c6:	681b      	ldr	r3, [r3, #0]
c01000c8:	f423 6280 	bic.w	r2, r3, #1024	; 0x400
c01000cc:	68bb      	ldr	r3, [r7, #8]
c01000ce:	601a      	str	r2, [r3, #0]
c01000d0:	e7f2      	b.n	c01000b8 <main+0x8c>
c01000d2:	68bb      	ldr	r3, [r7, #8]
c01000d4:	681b      	ldr	r3, [r3, #0]
c01000d6:	f443 6280 	orr.w	r2, r3, #1024	; 0x400
c01000da:	68bb      	ldr	r3, [r7, #8]
c01000dc:	601a      	str	r2, [r3, #0]
c01000de:	e7eb      	b.n	c01000b8 <main+0x8c>

