:020000040800F2
:10000000E8060020E9010008F1010008F3010008FA
:10001000F5010008F7010008F901000800000000E0
:10002000000000000000000000000000FB010008CC
:10003000FD01000800000000FF01000801020008A7
:10004000030200080302000803020008030200087C
:10005000030200080302000803020008030200086C
:10006000030200080302000803020008030200085C
:10007000030200080302000803020008030200084C
:10008000030200080302000803020008030200083C
:10009000030200080302000803020008030200082C
:1000A000030200080302000803020008030200081C
:1000B000030200080302000803020008030200080C
:1000C00003020008030200080302000803020008FC
:1000D00003020008030200080302000803020008EC
:1000E00003020008030200080302000803020008DC
:1000F00003020008030200080302000803020008CC
:1001000003020008030200080302000803020008BB
:1001100003020008030200080302000803020008AB
:10012000030200080302000803020008030200089B
:1001300000F002F800F048F80AA090E8000C8244B1
:100140008344AAF10107DA4501D100F03DF8AFF28E
:10015000090EBAE80F0013F0010F18BFFB1A43F0A5
:10016000010318476413000084130000103A24BFF1
:1001700078C878C1FAD8520724BF30C830C144BF0C
:1001800004680C607047000000230024002500264E
:10019000103A28BF78C1FBD8520728BF30C148BFEA
:1001A0000B607047632900F03981002070471FB54C
:1001B00000F0D6FB04000020002100F09BFD401C55
:1001C00060601FBD10B510BD00F0A8F91146FFF723
:1001D000EEFF00F063FD00F0ADFB03B4FFF7F2FFAC
:1001E00003BC00F047FD000009488047094800476C
:1001F000FEE7FEE7FEE7FEE7FEE7FEE7FEE7FEE7D7
:10020000FEE7FEE704480549054A064B7047000033
:100210006D0A000831010008E8000020E80600200F
:10022000E8020020E8020020704700000FB40449F3
:1002300010B503AA029800F0FDF810BC5DF814FB9D
:10024000800000202DE9F0410E4604460020206287
:100250002046E168884730B3252805D0D4E901213C
:100260009047206A401CF2E7E16820460027884753
:10027000050018D0A5F14100192802D820354FF407
:1002800000673246294620462760FFF78BFF40B1C2
:10029000012804D0F61D26F007060836D8E7361DDB
:1002A000D6E72846DAE7206ABDE8F08170B50C464B
:1002B0000546012A05D02878800600D5EA69002382
:1002C00002E0012305E05B1C934202D2E05C0028BF
:1002D000F9D1A869E618C01AA861286A18442862EA
:1002E0002846AFF3008004E0D5E9012114F8010BA2
:1002F0009047B442F8D32846AFF3008070BD0000A9
:100300000FB400B589B00BA86A46009003480A995B
:1003100000F0A2F809B05DF814FB00008400002092
:100320002DE9FF5F4FF00008994614464646916953
:10033000D2E901A7DDF838B001988847054659EAA7
:100340000B0005D009E0A1690198761C8847054695
:10035000216A284688470028F5D1681C03D05FEA47
:10036000CA7005D015E04FF0FF3004B0BDE8F09F33
:100370002068011D2160D0F800800AE05FEACA70A1
:1003800001D108F8015BA169761C01987F1E88479E
:100390000546002F1ADD681C18D0B9F1000F0DD0EA
:1003A000E81705EBD060421120F01F0059F8221029
:1003B0002A1A012090400142E0D107E0BBF1000F72
:1003C000DCD12846216A88470028D7D0E169019806
:1003D0008847BBF1000F07D1002E05DD5FEACA7028
:1003E00002D1002188F80010A068B84203DDBBF1FB
:1003F000000F03D017B16FF00100B6E73046B4E745
:10040000704770477047704710B5436913B1AFF339
:10041000008001E0FFF74AFF012010BD127800F1D3
:1004200024010A7000224A700122EDE711684FF0A2
:10043000FF32E9E7074B70B50D467B4400F01DF82D
:100440000446284600F066F810B14FF0FF3070BD4A
:10045000204670BD4F080000034B7B449361034B63
:100460007B44D36100F022B8190800006B00000043
:1004700001694A1C02610878704700B58FB0CDE968
:1004800001310021059105497944CDE90310114658
:100490006846FFF7D7FE0FB000BD0000E5FFFFFF85
:1004A000026811441378016018467047D16005490D
:1004B0007944516104497944116200211161114666
:1004C00000F05AB8EDFFFFFFAD000000704710B517
:1004D0004FF0FF34C1688A020FD5036B42689A421D
:1004E0000BD1014690F82520104600F0FFF9401C82
:1004F00001D1204610BD002010BD11F0C00FF8D171
:10050000026941689142F4D90268491E521CC0E94F
:100510000021F0E7007B00F080007047754600F096
:1005200013FAAE4605006946534620F0070085469B
:1005300018B020B5FFF766FEBDE820404FF000067A
:100540004FF000074FF000084FF0000B21F00701BB
:10055000AC46ACE8C009ACE8C009ACE8C009ACE8FE
:10056000C0098D46704710B5044600F0F1F90068E7
:10057000005D00F0010010BD2DE9F34F4FF0000ABF
:100580000C4656468DB001200C9001F10C000B90EA
:1005900062690B9801219047051E2DD0252D2CD086
:1005A000216A8847C0B162690B9801219047216A8E
:1005B00088470028F7D16269411E0B98904700E0F8
:1005C000761CA1690D988847216A88470028F7D1D1
:1005D000E1690D988847DBE7A1690D988847A84233
:1005E000074601D1761CD3E7E1690D9888477F1C47
:1005F00002D1BAF1000F6FD06CE162690B9800274D
:100600003D46394690472A2804D162690B9801215A
:1006100090470125DFF8D08262690B98012190474D
:10062000A0F130010A290AD24745E5DC07EB870132
:1006300000EB4107303FDFD445F01005ECE7E90659
:1006400001D46FF000476C280AD04C2814D06828D9
:1006500015D06A280DD074281CD07A281AD01DE035
:1006600062690B98012190476C2802D045F004057F
:1006700014E045F002050DE045F020050AE062694E
:100680000B9801219047682802D045F0080505E045
:1006900045F4006562690B9801219047C4E9015750
:1006A00065283DD019DC58287AD00CDC452837D095
:1006B00004DC252826D041289ED131E046282FD0C1
:1006C000472899D12CE05B2877D0612828D063286F
:1006D0007CD0642823D15AE0F7E06F2848D008DCAA
:1006E00066281DD067281BD0692821D06E2816D116
:1006F00027E0702845D0732868D0752847D078281F
:100700000DD14DE0A1690D988847252805463FF495
:1007100069AFE1690D9888476D1C3FF46AAFD9E075
:100720000D9923466A466FF00100AFF30080C6E0E2
:1007300045F0400023464FF000026060A80736D421
:100740003EE0E8077FF447AF2068011D21600068A4
:10075000290501D506701BE7290701D5068017E793
:10076000A90703D5F117C0E9006111E706600FE79B
:1007700045F0400023464FF008026060A80716D4F9
:100780001EE040F60E0125EA0100606016E045F02B
:10079000400023464FF00A026060A80707D40FE02C
:1007A00045F040006060A80708D5234610220D9947
:1007B0006FF00100AFF3008081E007E010222346D4
:1007C0000D996FF00100AFF3008078E04FF0000961
:1007D00063284F46C8464B46CB4602D05B2807D01D
:1007E00039E02079C00601D40120A060012732E061
:1007F0006269D4F80CB00B98012190475E2807D1AC
:100800004FF0010949466269D4F80CB00B98904743
:10081000216939B900210A4603AB43F82120491C5C
:100820000829FADBD8B3216949B308F101086269E4
:100830000B98012190475D28F4D1B9F1000F09D040
:10084000002003A951F82020D24341F82020401C69
:100850000828F7DB03AB2069002820794FEA4070B5
:100860001ED05B462246CDF80080CDE901970D9958
:1008700000286FF0010020DAAFF300801FE0C117FD
:1008800003AA00EBD1614B1121F01F0102EB83029F
:10089000411A13680120884003431360C7E719E039
:1008A0000D99224600286FF00100009702DAAFF39D
:1008B000008004E0FFF734FD01E0AFF30080002882
:1008C0000ADA401C06D10C9820B14FF0FF300FB06F
:1008D000BDE8F08F5046FAE7E90701D10AF1010AB5
:1008E000064400200C9053E6CCCCCC0CCA68431CC8
:1008F0000FD00D4B1A420CD1D3070AD081F8250036
:100900004B680B6300238B6012F0C06F0B6003D049
:1009100004E04FF0FF30704742F00072034B1A4082
:10092000034B1A43CA60704780200800BFFFDFFFF7
:100930000010480010B50446AFF300802046BDE823
:100940001040FFF74ABC00000048704788000020B4
:1009500010B500F005F8001D10BD00BF99030000A0
:1009600000487047A80000204FF0013C50F8042BCD
:1009700051F8043B9A4221D1A2EB0C03934313EAB2
:10098000CC1317D150F8042B51F8043B9A4215D1DF
:10099000A2EB0C03934313EACC130BD150F8042BB6
:1009A00051F8043B9A4209D1A2EB0C03934313EA9A
:1009B000CC13DBD04FF00000704700BFD01A01BA53
:1009C000B1FA81F101F0180122FA01F0CB40C1F136
:1009D0002001DBB2C0B2C01A2CFA01F3D11A914344
:1009E00011EAC311E6D170471E48006840F4803018
:1009F0001C49086000BF1B48006800F40030002854
:100A0000F9D01848406840F4E0101649486008469C
:100A1000406840F4803048600846006840F08070CC
:100A2000086000BF0F48006800F000700028F9D08F
:100A30000D48006840F002000B4908600948406812
:100A400040F002000749486000BF0648406800F0D7
:100A500008000028F9D00348406840F4806001494C
:100A60004860704700100240002002400F480068B4
:100A700040F001000D490860084640680C490840F4
:100A80000A494860084600680A4908400749086062
:100A90000846006820F4802008600846406820F47A
:100AA000FE0048604FF41F0088607047001002404D
:100AB0000000FFF8FFFFF6FE0348806940F4804025
:100AC00001498861704700000010024016488069A3
:100AD00040F00400144988611448006820F0300098
:100AE000124908600846006840F010000860084697
:100AF000006820F0C00008600846006840F08000F0
:100B000008600846006820F44070086008460068E5
:100B100008600846006820F44060086008460068E5
:100B200040F4006008607047001002400408014073
:100B30002DE9F14F82B04FF0000AD346002001901A
:100B4000FFF7BAFFFFF7C2FF029800F073FA0646FC
:100B500032460B460020234900F014F904460022D7
:100B6000214B00F00FF9804600F0DAF8824650463B
:100B700000F02AFB1FFA80FB584600F045FB0646B2
:100B8000514600F021FC05464FF0834100F050FB38
:100B9000044600F019FB80B20190144800680199E6
:100BA00041EA0B11084311490860081D006840F034
:100BB0000400091D08600846006840F0080008604D
:100BC000084600680860081D0068091D0860081FC5
:100BD0000068091F08600846006840F4005008607B
:100BE000BDE8FE8F882A914100003040083801405E
:100BF0000246002001B9704700200CE000BF084BFE
:100C00001B6803F02003002BF9D0054B1B1D1B684C
:100C10001354431C98B28842F0DB00BFEBE700009E
:100C20000038014010B50246002001B910BD002077
:100C300019E00F4B1B6823F040030D4C236000BFED
:100C40000B4B1B6803F08003002BF9D0135C084C9E
:100C5000241D236000BF064B1B6803F04003002BDC
:100C6000F9D0431C98B28842E3DB00BFDEE7000006
:100C700000380140704738B504460020009001213B
:100C80006846FFF7B5FF9DF8000038BD13B50C4668
:100C900001216846FFF7C6FF00981CBD08B500207B
:100CA0000090FFF7A1FE4FF4E130FFF741FF08A0ED
:100CB000FFF7BCFA0AA0FFF7B9FA08E069460CA0F2
:100CC000FFF71EFB9DF8001009A0FFF7AFFAF5E74C
:100CD0000D0A48656C6C6F20576F726C64210000C0
:100CE0000D0A50726573732061206B65793A20009C
:100CF0002563000010B500290AD00878002807D025
:100D000005487844FFF730FE002801D0002010BDD0
:100D10000248784410BD0000E6070000DE0700002E
:100D200021F00042A2F16052B2F5801F01F00043B1
:100D300028BFD2F17F6C0BD95FEA001C43EAC202E4
:100D400042EB507018BF704728BF20F00100704779
:100D5000B2F5801FBCBF184670474FEA410C1CF526
:100D6000001F02D2084600F02ABB70B500F075F9EA
:100D700000000089FFF7F6BF4FF00040A0F58000AB
:100D8000704700002DE9C04130B4DFF8A0C23CEA52
:100D9000111418BF3CEA131400F0EC8081EA03053B
:100DA0001CEA111444EAD57418BF1CEA131500F0AC
:100DB000C780A4EB05044FF0004545EAC12145EA90
:100DC000C32341EA505143EA525304F17F749942DC
:100DD00004F500344FEAC0204FEAC22208BF904217
:100DE00000F09C804FEA13650FF24016765D4FEAE3
:100DF000134506FB05F7C7F1807706FB07F74FEAB7
:100E0000D737A7FB03687642C8F58038A7FB06CE24
:100E100038BFA8F1010807FB08E64FF0000EA6FB5B
:100E2000028CE6FB03CEDCF1000CCEF1004E38BFA5
:100E3000AEF1010EA6FB0C584FF000074FF0000575
:100E4000E6FB0E87A1FB08C6A0FB07CE16EB0E063D
:100E500045F10005E1FB076515F1E04E7EBFA4F505
:100E600080345FEA46066D4116F1800745F10005C2
:100E70004FEA17274FEA066647EA0567A6F1DE46FE
:100E8000B6F1805F4FEA15251FD9384624F0010CD2
:100E900005EBC471BCF1FE6F01EB0C1102D8F0BC84
:100EA000BDE8008124425CBF01F5801E9EEAC47F3C
:100EB00002D4F0BCBDE80081244238D4F0BCA1F1DA
:100EC000C041BDE8004100F016B94FEAD22242EA23
:100ED00043524FEAD323A7FB02864FEAD02040EAD1
:100EE000415007FB03661EEA0E0F4FEAD12105FBB6
:100EF000026658BFA6EB0056B6EB00564FEA520EFC
:100F00004EEAC37E18EB0E0E56EB530EBDD518EB12
:100F100002085E417F1C55F10005B6E74FF48015CD
:100F20004FF000074FF000064FF00008ADE7F0BCAF
:100F30004FF0000001F1C04101F00041BDE8008127
:100F400011EA0C1F0CEA131500D00CE013EA0C1F79
:100F500000F025804FF00000F0BC81EA030101F0B1
:100F60000041BDE80081F0BCBDE8004181EA030119
:100F700000F0C1B8F0BCBDE8004170B500F06DF8FC
:100F8000097EFC3E00F007B881EA03014FF0000043
:100F900001F00041704781EA030100F0ACB8F0BCF9
:100FA000BDE800414FF0000021497047FFFDFBF90B
:100FB000F7F5F4F2F0EEEDEBE9E8E6E4E3E1E0DE8C
:100FC000DDDBDAD8D7D5D4D3D1D0CFCDCCCBCAC8FE
:100FD000C7C6C5C4C2C1C0BFBEBDBCBBBAB9B8B725
:100FE000B6B5B4B3B2B1B0AFAEADACABAAA9A8A818
:100FF000A7A6A5A4A3A3A2A1A09F9F9E9D9C9C9BE6
:101000009A99999897979695959493939291919090
:101010008F8F8E8E8D8C8C8B8B8A89898888878721
:101020008685858484838382828181800000FF0796
:101030000000F87FB0FA80F310FA03F10AD0C3F190
:101040001D0303F580634FEA41504FEA035202EB60
:10105000D12170474FF0000070470EF1020E2EF0C4
:10106000030E5EF8046B364205D4012A43EB0305F8
:1010700015F5001F12D8012841EB010C1CF5001FCB
:101080000CD80ED14FEAD17C15F5001F0CEB4C0C9F
:101090000CF1020C08BF4CEBD37C04E04FF0080CC1
:1010A00001E04FEAD37C0CEB4C0526FA05F606F07E
:1010B0000706B6F1040C06D20EEB860CBDE87040B4
:1010C0004CF0010C6047DFE80CF0090B02024FF016
:1010D00000414FF00000A1F5002170BD19461046F7
:1010E000012851EB010418BFD4F5001484BF00207F
:1010F00001F0004170BD0808A0F500114FEA310170
:101100007047000090EA010F48BF81F0004100F1F4
:101110006C81421A3CBF801A89184FEAD0524FF0B6
:101120007F4C1CEA410FA2EBD15318BF9CEA026F1F
:1011300000F03B804FF0004C4CEA00204CEA0121CB
:1011400021FA03FC10EB0C0C1ED202F1FF325FEA15
:101150001C2040EBC25038BF70471CF07F0F4FEA95
:10116000400C18BFBCF17F4F38BF7047C3F120035C
:10117000994008BF20F00100BCF17F4F38BF704795
:10118000A0F1C04000F01BB94FEA3C00000A40EB60
:10119000C25028BF1CF0FF0F4FEA400CE6D018BF2A
:1011A000BCF17F4F38BF7047EAE79CEA026F05D079
:1011B00010EA5C0F08BF00F00040704710B500F067
:1011C000B8F800BF64FBBE3EC10DD1F19E0206DB44
:1011D0004FEA002343F0004323FA02F07047004235
:1011E00007D54FEA4001B1F1FE4F02D24FF00000A7
:1011F000704710B500F09DF8499224800020704798
:101200006FEA200070470000B0FA80F310FA03F292
:10121000C3F19D030AD0D90501EB1220530638BF54
:10122000704700F1010008BF20F001007047000086
:101230004FF47F0C1CEAD0121EBF1CEAD11392EAB5
:101240000C0F93EA0C0F00F0478090EA010F48BFA3
:1012500042F480724FF0004C4CEA00204CEA01212D
:1012600002EB0302A0FB0113A2F50002002918BF44
:1012700043F001035B0028BF4FEA330342EB2242F5
:101280005FEA132C4CEBC2502EBFBCEB436FB2F5A0
:101290007C0F70474FEA036CBCF1004F08BF20F091
:1012A0000100B2F57C0F38BF70470BD582F0FF020A
:1012B00012F5803FC8BF704700F1C040D8BF00F0B2
:1012C0000040704700F5000C5FEA4C0C48BF7047C7
:1012D000B0F1C04000F073B890EA010F0CEAD113EE
:1012E00048BF42F48072624538BF634504D280EA49
:1012F000010000F00040704710B500F01AF800BF80
:101300008900013E00F007B800F009B85FEA410C1F
:101310005FEA1C6C08D080EA010000F050B85FEA78
:10132000400C5FEA1C6CF6D14FF00040A0F5800045
:1013300070470EF1020E2EF0030E5EF8044B2442AD
:1013400004D44FEA4102B2F17F4F11D84FEA400373
:10135000B3F17F4F0CD80ED14FEAD07CB2F17F4F62
:101360000CEB4C0C0CF1020C08BF4CEBD17C04E0F4
:101370004FF0080C01E04FEAD17C0CEB4C0324FA4F
:1013800003F404F00704B4F1040C06D20EEB840C51
:10139000BDE810404CF0010C6047DFE80CF0070896
:1013A00002024FF00040A0F5800010BD0846420048
:1013B00018BFD2F1807288BF00F0004010BDFF213D
:1013C00041EAD050C005704780F0004090EA010F1C
:1013D0007FF59FAE81F0004100F007B890EA010F61
:1013E00048BF81F000413FF594AE421A04D882F024
:1013F0000042A0EB020011444FEAD0524FF07F4C64
:101400001CEA410FA2EBD15318BF9CEA026F4AD0ED
:101410004FF0004C4CEA00204CEA012121FA03FC79
:10142000B0EB0C0C0FD412F0FE0F36D05FEA4C007C
:101430001DD5001240EBC25038BF70471CF03F0F63
:1014400018BF70470BE0A2F101025FEA1C2040EBDD
:10145000C25038BF70471CF07F0F18BF7047C3F1F0
:101460002003994014BF401E20F0010070478008FF
:101470004FEA122308BF7047B0FA80FCA2EB0C02BF
:10148000CCF1280C60FA0CF093EA122F04BF00EBA9
:10149000C25070474FEAC3707047130A5FEADC100E
:1014A00008BF7047F6E79CEA026F04D010EA5C0FB1
:1014B00008BF0020704710B5FFF73BFF40DFF63E46
:1014C00081F0004070470000F8150008000000207F
:1014D000880000006C0100088016000888000020C9
:1014E00060060000880100081001000043000000B1
:1014F000F8FFFFFF00404040404040404040414135
:1015000041414140404040404040404040404040D8
:101510004040404040050202020202020202020272
:10152000020202020220202020202020202020026F
:1015300002020202020290909090909010101010FF
:10154000101010101010101010101010101010109B
:10155000020202020202888888888888080808082F
:1015600008080808080808080808080808080808FB
:101570000202020240000000000000000000000023
:10158000000000000000000000000000000000005B
:10159000000000000000000000000000000000004B
:1015A000000000000000000000000000000000003B
:1015B000000000000000000000000000000000002B
:1015C000000000000000000000000000000000001B
:1015D000000000000000000000000000000000000B
:1015E00000000000000000000000000000000000FB
:1015F000000000000000000048656C6C6F20576F11
:10160000726C642100000000000000000000000077
:1016100000000000000000000000000000000000CA
:1016200000000000000000000000000000000000BA
:1016300000000000000000000000000000000000AA
:10164000000000000000000000000000000000009A
:10165000000000000000000000000000000000008A
:10166000000000000000000000000000000000007A
:10167000000000000000000000000000000000006A
:0400000508000131BD
:00000001FF
