
led.elf:     file format elf32-littlearm


Disassembly of section .text:

80100000 <_start>:
80100000:	e51fd000 	ldr	sp, [pc, #-0]	; 80100008 <_start+0x8>
80100004:	fa000008 	blx	8010002c <main>
80100008:	80100000 	andshi	r0, r0, r0

8010000c <delay>:
8010000c:	b480      	push	{r7}
8010000e:	b083      	sub	sp, #12
80100010:	af00      	add	r7, sp, #0
80100012:	6078      	str	r0, [r7, #4]
80100014:	bf00      	nop
80100016:	687b      	ldr	r3, [r7, #4]
80100018:	1e5a      	subs	r2, r3, #1
8010001a:	607a      	str	r2, [r7, #4]
8010001c:	2b00      	cmp	r3, #0
8010001e:	d1fa      	bne.n	80100016 <delay+0xa>
80100020:	bf00      	nop
80100022:	370c      	adds	r7, #12
80100024:	46bd      	mov	sp, r7
80100026:	f85d 7b04 	ldr.w	r7, [sp], #4
8010002a:	4770      	bx	lr

8010002c <main>:
8010002c:	b480      	push	{r7}
8010002e:	b083      	sub	sp, #12
80100030:	af00      	add	r7, sp, #0
80100032:	f244 0374 	movw	r3, #16500	; 0x4074
80100036:	f2c0 230c 	movt	r3, #524	; 0x20c
8010003a:	607b      	str	r3, [r7, #4]
8010003c:	687b      	ldr	r3, [r7, #4]
8010003e:	681b      	ldr	r3, [r3, #0]
80100040:	f443 5240 	orr.w	r2, r3, #12288	; 0x3000
80100044:	687b      	ldr	r3, [r7, #4]
80100046:	601a      	str	r2, [r3, #0]
80100048:	2314      	movs	r3, #20
8010004a:	f2c0 2329 	movt	r3, #553	; 0x229
8010004e:	603b      	str	r3, [r7, #0]
80100050:	683b      	ldr	r3, [r7, #0]
80100052:	681b      	ldr	r3, [r3, #0]
80100054:	f043 0205 	orr.w	r2, r3, #5
80100058:	683b      	ldr	r3, [r7, #0]
8010005a:	601a      	str	r2, [r3, #0]
8010005c:	f44f 73d8 	mov.w	r3, #432	; 0x1b0
80100060:	f2c0 230e 	movt	r3, #526	; 0x20e
80100064:	607b      	str	r3, [r7, #4]
80100066:	683b      	ldr	r3, [r7, #0]
80100068:	681b      	ldr	r3, [r3, #0]
8010006a:	f023 020f 	bic.w	r2, r3, #15
8010006e:	683b      	ldr	r3, [r7, #0]
80100070:	601a      	str	r2, [r3, #0]
80100072:	683b      	ldr	r3, [r7, #0]
80100074:	681b      	ldr	r3, [r3, #0]
80100076:	f043 0205 	orr.w	r2, r3, #5
8010007a:	683b      	ldr	r3, [r7, #0]
8010007c:	601a      	str	r2, [r3, #0]
8010007e:	f24c 0304 	movw	r3, #49156	; 0xc004
80100082:	f2c0 230a 	movt	r3, #522	; 0x20a
80100086:	603b      	str	r3, [r7, #0]
80100088:	683b      	ldr	r3, [r7, #0]
8010008a:	681b      	ldr	r3, [r3, #0]
8010008c:	f043 0208 	orr.w	r2, r3, #8
80100090:	683b      	ldr	r3, [r7, #0]
80100092:	601a      	str	r2, [r3, #0]
80100094:	f248 0304 	movw	r3, #32772	; 0x8004
80100098:	f2c0 230a 	movt	r3, #522	; 0x20a
8010009c:	607b      	str	r3, [r7, #4]
8010009e:	683b      	ldr	r3, [r7, #0]
801000a0:	681b      	ldr	r3, [r3, #0]
801000a2:	f423 4280 	bic.w	r2, r3, #16384	; 0x4000
801000a6:	683b      	ldr	r3, [r7, #0]
801000a8:	601a      	str	r2, [r3, #0]
801000aa:	f44f 4340 	mov.w	r3, #49152	; 0xc000
801000ae:	f2c0 230a 	movt	r3, #522	; 0x20a
801000b2:	603b      	str	r3, [r7, #0]
801000b4:	f44f 4300 	mov.w	r3, #32768	; 0x8000
801000b8:	f2c0 230a 	movt	r3, #522	; 0x20a
801000bc:	607b      	str	r3, [r7, #4]
801000be:	687b      	ldr	r3, [r7, #4]
801000c0:	681b      	ldr	r3, [r3, #0]
801000c2:	f403 4380 	and.w	r3, r3, #16384	; 0x4000
801000c6:	2b00      	cmp	r3, #0
801000c8:	d106      	bne.n	801000d8 <main+0xac>
801000ca:	683b      	ldr	r3, [r7, #0]
801000cc:	681b      	ldr	r3, [r3, #0]
801000ce:	f023 0208 	bic.w	r2, r3, #8
801000d2:	683b      	ldr	r3, [r7, #0]
801000d4:	601a      	str	r2, [r3, #0]
801000d6:	e7f2      	b.n	801000be <main+0x92>
801000d8:	683b      	ldr	r3, [r7, #0]
801000da:	681b      	ldr	r3, [r3, #0]
801000dc:	f043 0208 	orr.w	r2, r3, #8
801000e0:	683b      	ldr	r3, [r7, #0]
801000e2:	601a      	str	r2, [r3, #0]
801000e4:	e7eb      	b.n	801000be <main+0x92>

