


ARM Macro Assembler    Page 1 


    1 00000000         
    2 00000000                 PRESERVE8
    3 00000000                 THUMB
    4 00000000         
    5 00000000         
    6 00000000         ; Vector Table Mapped to Address 0 at Reset
    7 00000000                 AREA             RESET, DATA, READONLY
    8 00000000                 EXPORT           __Vectors
    9 00000000         
   10 00000000         
   11 00000000 00000000 
                       __Vectors
                               DCD              0
   12 00000004 08000009        DCD              0x08000009  ; //Reset_Handler  
                                                                        ; Reset
                                                             Handler
   13 00000008         
   14 00000008                 AREA             |.text|, CODE, READONLY
   15 00000000         
   16 00000000         ; Reset handler
   17 00000000         Reset_Handler
                               PROC
   18 00000000                 EXPORT           Reset_Handler             [WEAK
]
   19 00000000                 IMPORT           mymain
   20 00000000         
   21 00000000                 IMPORT           |Image$$ER_IROM1$$Base|
   22 00000000                 IMPORT           |Image$$ER_IROM1$$Length|
   23 00000000                 IMPORT           |Load$$ER_IROM1$$Base|
   24 00000000         
   25 00000000                 IMPORT           |Image$$RW_IRAM1$$Base|
   26 00000000                 IMPORT           |Image$$RW_IRAM1$$Length|
   27 00000000                 IMPORT           |Load$$RW_IRAM1$$Base|
   28 00000000                 IMPORT           |Image$$RW_IRAM1$$ZI$$Base|
   29 00000000                 IMPORT           |Image$$RW_IRAM1$$ZI$$Length|
   30 00000000                 IMPORT           memcpy
   31 00000000                 IMPORT           memset
   32 00000000         
   33 00000000 F8DF D024       LDR              SP, =(0x20000000+0x10000)
   34 00000004         
   35 00000004         ; relocate text section
   36 00000004 4809            LDR              R0, = |Image$$ER_IROM1$$Base| 
                                                            ; DEST
   37 00000006 490A            LDR              R1, = |Load$$ER_IROM1$$Base| 
                                                            ; SORUCE
   38 00000008 4A0A            LDR              R2, = |Image$$ER_IROM1$$Length|
 
                                                            ; LENGTH
   39 0000000A F7FF FFFE       BL               memcpy
   40 0000000E         
   41 0000000E         
   42 0000000E         ; relocate data section
   43 0000000E 480A            LDR              R0, = |Image$$RW_IRAM1$$Base| 
                                                            ; DEST
   44 00000010 490A            LDR              R1, = |Load$$RW_IRAM1$$Base| 
                                                            ; SORUCE
   45 00000012 4A0B            LDR              R2, = |Image$$RW_IRAM1$$Length|
 
                                                            ; LENGTH



ARM Macro Assembler    Page 2 


   46 00000014 F7FF FFFE       BL               memcpy
   47 00000018         
   48 00000018         ; clear bss/zi
   49 00000018 480A            LDR              R0, = |Image$$RW_IRAM1$$ZI$$Bas
e| 
                                                            ; DEST
   50 0000001A F04F 0100       MOV              R1, #0      ; VAL
   51 0000001E 4A0A            LDR              R2, = |Image$$RW_IRAM1$$ZI$$Len
gth| 
                                                            ; LENGTH
   52 00000020 F7FF FFFE       BL               memset
   53 00000024         
   54 00000024         ;BL mymain
   55 00000024 4809            LDR              R0, =mymain
   56 00000026 4780            BLX              R0
   57 00000028         
   58 00000028                 ENDP
   59 00000028         
   60 00000028                 END
              20010000 
              00000000 
              00000000 
              00000000 
              00000000 
              00000000 
              00000000 
              00000000 
              00000000 
              00000000 
Command Line: --debug --xref --diag_suppress=9931 --cpu=Cortex-M3 --apcs=interw
ork --depend=.\objects\start.d -o.\objects\start.o -I.\RTE\_led_c -IC:\Users\we
idongshan\AppData\Local\Arm\Packs\Keil\STM32F1xx_DFP\2.3.0\Device\Include -IC:\
Keil_v5\ARM\CMSIS\Include --predefine="__EVAL SETA 1" --predefine="__UVISION_VE
RSION SETA 527" --predefine="STM32F10X_HD SETA 1" --list=.\listings\start.lst s
tart.s



ARM Macro Assembler    Page 1 Alphabetic symbol ordering
Relocatable symbols

RESET 00000000

Symbol: RESET
   Definitions
      At line 7 in file start.s
   Uses
      None
Comment: RESET unused
__Vectors 00000000

Symbol: __Vectors
   Definitions
      At line 11 in file start.s
   Uses
      At line 8 in file start.s
Comment: __Vectors used once
2 symbols



ARM Macro Assembler    Page 1 Alphabetic symbol ordering
Relocatable symbols

.text 00000000

Symbol: .text
   Definitions
      At line 14 in file start.s
   Uses
      None
Comment: .text unused
Reset_Handler 00000000

Symbol: Reset_Handler
   Definitions
      At line 17 in file start.s
   Uses
      At line 18 in file start.s
Comment: Reset_Handler used once
2 symbols



ARM Macro Assembler    Page 1 Alphabetic symbol ordering
External symbols

Image$$ER_IROM1$$Base 00000000

Symbol: Image$$ER_IROM1$$Base
   Definitions
      At line 21 in file start.s
   Uses
      At line 36 in file start.s
Comment: Image$$ER_IROM1$$Base used once
Image$$ER_IROM1$$Length 00000000

Symbol: Image$$ER_IROM1$$Length
   Definitions
      At line 22 in file start.s
   Uses
      At line 38 in file start.s
Comment: Image$$ER_IROM1$$Length used once
Image$$RW_IRAM1$$Base 00000000

Symbol: Image$$RW_IRAM1$$Base
   Definitions
      At line 25 in file start.s
   Uses
      At line 43 in file start.s
Comment: Image$$RW_IRAM1$$Base used once
Image$$RW_IRAM1$$Length 00000000

Symbol: Image$$RW_IRAM1$$Length
   Definitions
      At line 26 in file start.s
   Uses
      At line 45 in file start.s
Comment: Image$$RW_IRAM1$$Length used once
Image$$RW_IRAM1$$ZI$$Base 00000000

Symbol: Image$$RW_IRAM1$$ZI$$Base
   Definitions
      At line 28 in file start.s
   Uses
      At line 49 in file start.s
Comment: Image$$RW_IRAM1$$ZI$$Base used once
Image$$RW_IRAM1$$ZI$$Length 00000000

Symbol: Image$$RW_IRAM1$$ZI$$Length
   Definitions
      At line 29 in file start.s
   Uses
      At line 51 in file start.s
Comment: Image$$RW_IRAM1$$ZI$$Length used once
Load$$ER_IROM1$$Base 00000000

Symbol: Load$$ER_IROM1$$Base
   Definitions
      At line 23 in file start.s
   Uses
      At line 37 in file start.s
Comment: Load$$ER_IROM1$$Base used once
Load$$RW_IRAM1$$Base 00000000

Symbol: Load$$RW_IRAM1$$Base



ARM Macro Assembler    Page 2 Alphabetic symbol ordering
External symbols

   Definitions
      At line 27 in file start.s
   Uses
      At line 44 in file start.s
Comment: Load$$RW_IRAM1$$Base used once
memcpy 00000000

Symbol: memcpy
   Definitions
      At line 30 in file start.s
   Uses
      At line 39 in file start.s
      At line 46 in file start.s

memset 00000000

Symbol: memset
   Definitions
      At line 31 in file start.s
   Uses
      At line 52 in file start.s
Comment: memset used once
mymain 00000000

Symbol: mymain
   Definitions
      At line 19 in file start.s
   Uses
      At line 55 in file start.s
Comment: mymain used once
11 symbols
350 symbols in table
